:020000040800F2
:10000000000002209D2500088D0C00088F0C0008C0
:10001000910C0008930C0008950C000800000000EB
:10002000000000000000000000000000970C000825
:10003000990C0008000000009B0C00089D0C0008B3
:10004000ED250008ED250008ED250008ED25000848
:10005000ED250008ED25000849060008ED250008FB
:10006000ED250008ED250008ED250008ED25000828
:10007000ED250008ED250008ED250008ED25000818
:10008000A50C0008ED250008ED250008ED25000869
:10009000ED250008ED250008ED250008ED250008F8
:1000A000ED250008ED250008ED250008ED250008E8
:1000B000ED250008ED250008ED250008ED250008D8
:1000C000ED250008ED250008ED250008ED250008C8
:1000D000ED250008ED250008ED250008ED250008B8
:1000E000ED250008ED250008ED250008ED250008A8
:1000F000ED250008ED250008ED250008ED25000898
:10010000ED250008ED250008ED250008ED25000887
:10011000ED250008ED250008ED250008ED25000877
:10012000ED250008ED250008ED250008ED25000867
:10013000ED2500080000000000000000ED2500088B
:10014000ED250008ED250008ED250008ED25000847
:10015000ED250008ED250008ED250008ED25000837
:10016000ED250008ED250008ED250008ED25000827
:10017000ED250008ED250008ED2500080000000031
:1001800000000000ED250008000000000000000055
:10019000ED2500080000000000000000ED2500082B
:1001A000000000000000000000000000ED25000835
:1001B000ED250008ED250008ED250008ED250008D7
:0401C000ED25000821
:1001C40010B5054C237833B9044B13B10448AFF38D
:1001D40000800123237010BD3C600020000000005B
:1001E4004826000808B5034B1BB103490348AFF385
:1001F400008008BD00000000406000204826000880
:1002040053B94AB9002908BF00281CBF4FF0FF3179
:100214004FF0FF3000F088B9ADF1080C6DE904CE61
:1002240000F006F8DDF804E0DDE9022304B07047CD
:100234002DE9F047089D8E4604468846002B4AD196
:100244008A42174662D9B2FA82F64EB1C6F1200349
:1002540001FA06F820FA03F3B74043EA0808B44069
:100264004FEA174E1FFA87FCB8FBFEF1230C0EFB76
:10027400118843EA084301FB0CF29A4209D9FB189E
:1002840001F1FF3080F0EA809A4240F2E7800239BF
:100294003B449A1AA3B2B2FBFEF00EFB102243EACF
:1002A400024300FB0CFC9C4509D9FB1800F1FF320A
:1002B40080F0D6809C4540F2D3803B44023840EA2B
:1002C4000140A3EB0C0300211DB1F3400022C5E95A
:1002D4000032BDE8F0878B4205D90DB1C5E90001B4
:1002E40000210846F5E7B3FA83F1002946D17345A6
:1002F40002D3824200F20581841A6EEB03020120CC
:100304009046002DE5D0C5E90048E2E7002A00F058
:100314009080B2FA82F6002E40F0A4808A1A030C70
:100324004FEA174E80B2BCB20121B2FBFEFC0EFBB9
:100334001C2243EA024304FB0CF29A4207D9FB183D
:100344000CF1FF3802D29A4200F2E080C4469B1AB4
:10035400B3FBFEF20EFB123340EA034302FB04F448
:100364009C4207D9FB1802F1FF3002D29C4200F2F2
:10037400CA8002461B1B42EA0C40A5E7C1F12006D5
:100384008B4022FA06F71F430EFA01F420FA06F313
:100394002EFA06FE4FEA1749234300FA01F81FFA22
:1003A40087FCBEFBF9F01C0C09FB10EE44EA0E447A
:1003B40000FB0CFEA64502FA01F209D93C1900F132
:1003C400FF3A80F09C80A64540F2998002383C4474
:1003D400A4EB0E041FFA83FEB4FBF9F309FB1344E8
:1003E4004EEA044403FB0CFCA44508D93C1903F170
:1003F400FF3E80F08280A4457FD9023B3C4443EA1F
:100404000040A4EB0C04A0FB02EC64457346E146F7
:1004140062D35FD05DB1B8EB030264EB090404FA64
:1004240006F622FA01F31E43CC40C5E9006400211C
:100434004FE7B1FBF2FC010C41EA0E4180B240EA05
:1004440001423B4638463C46B846BE462026B1FBF0
:10045400F7F1A2EB080241EA0C4166E7014618E70E
:1004640010462CE7C6F120022EFA02F3B740B14041
:1004740020FA02F24FEA174E0A43B3FBFEF8BCB26D
:100484000EFB1833110C41EA034108FB04F9B04098
:1004940089454FEA104380B23ED9791808F1FF3CF0
:1004A40001D289451FD8A1EB0901B1FBFEF909FB73
:1004B40004F80EFB191192B242EA0142424529D2D4
:1004C400BA1809F1FF31C4D24245C2D2A9F10201DE
:1004D4003A44BEE7F0459DD2BEEB02036CEB070C39
:1004E4000138E14696E7A7EB09094944A8F1020C53
:1004F400B1FBFEF909FB04F8DBE773467FE75046DE
:1005040066E70846FDE63B44023A33E7ACF1020CE9
:100514003B441CE749469CE7A1EB0901C446B1FBF7
:10052400FEF909FB04F8C4E7704700BF2DE9F04F5A
:1005340089B00024039404940594069407940094C9
:100544002F4B1A6B42F080021A631A6B02F080027E
:100554000092009A01941A6B42F001021A631A6B1A
:1005640002F001020192019A02941A6B42F0020213
:100574001A631B6B03F002030293029B4FF4404B7C
:10058400CDF80CB001260496DFF87CA003A95046F0
:1005940001F0F8FB4FF44079CDF80C90DFF86C8053
:1005A40003A9404601F0EEFB4FF410470397154DA5
:1005B40003A9284601F0E6FB22465946504601F0BD
:1005C400D1FC22464946404601F0CCFC224639463D
:1005D400284601F0C7FC03964FF48813049305964C
:1005E40003A9284601F0CEFB22460221062001F091
:1005F4003BFF062001F048FF09B0BDE8F08F00BFC3
:10060400003802400000024000080240000402409A
:1006140000B583B000210191094B1A6B42F400121A
:100624001A631B6B03F400130193019B0A46102009
:1006340001F01AFF102001F027FF03B05DF804FB5E
:100644000038024070B501F083FF1E4B1B68C31ACB
:10065400C72B33D91B4B18601B4D2A68D36823F46E
:100664000073D360194E304601F0A9FD184C23687D
:100674000133184981FB0321A1EBE37101EB410133
:10068400A3EB410121604FF48063134A134850F8EF
:100694002110304601F05EFD2A68D36843F40073EC
:1006A400D360012000F030FA22680D4B53F8220089
:1006B40000F01EFA012001F05DFC70BD012001F084
:1006C40059FCFAE75C6000200861002060600020AB
:1006D40058600020ABAAAA2A3C040040180000205D
:1006E4000000002072B6FEE700B58FB000230A9325
:1006F4000B930C930D930893099301930293039323
:10070400049305930693079335484FF080420260A3
:10071400436083604FF0FF32C2600361836100F085
:100724008DFC002850D14FF480530A930AA92C4819
:1007340000F0EAFD002849D1294800F0ABFC00286C
:1007440046D100230893099308A9254800F06EFFB9
:1007540000283FD10022019202920392059201A93E
:100764001F4800F027FD002836D1002300931D4ABE
:10077400116B41F400111163126B02F40012009228
:10078400009A1948194A02604FF0C0624260402240
:100794008260C3604FF4806202614FF48052426110
:1007A4004FF4804282614FF48072C2614FF4003290
:1007B4000262436201F068FC80B9094A0A4B536241
:1007C4009A630FB05DF804FBFFF78CFFFFF78AFF15
:1007D400FFF788FFFFF786FFFFF784FFFFF782FF2D
:1007E40008610020003802406060002088600240F8
:1007F40000B58FB000230A930B930C930D930893C9
:100804000993019302930393049305930693079327
:100814001E481F4A0260436083604FF6FF72C26045
:100824000361836100F00AFC28BB4FF480530A93F0
:100834000AA9164800F068FDF8B9144800F056FCFF
:10084400E8B900230893099308A9104800F0EEFEC4
:10085400B8B96023019300230293039305930822FC
:1008640001A90A4800F0D5FC68B9084800F088FAE4
:100874000FB05DF804FBFFF735FFFFF733FFFFF719
:1008840031FFFFF72FFFFFF72DFF00BFC0600020EF
:100894000004004000B595B03422002107A801F0FF
:1008A400A4FE0023029303930493059306930093F9
:1008B400194A116C41F080511164126C02F080529B
:1008C4000092009A019315490A6822F4404242F4C6
:1008D40080420A600A6802F440420192019A0222AC
:1008E400079201220A9210220B920D9307A801F09D
:1008F40027F868B90F23029300210391049105910D
:10090400069102A800F0D8FE20B915B05DF804FBEA
:10091400FFF7E8FEFFF7E6FE0038024000700040F3
:1009240008B501F0EFFDFFF7B5FFFFF7FFFDFFF797
:100934006FFEFFF7D9FEFFF75BFF08210F4800F0B9
:10094400F3FD0F4C0021204600F06CFD4FF4806352
:100954000C4A0D490D4801F0FDFB00F05DF9012042
:1009640000F0D2F81E2001F0F9FD094800F0C0F8AB
:100974002268D36843F40073D360FEE7C0600020AC
:10098400086100203C04004030200020606000200A
:100994006026000882B000EB40000023019304E0CD
:1009A40000BF00BF019B01330193019B8342F7D336
:1009B40002B0704710B51420FFF7ECFF094CA3698F
:1009C40043F40043A3611420FFF7E4FFA36943F059
:1009D4000043A3611420FFF7DDFFA36943F4004340
:1009E400A36110BD0008024010B504463D4A936956
:1009F40043F48043936110F0800F41D13A4A9369E4
:100A040043F00043936114F0400F40D0364A936999
:100A140043F48053936114F0200F3ED0334A93691A
:100A240043F40073936114F0100F3CD02F4A936980
:100A340043F480739361FFF7BDFF14F0080F38D0BF
:100A4400294A936943F40043936114F0040F36D0A8
:100A5400254A936943F48053936114F0020F34D010
:100A6400224A936943F40073936114F0010F32D066
:100A74001E4A936943F480739361FFF79BFF10BD93
:100A8400A2F50062936943F400439361BBE7164AFD
:100A9400936943F080539361BDE7144A936943F02B
:100AA40000739361BFE7114A936943F080739361C4
:100AB400C1E70D4A936943F000439361C5E70A4ACD
:100AC400936943F080539361C7E7084A936943F0FD
:100AD40000739361C9E7054A936943F08073936196
:100AE400CBE700BF000802400000024000040240BF
:100AF40038B50546002403E0FFF776FF0134E4B27D
:100B0400285D0028F8D138BD10B504463F4A9369E2
:100B140043F08043936110F0800F45D13C4A9369C0
:100B240043F00043936114F0400F44D0384A936972
:100B340043F48053936114F0200F42D0354A9369F3
:100B440043F40073936114F0100F40D0314A936959
:100B540043F480739361FFF72DFF14F0080F3CD02A
:100B64002B4A936943F40043936114F0040F3AD081
:100B7400274A936943F48053936114F0020F38D0E9
:100B8400244A936943F40073936114F0010F36D03F
:100B9400204A936943F480739361FFF70BFF40F697
:100BA400B830FFF7F7FE10BDA2F50062936943F475
:100BB40000439361B7E7164A936943F08053936106
:100BC400B9E7144A936943F000739361BBE7114A90
:100BD400936943F080739361BDE70D4A936943F0D1
:100BE40000439361C1E70A4A936943F080539361D8
:100BF400C3E7084A936943F000739361C5E7054A64
:100C0400936943F080739361C7E700BF0008024013
:100C1400000002400004024008B5194B1A6B42F070
:100C240001021A631A6B42F002021A631A6B42F051
:100C340004021A63134A136843F08243136002F5F3
:100C44008062136843F4A023136002F58062136882
:100C540043F0A043136047F23050FFF79BFE33206C
:100C6400FFF752FF3220FFF74FFF0C20FFF74CFF36
:100C74002820FFF749FF0120FFF746FF08BD00BF0A
:100C84000038024000000240FEE7FEE7FEE7FEE710
:100C9400FEE770477047704708B501F04DFC08BD8A
:100CA40008B5024801F09EFA08BD00BF606000204C
:100CB40082B0002100910B4B5A6C42F480425A647A
:100CC4005A6C02F480420092009A01911A6C42F02C
:100CD40080521A641B6C03F080530193019B02B091
:100CE400704700BF0038024010B582B00368B3F10A
:100CF400804F04D01E4A93422CD002B010BD04464B
:100D0400002300931B4A116C41F001011164126C21
:100D140002F001020092009A1748184A02604FF04C
:100D2400C06242608360C3604FF4806202614FF42A
:100D3400805242614FF480428261C3610362436224
:100D440001F0A2F918B90C4B63629C63D5E7FFF775
:100D5400C9FCF8E700230193064B1A6C42F0020227
:100D64001A641B6C03F002030193019BC5E700BFE7
:100D740000040040003802406060002088600240A7
:100D840000B587B000230193029303930493059362
:100D940002680E4B9A4202D007B05DF804FB0023B0
:100DA40000930B4B1A6B42F002021A631B6B03F0A5
:100DB40002030093009B01230193022302930593F2
:100DC40001A9044800F0DEFFE6E700BF000400408C
:100DD400003802400004024030B4036A026A22F080
:100DE400010202624268846924F0730C0C6844EACC
:100DF4000C0423F0020C8B6843EA0C03114DA84247
:100E040003D005F58065A84205D123F00803CD6819
:100E14002B4323F004030B4DA84203D005F5806552
:100E2400A84207D122F440724D6945EA020C8A694E
:100E340042EA0C02426084614A684263036230BC45
:100E4400704700BF0000014030B4036A026A22F414
:100E5400807202624268C46924F0730C0C6844EA2C
:100E64000C0523F400738C6843EA0423114CA0425C
:100E740003D004F58064A04206D123F40063CC6857
:100E840043EA042323F480630A4CA04203D004F50C
:100E94008064A04207D122F440524C6942EA041211
:100EA4008C6942EA04124260C5614A68C263036203
:100EB40030BC70470000014030B4036A026A22F477
:100EC400805202624468C26922F4E6420D6842EA32
:100ED400052223F400538D6843EA0533094DA842E3
:100EE40003D005F58065A84204D124F480444D69FB
:100EF40044EA85144460C2614A680264036230BCF7
:100F0400704700BF0000014010B4036A046A24F073
:100F140001040462846924F0F00C4CEA021223F008
:100F24000A030B43826103625DF8044B704710B4FB
:100F3400036A046A24F010040462846924F4704C83
:100F44004CEA023223F0A00343EA011382610362F4
:100F54005DF8044B7047836823F070030B4343F040
:100F64000703836070477047704700000368324A84
:100F7400904212D0B0F1804F0FD0A2F57C42904243
:100F84000BD002F58062904207D002F58062904255
:100F940003D002F57842904203D123F070034A68EB
:100FA4001343254A90422AD0B0F1804F27D0A2F5AE
:100FB4007C42904223D002F5806290421FD002F519
:100FC400806290421BD002F57842904217D002F51D
:100FD4007052904213D002F5806290420FD002F515
:100FE400806290420BD0A2F59832904207D002F56D
:100FF4008062904203D002F58062904203D123F4D0
:101004004073CA68134323F080034A6913438A6810
:10101400C2620A688262084A904203D002F5806282
:10102400904201D10A690263026842F0040202603C
:1010340001224261036070470000014040B310B5D3
:10104400044690F83D30F3B1022384F83D30214644
:1010540051F8040BFFF78AFF012384F8463084F823
:101064003E3084F83F3084F8403084F8413084F8CE
:10107400423084F8433084F8443084F8453084F8AE
:101084003D30002010BD80F83C30FFF72DFEDBE73B
:101094000120704740B310B5044690F83D30F3B1D9
:1010A400022384F83D30214651F8040BFFF75EFF1C
:1010B400012384F8463084F83E3084F83F3084F8C5
:1010C400403084F8413084F8423084F8433084F866
:1010D400443084F8453084F83D30002010BD80F859
:1010E4003C30FFF740FFDBE70120704740B310B509
:1010F400044690F83D30F3B1022384F83D30214694
:1011040051F8040BFFF732FF012384F8463084F8CA
:101114003E3084F83F3084F8403084F8413084F81D
:10112400423084F8433084F8443084F8453084F8FD
:101134003D30002010BD80F83C30FFF715FFDBE7A1
:101144000120704730B4036A026A22F0100202627E
:101154004468826922F4E6420D6842EA052223F0DB
:1011640020038D6843EA0513114DA84203D005F509
:101174008065A84206D123F08003CD6843EA0513B5
:1011840023F040030A4DA84203D005F58065A84228
:1011940007D124F440644D6944EA85048D6944EA26
:1011A4008504446082614A688263036230BC70478C
:1011B4000000014090F83C30012B28D010B50446C3
:1011C400012380F83C300C2A1CD8DFE802F0071B0E
:1011D4001B1B0C1B1B1B111B1B1B16000068FFF7A2
:1011E400FBFD00200FE00068FFF7ACFF00200AE0E1
:1011F4000068FFF729FE002005E00068FFF75CFEA9
:10120400002000E00120002384F83C3010BD0220BF
:10121400704738B590F83C30012B66D004460D4633
:10122400012380F83C300C2A5AD8DFE802F0075931
:1012340059591B5959593059595944000068FFF7F5
:10124400CBFD2268936943F0080393612268936994
:1012540023F0040393612268936929690B43936122
:1012640000203EE00068FFF76DFF2268936943F4B5
:10127400006393612268936923F480639361226815
:101284009369296943EA01239361002029E00068F6
:10129400FFF7DAFD2268D36943F00803D3612268BB
:1012A400D36923F00403D3612268D36929690B430A
:1012B400D361002015E00068FFF7FEFD2268D369C2
:1012C40043F40063D3612268D36923F48063D36158
:1012D4002268D369296943EA0123D361002000E02D
:1012E4000120002384F83C3038BD0220FCE710B410
:1012F400846824F47F4C42EA03220A4342EA0C0243
:1013040082605DF8044B704790F83C30012B78D034
:1013140010B50446012380F83C30022380F83D30A8
:101324000268936823F47F4323F0770393600B6888
:10133400602B4CD023D8402B54D011D8202B03D071
:101344000AD80BB1102B05D119462068FFF703FE0C
:10135400002028E0012026E0302BF5D0012022E0F7
:10136400502B0AD1CA6849680068FFF7CDFD5021A7
:101374002068FFF7F0FD002015E0012013E0B3F52D
:10138400805F3AD0B3F5005F14D0702B37D1CB68AF
:101394004A6889680068FFF7AAFF2268936843F0E7
:1013A400770393600020012384F83D30002384F800
:1013B4003C3010BDCB684A6889680068FFF797FF26
:1013C4002268936843F4804393600020EBE7CA6883
:1013D40049680068FFF7ABFD60212068FFF7BBFD9B
:1013E4000020E0E7CA6849680068FFF78DFD4021E6
:1013F4002068FFF7B0FD0020D5E70020D3E70120E7
:10140400D1E70220704701F01F014FF0010C0CFAE4
:1014140001FC036A23EA0C030362036A8A40134350
:101424000362704710B504460846002942D194F877
:101434003E30DBB2013B18BF0123002B6ED10028E4
:1014440051D1022384F83E30012201462068FFF77F
:10145400DAFF2368334A934203D002F58062934251
:1014640003D15A6C42F400425A6423682D4A9342D1
:1014740049D0B3F1804F46D0A2F57C42934242D08A
:1014840002F5806293423ED002F5806293423AD0E4
:1014940002F57842934236D002F57052934232D02C
:1014A400A2F5943293422ED01A6842F001021A60D7
:1014B400002032E0042908D008290DD094F84130E6
:1014C400DBB2013B18BF0123B7E794F83F30DBB22E
:1014D400013B18BF0123B0E794F84030DBB2013B75
:1014E40018BF0123A9E7042805D0082807D0022340
:1014F40084F84130A8E7022384F83F30A4E70223AC
:1015040084F84030A0E79A6802F00702062A07D060
:101514001A6842F001021A60002010BD0120FCE7A5
:101524000020FAE70000014010B5044608460029EF
:1015340042D194F83E30DBB2013B18BF0123002BAB
:101544006ED1002851D1022384F83E300122014695
:101554002068FFF758FF2368334A934203D002F50B
:101564008062934203D15A6C42F400425A64236865
:101574002D4A934249D0B3F1804F46D0A2F57C4224
:10158400934242D002F5806293423ED002F58062DB
:1015940093423AD002F57842934236D002F5705223
:1015A400934232D0A2F5943293422ED01A6842F07C
:1015B40001021A60002032E0042908D008290DD065
:1015C40094F84130DBB2013B18BF0123B7E794F82C
:1015D4003F30DBB2013B18BF0123B0E794F8403041
:1015E400DBB2013B18BF0123A9E7042805D0082872
:1015F40007D0022384F84130A8E7022384F83F305F
:10160400A4E7022384F84030A0E79A6802F00702B6
:10161400062A07D01A6842F001021A60002010BDA1
:101624000120FCE70020FAE70000014090F83C208C
:10163400012A3DD010B40346012280F83C20022246
:1016440080F83D2002685068946820F0700C0868A7
:1016540040EA0C0050601A68164882421AD0B2F16F
:10166400804F17D0A0F57C40824213D000F58060F3
:1016740082420FD000F5806082420BD000F57840A2
:10168400824207D000F57050824203D0A0F5943016
:10169400824204D124F080044968214391600122EC
:1016A40083F83D20002083F83C005DF8044B70472C
:1016B4000220704700000140002800F09B8070B5B4
:1016C4000D4604464F4B1B6803F00F038B4208D2B0
:1016D400CBB24C4A1370136803F00F038B4240F0F3
:1016E4008B80236813F0020F17D013F0040F04D07B
:1016F400454A936843F4E0539360236813F0080F5A
:1017040004D0414A936843F4604393603E4A93682B
:1017140023F0F003A1680B439360236813F0010FD7
:1017240032D06368012B21D09A1E012A25D9364A6A
:10173400126812F0020F61D033498A6822F0030262
:1017440013438B6000F004FF06462F4B9B6803F0A5
:101754000C036268B3EB820F16D000F0F9FE801B15
:1017640041F288339842F0D9032042E0264A1268B5
:1017740012F4003FE0D101203BE0234A126812F04A
:10178400007FD9D1012034E01E4B1B6803F00F0306
:10179400AB4207D9EAB21B4B1A701B6803F00F0364
:1017A400AB422DD1236813F0040F06D0164A936878
:1017B40023F4E053E1680B439360236813F0080FAC
:1017C40007D0114A936823F46043216943EAC103B3
:1017D400936000F021F80C4B9B68C3F303130B4A8E
:1017E400D35CD8400A4B18600A4B186800F064FEBA
:1017F400002070BD012070470120FAE70120F8E7BE
:101804000120F6E7003C0240003802409826000818
:10181400386000203460002008B5464B9B6803F014
:101824000C03082B05D00C2B43D0042B7FD142484A
:1018340019E0404B5A6802F03F025B6813F4800FD2
:1018440012D03C4B5968C1F388113B480023A1FBDB
:101854000001FEF7D5FC374B5B68C3F3014301334A
:101864005B00B0FBF3F008BD324B5868C0F388103E
:101874004FEA401CBCEB000C6EEB0E0E4FEA8E13CD
:1018840043EA9C634FEA8C11B1EB0C0163EB0E034A
:10189400DB0043EA5173C90011EB000C43F1000370
:1018A400990200234FEA8C2041EA9C51FEF7A8FCE0
:1018B400D1E7204B5A6802F03F025B6813F4800FB3
:1018C40010D01C4B5968C1F388111B480023A1FB9D
:1018D4000001FEF795FC174B5B68C3F30273B0FB82
:1018E400F3F0C0E7134B5868C0F388104FEA401C6C
:1018F400BCEB000C6EEB0E0E4FEA8E1343EA9C63B6
:101904004FEA8C11B1EB0C0163EB0E03DB0043EAED
:101914005173C90011EB000C43F100039902002339
:101924004FEA8C2041EA9C51FEF76AFCD3E7034856
:1019340099E700BF0038024040787D010024F4009C
:10194400002800F0018270B582B00446036813F0E9
:10195400010F41D0994B9B6803F00C03042B32D048
:10196400964B9B6803F00C03082B27D0934B9B6882
:1019740003F00C030C2B59D06368B3F5803F5BD0A4
:10198400B3F5A02F5ED08D4B1A6822F480321A6012
:101994001A6822F480221A606368002B5CD000F07D
:1019A400D7FD0546854B1B6813F4003F14D100F0A6
:1019B400CFFD401B6428F5D90320CCE17F4B5B6845
:1019C40013F4800FD2D07D4B1B6813F4003F03D077
:1019D4006368002B00F0BA81236813F0020F60D013
:1019E400764B9B6813F00C0F4AD0744B9B6803F042
:1019F4000C03082B3FD0714B9B6803F00C030C2B9A
:101A040069D0E368002B75D06D4B01221A6000F099
:101A14009FFD0546694B1B6813F0020F61D100F06E
:101A240097FD401B0228F5D9032094E1634B5B68C2
:101A340013F4800FA0D0C6E7604A136843F48033E0
:101A44001360A9E75D4B1A6842F480221A601A6891
:101A540042F480321A609FE700F07AFD0546574B46
:101A64001B6813F4003FB7D000F072FD401B6428DC
:101A7400F5D903206FE1514B5B6813F4800FBAD1A1
:101A84004E4B1B6813F0020F03D0E368012B40F0A8
:101A94005F814A4A136823F0F803216943EAC103CA
:101AA4001360236813F0080F49D06369002B33D007
:101AB400434B0122C3F8802E00F04AFD05463F4BFC
:101AC4005B6F13F0020F3AD100F042FD401B022875
:101AD400F5D903203FE1394B5B6813F4800F90D1B3
:101AE400CEE7364A136823F0F803216943EAC103B9
:101AF4001360D6E7324B00221A6000F029FD054638
:101B04002E4B1B6813F0020FCBD000F021FD401BBD
:101B14000228F5D903201EE1294B0022C3F8802EA8
:101B240000F016FD0546254B5B6F13F0020F06D03F
:101B340000F00EFD401B0228F5D903200BE12368B9
:101B440013F0040F76D01D4B1B6C13F0805F33D160
:101B540000230193194B1A6C42F080521A641B6CD7
:101B640003F080530193019B0125164B1B6813F46A
:101B7400807F29D0A368012B3AD0052B3ED00F4B90
:101B84001A6F22F001021A671A6F22F004021A6710
:101B9400A368002B3CD000F0DBFC0646074B1B6F10
:101BA40013F0020F45D100F0D3FC801B41F28833BF
:101BB4009842F3D90320CEE00025D6E7003802404E
:101BC40000004742007000406B4A136843F480737E
:101BD400136000F0BDFC0646674B1B6813F4807F5E
:101BE400C8D100F0B5FC801B0228F5D90320B2E06F
:101BF400624A136F43F001031367C9E75F4B1A6F1F
:101C040042F004021A671A6F42F001021A67BFE732
:101C140000F09EFC0646594B1B6F13F0020F08D0D0
:101C240000F096FC801B41F288339842F3D90320DC
:101C340091E0EDB9A369002B00F08C804F4A9268C3
:101C440002F00C02082A54D0022B17D04C4B00226D
:101C54001A6600F07DFC0446484B1B6813F0007FB5
:101C640045D000F075FC001B0228F5D9032072E072
:101C7400424A136C23F080531364DBE7404B002289
:101C84001A6600F065FC05463C4B1B6813F0007FA8
:101C940006D000F05DFC401B0228F5D903205AE071
:101CA400E369226A1343626A43EA8213A26A52080E
:101CB400013A43EA0243E26A43EA0263226B43EADB
:101CC40002732E4A53602E4B01221A6600F040FC28
:101CD40004462A4B1B6813F0007F06D100F038FC41
:101CE400001B0228F5D9032035E0002033E0002052
:101CF40031E0012B31D0214B5B6803F48001E269B0
:101D040091422CD103F03F02216A8A4229D1616AAF
:101D140047F6C0721A40B2EB811F24D103F440315C
:101D2400A26A5208013AB1EB024F1ED103F070626D
:101D3400E16AB2EB016F1AD103F0E043226BB3EB1B
:101D4400027F16D1002006E001207047012002E046
:101D5400012000E0002002B070BD0120FBE701205B
:101D6400F9E70120F7E70120F5E70120F3E7012077
:101D7400F1E70120EFE700BF0070004000380240A7
:101D84000000474200230F2B00F2E38070B582B0BD
:101D940065E085684FEA430E032404FA0EF425EA4D
:101DA4000405CC6804FA0EF42C438460446824EAE5
:101DB40002044A68C2F300129A40224342605CE083
:101DC400DC08083450F8242003F00705AD004FF078
:101DD4000F0E0EFA05FE22EA0E0E0A69AA4042EA26
:101DE4000E0240F824205CE0062200E0002202FA01
:101DF4000EF22A430234574D45F82420564A94687B
:101E04006FEA0C0224EA0C054E6816F4801F01D018
:101E14004CEA0405504CA560E46802EA04054E68E7
:101E240016F4001F01D04CEA04054B4CE5606468CD
:101E340002EA04054E6816F4003F01D04CEA04059A
:101E4400454C6560246822404D6815F4803F01D0FC
:101E54004CEA0402404C226001330F2B77D8012254
:101E64009A400C6804EA020C32EA0404F4D14C6887
:101E740004F00304013C012C8BD94A6802F00302EC
:101E8400032A09D0C4685D000322AA4024EA02049C
:101E94008A68AA402243C2604A6802F00302022A06
:101EA4008ED004684FEA430E032202FA0EF224EAAB
:101EB40002044A6802F0030202FA0EF222430260AC
:101EC4004A6812F4403FC7D000220192234A546C5E
:101ED40044F480445464526C02F480420192019AA6
:101EE4009C08A51C1B4A52F8255003F0030E4FEA28
:101EF4008E0E0F2202FA0EF225EA0205184A9042CB
:101F04003FF474AF02F58062904216D002F580620D
:101F1400904214D002F58062904212D002F58062A1
:101F2400904210D002F5806290420ED002F5806299
:101F340090423FF459AF072259E7012257E70222A2
:101F440055E7032253E7042251E705224FE702B085
:101F540070BD704700380140003C01400038024029
:101F6400000002400AB18161704709048161704731
:101F74007047000008B5054B5B69034200D108BDFA
:101F8400024B5861FFF7F4FFF9E700BF003C014042
:101F940030B405682C6824F480242C6004686360E1
:101FA4008368402B05D0036899600368DA6030BC0D
:101FB400704703689A600368D960F8E710B403684F
:101FC400D9B210390A4AA2FB01421209094CA25C97
:101FD400C2655F2907D96FF3090304338365806DF4
:101FE4005DF8044B70476FF309038365F7E700BF9F
:101FF400ABAAAAAA90260008836A826992B9012B27
:102004000AD0022B02D00BB100207047C36A13F030
:10201400807F28D100207047C36AB3F1C07F24D0E9
:1020240000207047B2F5005F09D0022B25D9032B9D
:1020340025D1C36A13F0807F23D100207047032B7E
:1020440003D8DFE803F01404140A00207047C36ABD
:1020540013F0807F0DD100207047C36AB3F1C07FB5
:1020640009D00020704701207047012070470120EB
:1020740070470120704701207047012070470020FD
:10208400704701207047000070B5044600F060FA04
:10209400002C5BD00546022384F83530002384F8F5
:1020A40034302268136823F00103136023681A682C
:1020B40012F0010F0AD000F04BFA431B052BF5D99F
:1020C40020236365032084F8350070BD1A68204915
:1020D40011406268A0680243E06802432069024339
:1020E40060690243A0690243E0690243206A024333
:1020F4000A43616A04291ED01A602668756925F0AE
:102104000705636A1D43042B07D1A36A1D43E36AD1
:102114001BB12046FFF770FF90B975612046FFF7A9
:102124004DFFE26D3F2393408360002060650123EF
:1021340084F83530C9E7E16A206B01430A43DBE7E1
:1021440040236365012084F83500BEE70120BCE725
:102154003F8010F038B50446856D90F834000128AE
:102164002BD0012084F8340094F83500C0B2012843
:1021740004D0002384F83430022038BD022084F8CF
:102184003500002060652046FFF702FFE26D3F2323
:102194009340AB602268136843F016031360236C0A
:1021A40023B12268136843F008031360226813689C
:1021B40043F0010313600020DFE70220DDE790F81D
:1021C4003530DBB2022B03D08023436501207047F6
:1021D400052380F835300268136823F00103136087
:1021E40000207047F0B583B0044600230193724B7E
:1021F4001D68724BA3FB0535AD0A876D3E68C26D41
:1022040008239340334210D003681A6812F0040F75
:102214000BD01A6822F004021A60C26D082393409E
:10222400BB60436D43F001034365E26D01239340BA
:10223400334209D02268526912F0800F04D0BB6087
:10224400636D43F002036365E26D042393403342FC
:1022540009D02268126812F0020F04D0BB60636DCB
:1022640043F004036365E26D10239340334224D0AA
:102274002268126812F0080F1FD0BB6023681A6826
:1022840012F4802F0DD01B6813F4002F04D1236C9B
:102294009BB12046984710E0A36C73B12046984741
:1022A4000BE01A6812F4807F03D11A6822F0080246
:1022B4001A60236C0BB120469847E26D20239340AB
:1022C400334255D02268126812F0100F50D0BB6010
:1022D40094F83530DBB2052B0ED023681A6812F45B
:1022E400802F33D01B6813F4002F2AD1636C002B8A
:1022F4003ED0204698473BE02268136823F016033B
:1023040013602268536923F080035361236CA3B1E3
:102314002268136823F008031360E26D3F2393409F
:10232400BB60012384F83530002384F83430236DF6
:10233400002B3FD0204698473CE0A36C002BE7D10C
:10234400EBE7E36BA3B12046984711E01A6812F457
:10235400807F09D11A6822F010021A60012384F8E0
:102364003530002384F83430E36B0BB120469847B2
:10237400636DFBB1636D13F0010F17D0052384F86F
:1023840035302268136823F001031360019B013385
:102394000193AB4204D823681B6813F0010FF5D1F5
:1023A400012384F83530002384F83430E36C0BB116
:1023B4002046984703B0F0BD38600020B5814E1B1D
:1023C400002807DB00F01F02400901239340024A62
:1023D40042F82030704700BF00E100E0002808DB2D
:1023E4000901C9B200F1604000F5614080F80013B2
:1023F400704700F00F000901C9B2014B195470472E
:1024040014ED00E000B500F00700C0F1070CBCF1CA
:10241400040F28BF4FF0040C031D062B0FD9C31E55
:102424004FF0FF3E0EFA0CF021EA000199400EFA3B
:1024340003FE22EA0E0241EA02005DF804FB0023D7
:10244400EEE70000074AD36823F4E0631B041B0C87
:10245400000200F4E060034343F0BF6343F400333D
:10246400D360704700ED00E010B50446054BD86812
:10247400C0F30220FFF7C6FF01462046FFF7AEFF78
:1024840010BD00BF00ED00E008B5FFF799FF08BDDF
:102494000138B0F1807F0BD24FF0E0235861054A38
:1024A400F02182F823100020986107221A617047F6
:1024B4000120704700ED00E010B504460E4B1A7879
:1024C4004FF47A73B3FBF2F30C4A1068B0FBF3F0E9
:1024D400FFF7DEFF68B90F2C01D901200AE00022C2
:1024E40021464FF0FF30FFF7BFFF054B1C60002073
:1024F40000E0012010BD00BF3060002038600020E3
:102504003460002008B50B4B1A6842F400721A605C
:102514001A6842F480621A601A6842F480721A607F
:102524000320FFF78FFF0F20FFF7C6FFFEF7C0FB66
:10253400002008BD003C0240034A1168034B1B788D
:102544000B441360704700BF5061002030600020CE
:10255400014B1868704700BF5061002038B504462D
:10256400FFF7F6FF0546B4F1FF3F02D0044B1B789A
:102574001C44FFF7EDFF401BA042FAD338BD00BF57
:1025840030600020034AD2F8883043F47003C2F864
:102594008830704700ED00E0DFF834D0FFF7F2FF39
:1025A4000C480D490D4A002302E0D458C4500433AA
:1025B400C4188C42F9D30A4A0A4C002301E0136080
:1025C4000432A242FBD300F019F8FEF7A9F97047D0
:1025D40000000220000000203C600020B826000813
:1025E4003C60002054610020FEE70244034693420D
:1025F40000D1704703F8011BF9E7000070B50D4DD9
:102604000D4C641BA4100026A64209D10B4D0C4CA2
:1026140000F018F8641BA4100026A64205D170BD72
:1026240055F8043B98470136EEE755F8043B9847C4
:102634000136F2E7B0260008B0260008B0260008EC
:10264400B4260008F8B500BFF8BC08BC9E46704725
:0C265400F8B500BFF8BC08BC9E467047FB
:102660005069616E6F00000053696E6500000000E4
:10267000547269616E676C650000000053617700F9
:1026800047756974617200004472756D0000000046
:1026900000061016000610160000000000000000E2
:0826A00001020304060708090A
:0826A8008CDBFF7F0100000044
:0426B000E901000834
:0426B400C501000854
:1026B80068260008702600087C26000860260008A6
:1026C800802600088826000830500020303000207E
:1026D8003040002030200020301000203000002042
:1026E80000000000000000000000000000000000E2
:1026F80000000000000000000000000000000000D2
:1027080000000000000000000000000000000000C1
:1027180000000000000000000000000000000000B1
:102988000000000000000000E8FFFFFF000000005A
:10299800000000000000000000000000000000002F
:1029A800000000000000000000000000000000001F
:1029B80000000000E8FFFFFFE8FFFFFFE8FFFFFF60
:1029C80000000000000000000000000000000000FF
:1029D8000000000000000000E8FFFFFFE8FFFFFF25
:1029E80000000000000000000000000000000000DF
:1029F80000000000000000000000000000000000CF
:102A080000000000000000000000000000000000BE
:102A1800E8FFFFFFE8FFFFFFD0FFFFFFE8FFFFFF32
:102A2800E8FFFFFFE8FFFFFFE8FFFFFFE8FFFFFF0A
:102A3800E8FFFFFFE8FFFFFFE8FFFFFFE8FFFFFFFA
:102A4800E8FFFFFF00000000000000000000000099
:102A5800000000000000000000000000E8FFFFFF89
:102A6800E8FFFFFFE8FFFFFFE8FFFFFF00000000AF
:102A7800E8FFFFFFE8FFFFFF180000001800000054
:102A880000000000D0FFFFFFB8FFFFFFD0FFFFFFEF
:102A9800E8FFFFFF00000000180000003000000001
:102AA800300000003000000018000000180000008E
:102AB800E8FFFFFFA0FFFFFF70FFFFFFA0FFFFFF82
:102AC800E8FFFFFF1800000000000000E8FFFFFF1C
:102AD80000000000E8FFFFFF88FFFFFF88FFFFFFFF
:102AE800D0FFFFFFE8FFFFFF1800000030000000E4
:102AF800000000000000000030000000000000009E
:102B0800B8FFFFFFB8FFFFFFA0FFFFFF58FFFFFF61
:102B180058FFFFFF40FFFFFF40FFFFFF58FFFFFF89
:102B280070FFFFFF40FFFFFFF8FEFFFF28FFFFFFDA
:102B3800B8FFFFFFD0FFFFFFB8FFFFFFA0FFFFFFB9
:102B4800D0FFFFFF4800000060000000E8FFFFFF23
:102B5800D0FFFFFF180000001800000078000000F8
:102B68006000000040FFFFFFDFFEFFFF28FFFFFFC0
:102B780010FFFFFFF8FEFFFF10FFFFFF58FFFFFFEA
:102B8800E8FFFFFFB8FFFFFF10FFFFFFD0FFFFFFC9
:102B9800C0000000600000000000000030000000DD
:102BA80018000000E8FFFFFFB8FFFFFFD0FFFFFF9E
:102BB800A800000078000000B8FFFFFFE8FFFFFF53
:102BC800D0FFFFFF10FFFFFFDFFEFFFF67FEFFFFE5
:102BD80037FEFFFFB8FFFFFF210100006901000079
:102BE800390100007800000088FFFFFF40FFFFFF69
:102BF80088FFFFFFA0FFFFFFA0FFFFFF30000000DE
:102C0800C00000003000000030000000B1010000EA
:102C1800E101000058FFFFFFEFFDFFFFD0FFFFFFBE
:102C2800F000000058FFFFFF37FEFFFFAFFEFFFF79
:102C380058FFFFFF60000000F0000000C000000027
:102C4800510100003901000040FFFFFF4FFEFFFF68
:102C580040FFFFFF18000000480000004800000087
:102C6800D800000072020000DB03000033030000FC
:102C78009000000037FEFFFF46FDFFFF2EFDFFFF1F
:102C880097FEFFFFD8000000C0000000B8FFFFFF5C
:102C980048000000E8FFFFFF4FFEFFFFD6FDFFFFE3
:102CA800EFFDFFFFDFFEFFFF39010000EA02000031
:102CB800BA02000011020000F90100001102000030
:102CC800C9010000600000004FFEFFFFBEFDFFFFCE
:102CD800E8FFFFFF7B030000CC040000B101000007
:102CE8007FFEFFFFF8FEFFFF28FFFFFFFEFCFFFF50
:102CF80025FCFFFFA6FDFFFFA8000000EA02000078
:102D08000801000010FFFFFFD0FFFFFFF8FEFFFFE4
:102D180067FEFFFF51010000F9010000D0FFFFFF2F
:102D280088FFFFFFA0FFFFFF70FFFFFF48000000C4
:102D3800900000004800000040FFFFFF1FFEFFFF5B
:102D4800000000007202000021010000D6FDFFFF14
:102D580004FBFFFF94FBFFFFD800000023040000E2
:102D68008101000058FFFFFFD8000000F9010000B2
:102D7800780000005EFDFFFFF5FBFFFF07FEFFFF89
:102D8800A8000000F90100008A020000F901000013
:102D98005101000069010000E8FFFFFF1FFEFFFF6F
:102DA800F8FEFFFF99010000E4040000E4040000BD
:102DB800E8FFFFFF97FEFFFF1A0300004B03000028
:102DC800A0FFFFFF67FEFFFF97FEFFFF69010000FE
:102DD8009C0400001102000007FEFFFF10FFFFFF28
:102DE800420200006303000011020000C901000054
:102DF8006C040000B4040000C00000008EFDFFFF5A
:102E08002EFDFFFFC7FEFFFF88FFFFFFEFFDFFFF5F
:102E180055FCFFFFECFAFFFFD4FAFFFFB8FFFFFFF6
:102E2800B4040000230400009901000088FFFFFF9C
:102E3800F8FEFFFFBA020000BD050000A202000074
:102E4800F8FEFFFFDFFEFFFFA0FFFFFFD0FFFFFF41
:102E580028FFFFFFC5FBFFFF9AF9FFFF7FFEFFFF7B
:102E680002030000A800000088FFFFFF9303000092
:102E78001D0600005D050000330300006901000025
:102E8800F901000008010000EFFDFFFF4FFEFFFF02
:102E980030000000AFFEFFFFD6FDFFFF300000004E
:102EA80072020000EA02000011020000390100006D
:102EB8008101000008010000BEFDFFFFBCFAFFFF12
:102EC80034FBFFFF37FEFFFF4202000084040000CE
:102ED80063030000690100000000000058FFFFFFC5
:102EE80081010000EA02000058FFFFFF34FBFFFFEA
:102EF800BCFAFFFF6DFCFFFF67FEFFFF1FFEFFFF31
:102F0800DDFBFFFFDDFBFFFF46FDFFFF4FFEFFFF81
:102F180039010000930300002A020000600000004D
:102F28003000000040FFFFFFDFFEFFFFE10100006F
:102F3800CC04000023040000BA02000021010000B4
:102F480097FEFFFF4FFEFFFF4800000090000000C3
:102F580037FEFFFF73FAFFFF22F9FFFFE6FCFFFFD2
:102F6800E8FFFFFF7FFEFFFF2EFDFFFF2EFDFFFFA7
:102F7800BEFDFFFFF00000006C040000B404000078
:102F8800B1010000CDFCFFFFB3F9FFFF04FBFFFF19
:102F980046FDFFFF5EFDFFFFBEFDFFFFB8FFFFFF21
:102FA8002A02000033030000C000000076FDFFFF86
:102FB8007FFEFFFF40FFFFFF7CFBFFFF43FAFFFFA1
:102FC800FEFCFFFFFEFCFFFF55FCFFFF4FFEFFFF6F
:102FD800E101000075050000F3030000780000001F
:102FE8006C0400002F080000F901000094FBFFFFAB
:102FF80025FCFFFF8EFDFFFFD6FDFFFF76FDFFFFDF
:10300800A3FAFFFF6AF9FFFF10FFFFFF9C0400000F
:10301800A2020000AFFEFFFFD6FDFFFF1800000070
:1030280066060000410A0000D505000018000000EF
:10303800BEFDFFFF3DFCFFFFB5FCFFFF37FEFFFFB6
:10304800CDFCFFFFAAF8FFFF77F5FFFF79F8FFFF38
:10305800F8FEFFFF6000000040FFFFFF390100009D
:10306800DB0300007B030000EFFDFFFF73FAFFFFA7
:1030780018000000840400002A02000058FFFFFF27
:10308800C5FBFFFFF5FBFFFFEA020000110200008D
:10309800FBF9FFFFC5FBFFFF0B0400009F070000C3
:1030A80066060000F90100007FFEFFFFDFFEFFFF5C
:1030B80070FFFFFF00000000420200002304000030
:1030C80066060000F60600002A0200009DFCFFFFCD
:1030D800DDFBFFFF28FFFFFFF901000088FFFFFF6E
:1030E800B5FCFFFFEA020000BA0A00009F070000D3
:1030F800C7FEFFFF82F9FFFF13FAFFFF1800000069
:10310800C3030000780000008EFDFFFF4FFEFFFFA5
:10311800D0FFFFFF5101000008010000300000004F
:10312800B8FFFFFFFEFCFFFF67FEFFFFFC04000087
:103138000B04000040FFFFFFD0FFFFFF37FEFFFF3B
:10314800F5FBFFFF5101000096060000D5050000C1
:103158008101000055FCFFFF25FCFFFFA6FDFFFFD6
:1031680049F8FFFFB6F4FFFF3DFCFFFF2C05000008
:10317800D50500009000000064FBFFFFA3FAFFFFE5
:103188002EFDFFFFDFFEFFFF88FFFFFF7800000036
:10319800B101000075050000590A0000290A000065
:1031A80096060000C3030000B8FFFFFFD6FDFFFF2F
:1031B80030000000B8FFFFFF40FFFFFF23040000BE
:1031C800D5050000C00000007CFBFFFF10F7FFFFE3
:1031D800FEF4FFFF0AF9FFFF180000009C0400003E
:1031E800E40400007B030000D20200000B0400008E
:1031F8002C0500008101000064FBFFFF6DFCFFFF50
:1032080021010000E1010000AB030000AE06000050
:103218008D05000063030000480000000DFCFFFF5F
:10322800DFFEFFFF9C0400004800000092F8FFFF4B
:1032380025FCFFFFB4040000CC0400009901000045
:10324800630300008404000011020000C9010000AB
:103258004B030000F9010000C7FEFFFF46FDFFFF1A
:10326800C7FEFFFFA202000090080000020B00004A
:103278005D050000D0FFFFFF00000000B8FFFFFF62
:1032880058FFFFFF60000000F8FEFFFF1800000075
:10329800B40400006C04000042020000BA020000FE
:1032A800EA020000F3030000630300003901000094
:1032B8008D05000068090000F3030000C901000043
:1032C800DE06000056070000F3030000E1010000DD
:1032D800390100005A02000040FFFFFF89F7FFFF95
:1032E80049F8FFFFB8FFFFFFB1010000C901000066
:1032F8001A03000060000000E8FFFFFFB4040000AC
:10330800D5050000020300008A0200009C040000AA
:10331800F6060000AE0600006303000090000000FF
:1033280088FFFFFF7800000042020000F90100005A
:1033380018000000C7FEFFFFBEFDFFFF76FDFFFF80
:103348004CFBFFFFD1F7FFFFE3F9FFFF10FFFFFF83
:1033580070FFFFFFE8FFFFFFC303000093030000B7
:10336800080100007800000046FDFFFFB3F9FFFFE9
:10337800F5FBFFFF10FFFFFFA20200009909000004
:10338800290A00004B03000048000000AFFEFFFFC1
:103398004CFBFFFFACFBFFFFD6FDFFFFB8FFFFFFB5
:1033A8003B040000AE060000BD050000ED0500006E
:1033B8003E070000AE06000048000000F2F8FFFFDC
:1033C8000DFCFFFFB4040000DE060000AB030000A4
:1033D80078000000990100006606000087070000D9
:1033E80014050000D800000004FBFFFFDDFBFFFF11
:1033F800720200008A02000046FDFFFF22F9FFFF6B
:103408005BFAFFFF930300003E07000007FEFFFF83
:1034180079F8FFFF8EFDFFFFC9010000B8FFFFFF2D
:103428006DFCFFFF85FCFFFF67FEFFFF78000000D3
:10343800B10100000DFCFFFF9EF4FFFF3AF9FFFF0A
:10344800C901000099010000B101000066060000F2
:1034580056070000DB030000E1010000D202000073
:10346800DB030000C90100001FFEFFFF2EFDFFFF68
:1034780010FFFFFFE8FFFFFF40FFFFFF9000000085
:103488008A0200007B030000B4040000C9010000A8
:103498003AF9FFFF10F7FFFF10FFFFFFFC040000E1
:1034A800420200004FFEFFFFD6FDFFFFA6FDFFFF13
:1034B80025FCFFFF04FBFFFFBCFAFFFF9DFCFFFF9D
:1034C800A0FFFFFFD0FFFFFFBEFDFFFF7CFBFFFF5C
:1034D800EFFDFFFFA8080000A40D0000BA020000DD
:1034E800F2F8FFFF16FDFFFFD50500002F080000CA
:1034F8009000000058F7FFFFE9F7FFFFD6FDFFFF38
:1035080040FFFFFF46FDFFFF37FEFFFFAB03000054
:10351800CC040000CDFCFFFFD1F7FFFF70FFFFFFD9
:10352800680900001D0600006AF9FFFF16F5FFFF95
:103538002BFAFFFFBEFDFFFFC0000000A202000043
:10354800EFFDFFFFECFAFFFF40FFFFFF1102000055
:103558004FFEFFFF01F8FFFFFEF4FFFFCBF9FFFF6F
:10356800630300002F0800005D0500007B030000D6
:103578002C05000084040000140500001708000052
:103588007B0300006DFCFFFFDFFEFFFF480000002B
:1035980094FBFFFF97FEFFFFCF070000FF07000027
:1035A800480000007FFEFFFF6C0400006606000074
:1035B800720200008A02000047080000A10A000009
:1035C800BD05000042020000E404000023040000DE
:1035D800D6FDFFFF55FCFFFF81010000ED0500004F
:1035E800FC04000069010000E1010000D8000000AF
:1035F8008BFAFFFF1CFBFFFF6901000002030000BC
:10360800B4040000CF07000056070000260700009A
:103618009F07000096060000EA0200008BFAFFFFF1
:1036280001F8FFFFD8000000260700001A0B000071
:10363800FF0F0000C0080000F8FEFFFF6303000052
:10364800F606000099010000D8000000C90100003A
:1036580007FEFFFFF8FEFFFFFC0400000E07000056
:1036680035060000ED050000F9010000BCFAFFFF77
:1036780001F8FFFF97FEFFFF560700006E070000E6
:103688004B030000840400001102000001F8FFFF52
:1036980022F9FFFF5D050000CF070000B10100001F
:1036A800DFFEFFFFE6FCFFFFC5FBFFFF10FFFFFF8C
:1036B800B8FFFFFF55FCFFFFE3F9FFFF40F7FFFFEF
:1036C80092F8FFFFD0FFFFFFD0FFFFFF13FAFFFFC5
:1036D8002EFDFFFF93030000AE0600004708000020
:1036E80000000000000000000000000000000000D2
:1036F80000000000000000000000000000000000C2
:1037080000000000000000000000000000000000B1
:1037180000000000000000000000000000000000A1
:104368005505000055050000000000000000000091
:104378000000000000000000000000000000000035
:104388000000000000000000000000000000000025
:104398000000000000000000000000000000000015
:1043A8000000000000000000000000000000000005
:1043B80000000000000000000000000000000000F5
:1043C80000000000000000000000000000000000E5
:1043D80000000000000000000000000000000000D5
:1043E80000000000000000000000000000000000C5
:1043F80000000000000000000000000000000000B5
:1044080000000000000000000000000000000000A4
:104418000000000000000000000000000000000094
:104428000000000000000000000000000000000084
:104438000000000000000000000000000000000074
:104448000000000000000000000000000000000064
:104458000000000000000000000000000000000054
:104468000000000000000000000000000000000044
:104478000000000000000000000000000000000034
:104488000000000000000000000000000000000024
:104498000000000000000000000000000000000014
:1044A8000000000000000000000000000000000004
:1044B80000000000000000000000000000000000F4
:1044C800ABFAFFFF00000000000000000000000041
:1044D80000000000000000000000000000000000D4
:1044E80000000000000000000000000000000000C4
:1044F80000000000000000000000000000000000B4
:1045080000000000000000000000000000000000A3
:1045180055050000550500000000000000000000DF
:104528000000000000000000000000000000000083
:104538000000000000000000000000000000000073
:104548000000000000000000000000000000000063
:104558000000000000000000000000000000000053
:104568000000000000000000000000000000000043
:104578000000000000000000000000000000000033
:104588000000000000000000000000000000000023
:1045980000000000ABFAFFFF000000000000000070
:1045A8000000000000000000ABFAFFFFABFAFFFFBD
:1045B8000000000055050000000000000000000099
:1045C80000000000000000000000000000000000E3
:1045D8000000000055050000000000000000000079
:1045E8000000000000000000ABFAFFFFABFAFFFF7D
:1045F80000000000000000000000000000000000B3
:1046080000000000000000005505000055050000EE
:104618000000000000000000000000000000000092
:104628000000000000000000ABFAFFFFABFAFFFF3C
:10463800ABFAFFFF000000000000000000000000CF
:10464800ABFAFFFFABFAFFFF00000000000000001C
:10465800000000000000000000000000ABFAFFFFAF
:10466800000000000000000055050000550500008E
:104678005505000055050000550500000000000024
:10468800000000000000000055050000550500006E
:1046980000000000ABFAFFFFABFAFFFF00000000CC
:1046A80000000000ABFAFFFF56F5FFFFABFAFFFF73
:1046B800000000005505000055050000000000003E
:1046C80000000000AA0A0000FF0F0000FF0F000012
:1046D800AA0A000055050000AA0A0000AA0A00005C
:1046E80000000000000000000000000000000000C2
:1046F80000000000000000000000000000000000B2
:1047080000000000000000000000000000000000A1
:104718000000000000000000000000000000000091
:104A4800BAFFFFFFBAFFFFFF00000000BAFFFFFF39
:104A58000000000000000000BAFFFFFF0000000097
:104A6800000000000000000000000000000000003E
:104A7800000000000000000000000000000000002E
:104A880000000000BAFFFFFFBAFFFFFFBAFFFFFFF9
:104A98000000000000000000BAFFFFFFBAFFFFFFA0
:104AA800BAFFFFFFBAFFFFFFBAFFFFFFBAFFFFFF22
:104AB800BAFFFFFFBAFFFFFFBAFFFFFFBAFFFFFF12
:104AC80000000000000000000000000000000000DE
:104AD80000000000000000000000000000000000CE
:104AE80000000000BAFFFFFF73FFFFFFBAFFFFFFE0
:104AF800BAFFFFFFBAFFFFFFBAFFFFFFBAFFFFFFD2
:104B080073FFFFFF73FFFFFF73FFFFFFBAFFFFFF96
:104B1800BAFFFFFF73FFFFFF73FFFFFFBAFFFFFF3F
:104B2800BAFFFFFFBAFFFFFF73FFFFFF73FFFFFF2F
:104B380073FFFFFF73FFFFFF2DFFFFFF2DFFFFFF39
:104B4800E6FEFFFF73FFFFFF00000000BAFFFFFF54
:104B5800BAFFFFFFBAFFFFFF73FFFFFFBAFFFFFFB8
:104B6800BAFFFFFF00000000460000000000000040
:104B7800460000008D00000000000000BAFFFFFFA3
:104B88000000000000000000BAFFFFFF2DFFFFFF3C
:104B98002DFFFFFF2DFFFFFFE6FEFFFF2DFFFFFFAD
:104BA80073FFFFFF2DFFFFFF2DFFFFFFBAFFFFFF82
:104BB80000000000000000000000000000000000ED
:104BC8000000000073FFFFFFBAFFFFFFBAFFFFFFFF
:104BD800E6FEFFFF9FFEFFFF9FFEFFFF12FEFFFFA7
:104BE80085FDFFFFCCFDFFFF9FFEFFFF59FEFFFF86
:104BF800CCFDFFFF12FEFFFF12FEFFFF85FDFFFF4A
:104C080085FDFFFF12FEFFFF9FFEFFFF73FFFFFF03
:104C18008D000000D3000000D300000061010000F7
:104C28003402000034020000EE010000A701000079
:104C3800D300000000000000460000008D000000C6
:104C4800BAFFFFFF73FFFFFF73FFFFFF73FFFFFF55
:104C58009FFEFFFF12FEFFFF12FEFFFFCCFDFFFFCE
:104C680085FDFFFF59FEFFFFE6FEFFFF73FFFFFF15
:104C780073FFFFFF2DFFFFFF46000000D300000079
:104C88008D0000008D0000008D000000BAFFFFFFBE
:104C9800BAFFFFFF460000008D000000460000003C
:104CA80000000000460000008D000000BAFFFFFF72
:104CB800BAFFFFFFD300000061010000610100009E
:104CC8001A010000A70100007B020000DC030000BD
:104CD8003D0500003D050000B0040000B0040000E0
:104CE80069040000C2020000C20200007B0200004A
:104CF800A70100007B020000DC030000080300009D
:104D08001A01000000000000D3000000EE010000BE
:104D1800A70100001A0100001A0100001A01000092
:104D280061010000610100008D000000000000002A
:104D3800D3000000EE0100001A010000BAFFFFFFD7
:104D4800BAFFFFFF73FFFFFFE6FEFFFFE6FEFFFF70
:104D58009FFEFFFF59FEFFFFE6FEFFFF73FFFFFF09
:104D68002DFFFFFFE6FEFFFFE6FEFFFFE6FEFFFF6B
:104D780012FEFFFF85FDFFFF12FEFFFFE6FEFFFFAD
:104D88002DFFFFFF460000008D0000008D00000091
:104D9800D30000006101000061010000D3000000A1
:104DA800D3000000D30000008D0000004600000082
:104DB8008D000000D300000061010000EE0100003A
:104DC800A70100008D0000002DFFFFFF12FEFFFF6E
:104DD8003EFDFFFF3EFDFFFF3EFDFFFF85FDFFFFA0
:104DE8003EFDFFFFCCFDFFFF12FEFFFF85FDFFFF2D
:104DF8003EFDFFFF3EFDFFFF59FEFFFFE6FEFFFF02
:104E08003EFDFFFF24FCFFFF3EFDFFFF3EFDFFFFD1
:104E1800B1FCFFFF9FFEFFFF340200004F030000BC
:104E2800EE0100001A0100001A01000061010000F3
:104E3800A7010000D3000000E6FEFFFF2DFFFFFFE3
:104E4800EE0100004F030000C20200001A0100003A
:104E58008D000000610100007B0200004F0300008C
:104E6800C2020000EE0100004F030000DC03000056
:104E7800EE010000460000000000000000000000F5
:104E8800460000002DFFFFFF3EFDFFFF97FBFFFFE1
:104E980050FBFFFFDDFBFFFF97FBFFFF36FAFFFF2D
:104EA8007CFAFFFF7CFAFFFF7CFAFFFF24FCFFFF80
:104EB800B1FCFFFFDDFBFFFF0AFBFFFFC3FAFFFFAB
:104EC80097FBFFFF3EFDFFFF12FEFFFF9FFEFFFF68
:104ED800BAFFFFFFD3000000610100001A010000C3
:104EE800D30000008D00000046000000EE01000025
:104EF8000803000061010000460000008D0000006A
:104F0800A7010000080300004F030000C2020000D0
:104F18004F030000340200001A010000D300000013
:104F2800BAFFFFFFBAFFFFFFBAFFFFFF2DFFFFFF2A
:104F3800460000001A010000610100004F03000054
:104F4800DC030000C2020000A7010000D30000003B
:104F58003402000069040000DC030000C202000003
:104F6800080300004F03000023040000F6040000BB
:104F78003D0500003D0500003D05000084050000DA
:104F8800F604000008030000610100008D00000025
:104F98001A010000340200001A010000BAFFFFFFE6
:104FA8002DFFFFFF85FDFFFFB1FCFFFF85FDFFFF24
:104FB8006BFCFFFF7CFAFFFF1BF9FFFF62F9FFFFA5
:104FC8000AFBFFFF97FBFFFF50FBFFFFC3FAFFFF42
:104FD80036FAFFFF24FCFFFFE6FEFFFF9FFEFFFF00
:104FE80012FEFFFFBAFFFFFF1A0100006101000077
:104FF80046000000E6FEFFFF2DFFFFFF61010000F5
:1050080023040000DC030000460000002DFFFFFF22
:10501800D3000000EE010000EE0100006101000075
:10502800D30000004F030000B80700008C08000000
:105038003D050000C202000008030000A7010000AF
:10504800E6FEFFFFBAFFFFFF61010000D30000008A
:10505800000000002DFFFFFF2DFFFFFFBAFFFFFF3D
:10506800E6FEFFFF59FEFFFF12FEFFFFB1FCFFFF48
:105078000AFBFFFFEFF9FFFF1BF9FFFFA9F9FFFF8D
:105088000AFBFFFFF8FCFFFF9FFEFFFFE6FEFFFFA6
:105098002DFFFFFFE6FEFFFF12FEFFFF59FEFFFF99
:1050A8009FFEFFFF9FFEFFFF73FFFFFF8D000000C5
:1050B800A7010000A7010000EE010000C2020000E5
:1050C800C202000034020000EE01000000000000EF
:1050D800CCFDFFFFCCFDFFFF59FEFFFFCCFDFFFF1E
:1050E80085FDFFFF12FEFFFF9FFEFFFF3EFDFFFF56
:1050F800DDFBFFFF6BFCFFFF97FBFFFF36FAFFFFAF
:10510800C3FAFFFF36FAFFFFEFF9FFFFB1FCFFFF1D
:105118009FFEFFFFF8FCFFFF0AFBFFFFDDFBFFFF21
:10512800F8FCFFFF6BFCFFFFDDFBFFFFDDFBFFFF74
:10513800DDFBFFFF3EFDFFFF12FEFFFF50FBFFFF01
:1051480048F8FFFF48F8FFFF6BFCFFFFE6FEFFFF94
:1051580024FCFFFF50FBFFFF3EFDFFFF50FBFFFF5E
:1051680097FBFFFF73FFFFFF8D0000003402000074
:10517800E5060000A7090000340A000060090000E5
:1051880072070000E5060000720700008C080000A6
:10519800460800003D050000B004000011060000AC
:1051A800F6040000230400003D0500009E060000F0
:1051B8005706000023040000DC0300003D05000042
:1051C8003D0500009E06000019090000FF070000C9
:1051D8001106000057060000E5060000570600000B
:1051E800DC030000610100008D0000009FFEFFFF4E
:1051F800B1FCFFFFCCFDFFFFE6FEFFFF12FEFFFF45
:105208003EFDFFFFE6FEFFFF6101000046000000D3
:1052180012FEFFFF73FFFFFFEE010000B004000065
:1052280046080000A7090000D30800006009000034
:10523800690C0000570E0000F60C0000080B000077
:10524800D308000084050000DC03000023040000EC
:1052580034020000D30000000803000069040000C5
:105268008D00000085FDFFFF59FEFFFF59FEFFFF7F
:10527800DDFBFFFFB1FCFFFFE6FEFFFF59FEFFFF6E
:105288009FFEFFFF000000008D0000001A010000D3
:1052980008030000F604000023040000EE010000EB
:1052A80008030000690400007B020000D30000002E
:1052B800BAFFFFFF12FEFFFF85FDFFFFE6FEFFFFBF
:1052C800460000002DFFFFFF3EFDFFFF000000002D
:1052D800C20200007B020000080300004F03000028
:1052E80008030000DC0300007B020000D30000007C
:1052F80034020000C202000084050000D308000048
:10530800E5060000230400006904000023040000EF
:1053180023040000C2020000A7010000950300005A
:1053280069040000DC0300004F0300004600000091
:10533800E6FEFFFF1A010000A70100001A010000A5
:105348008D0000004600000073FFFFFF3EFDFFFFD9
:105358003EFDFFFF59FEFFFFC3FAFFFF8EF8FFFF78
:1053680050FBFFFF85FDFFFFBAFFFFFF7B02000038
:10537800C2020000610100000000000034020000C9
:1053880057060000CA050000DC03000008030000FF
:105398001A0100007B020000570600008405000087
:1053A800EE010000A701000008030000F604000059
:1053B80084050000F604000095030000EE010000DB
:1053C800610100008D00000059FEFFFFB1FCFFFFE6
:1053D80097FBFFFF36FAFFFF36FAFFFFDDFBFFFF03
:1053E800F8FCFFFFDDFBFFFF0AFBFFFF12FEFFFFDC
:1053F800D30000008D0000001A0100001A0100000F
:10540800D300000008030000DC030000D300000004
:10541800000000007B020000CA05000046080000EA
:105428008C080000E506000084050000E506000081
:10543800340A0000340A0000B00400008D000000A7
:10544800A7010000C2020000A7010000C20200007C
:10545800DC030000EE010000DC0300009E060000F3
:10546800C202000012FEFFFFCCFDFFFF9FFEFFFF00
:1054780000000000EE010000EE0100001A0100002B
:10548800A7010000B0040000F60400001A010000A3
:10549800D30000004F030000080300004F03000082
:1054A800C202000046000000BAFFFFFFA70100008B
:1054B800A70100002DFFFFFFB1FCFFFFB1FCFFFFBC
:1054C800E6FEFFFF73FFFFFF9FFEFFFF3EFDFFFFAE
:1054D80050FBFFFF97FBFFFFDDFBFFFF7CFAFFFFA1
:1054E8008EF8FFFF13F6FFFF59F6FFFF59F6FFFF8F
:1054F800B2F4FFFFDEF3FFFFB2F4FFFF01F8FFFF96
:1055080097FBFFFF8EF8FFFFCCF5FFFF7CFAFFFF4C
:10551800BAFFFFFF8D0000004600000012FEFFFFEB
:10552800B1FCFFFF46000000DC030000DC030000C4
:10553800D3000000EE0100008C0800004E0B0000B4
:105548007A0A000019090000CA05000023040000B7
:10555800EE01000012FEFFFFF8FCFFFF85FDFFFFD4
:105568000000000069040000110600009E0600000B
:105578002B0700003D05000095030000EE01000028
:10558800C3FAFFFF2DF7FFFFA9F9FFFF7CFAFFFF22
:10559800C3FAFFFF62F9FFFF1BF9FFFFC3FAFFFF22
:1055A8007CFAFFFF12FEFFFF080300003D05000024
:1055B8009E0600009E06000008030000DDFBFFFFBA
:1055C800C3FAFFFF00000000A701000012FEFFFF62
:1055D80097FBFFFF85FDFFFF2DFFFFFFBAFFFFFFD2
:1055E80073FFFFFFBAFFFFFFD300000000000000B9
:1055F8001A010000C202000061010000B0040000AE
:10560800B8070000CA050000950300007B020000EF
:105618004F030000340200008D00000073FFFFFFFD
:105628003EFDFFFF3EFDFFFFB1FCFFFF59FEFFFF00
:10563800D3000000DC030000080B0000CA0D0000C6
:10564800FF0F0000AF0C00003D050000CA05000078
:1056580069040000CA050000ED0900008C0800007C
:10566800080B0000690C0000080B0000600900002E
:10567800230400000803000008030000E5060000FA
:105688002B070000CA050000720700001106000081
:10569800C10A0000570600002304000008030000A8
:1056A8003EFDFFFFB004000073FFFFFF12FEFFFF87
:1056B8000000000048F8FFFF97FBFFFF62F9FFFFBB
:1056C8003EFDFFFF0000000097FBFFFF690400009C
:1056D80057060000230400004F0300001A010000D1
:1056E80000000000070000000F0000001700000085
:1056F8001F000000270000002F00000037000000F6
:105708003F000000470000004F0000005700000065
:105718005F000000670000006F00000077000000D5
:105728007F000000870000008F0000009700000045
:105738009F000000A7000000AF000000B7000000B5
:10574800BF000000C7000000CF000000D700000025
:10575800DF000000E7000000EF000000F700000095
:10576800FF000000070100000F0100001701000002
:105778001F010000270100002F0100003701000071
:105788003F010000470100004F01000057010000E1
:105798005F010000670100006F0100007701000051
:1057A8007F010000870100008F01000097010000C1
:1057B8009F010000A7010000AF010000B701000031
:1057C800BF010000C7010000CF010000D7010000A1
:1057D800DF010000E7010000EF010000F701000011
:1057E800FF010000070200000F020000170200007E
:1057F8001F020000270200002F02000037020000ED
:105808003F020000470200004F020000570200005C
:105818005F020000670200006F02000077020000CC
:105828007F020000870200008F020000970200003C
:105838009F020000A7020000AF020000B7020000AC
:10584800BF020000C7020000CF020000D70200001C
:10585800DF020000E7020000EF020000F70200008C
:10586800FF020000070300000F03000017030000F9
:105878001F030000270300002F0300003703000068
:105888003F030000470300004F03000057030000D8
:105898005F030000670300006F0300007703000048
:1058A8007F030000870300008F03000097030000B8
:1058B8009F030000A7030000AF030000B703000028
:1058C800BF030000C7030000CF030000D703000098
:1058D800DF030000E7030000EF030000F703000008
:1058E800FF030000070400000F0400001704000075
:1058F8001F040000270400002F04000037040000E4
:105908003F040000470400004F0400005704000053
:105918005F040000670400006F04000077040000C3
:105928007F040000870400008F0400009704000033
:105938009F040000A7040000AF040000B7040000A3
:10594800BF040000C7040000CF040000D704000013
:10595800DF040000E7040000EF040000F704000083
:10596800FF040000070500000F05000017050000F0
:105978001F050000270500002F050000370500005F
:105988003F050000470500004F05000057050000CF
:105998005F050000670500006F050000770500003F
:1059A8007F050000870500008F05000097050000AF
:1059B8009F050000A7050000AF050000B70500001F
:1059C800BF050000C7050000CF050000D70500008F
:1059D800DF050000E7050000EF050000F7050000FF
:1059E800FF050000070600000F060000170600006C
:1059F8001F060000270600002F06000037060000DB
:105A08003F060000470600004F060000570600004A
:105A18005F060000670600006F06000077060000BA
:105A28007F060000870600008F060000970600002A
:105A38009F060000A7060000AF060000B70600009A
:105A4800BF060000C7060000CF060000D70600000A
:105A5800DF060000E7060000EF060000F70600007A
:105A6800FF060000070700000F07000017070000E7
:105A78001F070000270700002F0700003707000056
:105A88003F070000470700004F07000057070000C6
:105A98005F070000670700006F0700007707000036
:105AA8007F070000870700008F07000097070000A6
:105AB8009F070000A7070000AF070000B707000016
:105AC800BF070000C7070000CF070000D707000086
:105AD800DF070000E7070000EF070000F7070000F6
:105AE800FF070000070800000F0800001708000063
:105AF8001F080000270800002F08000037080000D2
:105B08003F080000470800004F0800005708000041
:105B18005F080000670800006F08000077080000B1
:105B28007F080000870800008F0800009708000021
:105B38009F080000A7080000AF080000B708000091
:105B4800BF080000C7080000CF080000D708000001
:105B5800DF080000E7080000EF080000F708000071
:105B6800FF080000070900000F09000017090000DE
:105B78001F090000270900002F090000370900004D
:105B88003F090000470900004F09000057090000BD
:105B98005F090000670900006F090000770900002D
:105BA8007F090000870900008F090000970900009D
:105BB8009F090000A7090000AF090000B70900000D
:105BC800BF090000C7090000CF090000D70900007D
:105BD800DF090000E7090000EF090000F7090000ED
:105BE800FF090000070A00000F0A0000170A00005A
:105BF8001F0A0000270A00002F0A0000370A0000C9
:105C08003F0A0000470A00004F0A0000570A000038
:105C18005F0A0000670A00006F0A0000770A0000A8
:105C28007F0A0000870A00008F0A0000970A000018
:105C38009F0A0000A70A0000AF0A0000B70A000088
:105C4800BF0A0000C70A0000CF0A0000D70A0000F8
:105C5800DF0A0000E70A0000EF0A0000F70A000068
:105C6800FF0A0000070B00000F0B0000170B0000D5
:105C78001F0B0000270B00002F0B0000370B000044
:105C88003F0B0000470B00004F0B0000570B0000B4
:105C98005F0B0000670B00006F0B0000770B000024
:105CA8007F0B0000870B00008F0B0000970B000094
:105CB8009F0B0000A70B0000AF0B0000B70B000004
:105CC800BF0B0000C70B0000CF0B0000D70B000074
:105CD800DF0B0000E70B0000EF0B0000F70B0000E4
:105CE800FF0B0000070C00000F0C0000170C000051
:105CF8001F0C0000270C00002F0C0000370C0000C0
:105D08003F0C0000470C00004F0C0000570C00002F
:105D18005F0C0000670C00006F0C0000770C00009F
:105D28007F0C0000870C00008F0C0000970C00000F
:105D38009F0C0000A70C0000AF0C0000B70C00007F
:105D4800BF0C0000C70C0000CF0C0000D70C0000EF
:105D5800DF0C0000E70C0000EF0C0000F70C00005F
:105D6800FF0C0000070D00000F0D0000170D0000CC
:105D78001F0D0000270D00002F0D0000370D00003B
:105D88003F0D0000470D00004F0D0000570D0000AB
:105D98005F0D0000670D00006F0D0000770D00001B
:105DA8007F0D0000870D00008F0D0000970D00008B
:105DB8009F0D0000A70D0000AF0D0000B70D0000FB
:105DC800BF0D0000C70D0000CF0D0000D70D00006B
:105DD800DF0D0000E70D0000EF0D0000F70D0000DB
:105DE800FF0D0000070E00000F0E0000170E000048
:105DF8001F0E0000270E00002F0E0000370E0000B7
:105E08003F0E0000470E00004F0E0000570E000026
:105E18005F0E0000670E00006F0E0000770E000096
:105E28007F0E0000870E00008F0E0000970E000006
:105E38009F0E0000A70E0000AF0E0000B70E000076
:105E4800BF0E0000C70E0000CF0E0000D70E0000E6
:105E5800DF0E0000E70E0000EF0E0000F70E000056
:105E6800FF0E0000070F00000F0F0000170F0000C3
:105E78001F0F0000270F00002F0F0000370F000032
:105E88003F0F0000470F00004F0F0000570F0000A2
:105E98005F0F0000670F00006F0F0000770F000012
:105EA8007F0F0000870F00008F0F0000970F000082
:105EB8009F0F0000A70F0000AF0F0000B70F0000F2
:105EC800BF0F0000C70F0000CF0F0000D70F000062
:105ED800DF0F0000E70F0000EF0F0000F70F0000D2
:105EE800FF0F0000F70F0000EF0F0000E70F0000A2
:105EF800DF0F0000D70F0000CF0F0000C70F000012
:105F0800BF0F0000B70F0000AF0F0000A70F000081
:105F18009F0F0000970F00008F0F0000870F0000F1
:105F28007F0F0000770F00006F0F0000670F000061
:105F38005F0F0000570F00004F0F0000470F0000D1
:105F48003F0F0000370F00002F0F0000270F000041
:105F58001F0F0000170F00000F0F0000070F0000B1
:105F6800FF0E0000F70E0000EF0E0000E70E000025
:105F7800DF0E0000D70E0000CF0E0000C70E000095
:105F8800BF0E0000B70E0000AF0E0000A70E000005
:105F98009F0E0000970E00008F0E0000870E000075
:105FA8007F0E0000770E00006F0E0000670E0000E5
:105FB8005F0E0000570E00004F0E0000470E000055
:105FC8003F0E0000370E00002F0E0000270E0000C5
:105FD8001F0E0000170E00000F0E0000070E000035
:105FE800FF0D0000F70D0000EF0D0000E70D0000A9
:105FF800DF0D0000D70D0000CF0D0000C70D000019
:10600800BF0D0000B70D0000AF0D0000A70D000088
:106018009F0D0000970D00008F0D0000870D0000F8
:106028007F0D0000770D00006F0D0000670D000068
:106038005F0D0000570D00004F0D0000470D0000D8
:106048003F0D0000370D00002F0D0000270D000048
:106058001F0D0000170D00000F0D0000070D0000B8
:10606800FF0C0000F70C0000EF0C0000E70C00002C
:10607800DF0C0000D70C0000CF0C0000C70C00009C
:10608800BF0C0000B70C0000AF0C0000A70C00000C
:106098009F0C0000970C00008F0C0000870C00007C
:1060A8007F0C0000770C00006F0C0000670C0000EC
:1060B8005F0C0000570C00004F0C0000470C00005C
:1060C8003F0C0000370C00002F0C0000270C0000CC
:1060D8001F0C0000170C00000F0C0000070C00003C
:1060E800FF0B0000F70B0000EF0B0000E70B0000B0
:1060F800DF0B0000D70B0000CF0B0000C70B000020
:10610800BF0B0000B70B0000AF0B0000A70B00008F
:106118009F0B0000970B00008F0B0000870B0000FF
:106128007F0B0000770B00006F0B0000670B00006F
:106138005F0B0000570B00004F0B0000470B0000DF
:106148003F0B0000370B00002F0B0000270B00004F
:106158001F0B0000170B00000F0B0000070B0000BF
:10616800FF0A0000F70A0000EF0A0000E70A000033
:10617800DF0A0000D70A0000CF0A0000C70A0000A3
:10618800BF0A0000B70A0000AF0A0000A70A000013
:106198009F0A0000970A00008F0A0000870A000083
:1061A8007F0A0000770A00006F0A0000670A0000F3
:1061B8005F0A0000570A00004F0A0000470A000063
:1061C8003F0A0000370A00002F0A0000270A0000D3
:1061D8001F0A0000170A00000F0A0000070A000043
:1061E800FF090000F7090000EF090000E7090000B7
:1061F800DF090000D7090000CF090000C709000027
:10620800BF090000B7090000AF090000A709000096
:106218009F090000970900008F0900008709000006
:106228007F090000770900006F0900006709000076
:106238005F090000570900004F09000047090000E6
:106248003F090000370900002F0900002709000056
:106258001F090000170900000F09000007090000C6
:10626800FF080000F7080000EF080000E70800003A
:10627800DF080000D7080000CF080000C7080000AA
:10628800BF080000B7080000AF080000A70800001A
:106298009F080000970800008F080000870800008A
:1062A8007F080000770800006F08000067080000FA
:1062B8005F080000570800004F080000470800006A
:1062C8003F080000370800002F08000027080000DA
:1062D8001F080000170800000F080000070800004A
:1062E800FF070000F7070000EF070000E7070000BE
:1062F800DF070000D7070000CF070000C70700002E
:10630800BF070000B7070000AF070000A70700009D
:106318009F070000970700008F070000870700000D
:106328007F070000770700006F070000670700007D
:106338005F070000570700004F07000047070000ED
:106348003F070000370700002F070000270700005D
:106358001F070000170700000F07000007070000CD
:10636800FF060000F7060000EF060000E706000041
:10637800DF060000D7060000CF060000C7060000B1
:10638800BF060000B7060000AF060000A706000021
:106398009F060000970600008F0600008706000091
:1063A8007F060000770600006F0600006706000001
:1063B8005F060000570600004F0600004706000071
:1063C8003F060000370600002F06000027060000E1
:1063D8001F060000170600000F0600000706000051
:1063E800FF050000F7050000EF050000E7050000C5
:1063F800DF050000D7050000CF050000C705000035
:10640800BF050000B7050000AF050000A7050000A4
:106418009F050000970500008F0500008705000014
:106428007F050000770500006F0500006705000084
:106438005F050000570500004F05000047050000F4
:106448003F050000370500002F0500002705000064
:106458001F050000170500000F05000007050000D4
:10646800FF040000F7040000EF040000E704000048
:10647800DF040000D7040000CF040000C7040000B8
:10648800BF040000B7040000AF040000A704000028
:106498009F040000970400008F0400008704000098
:1064A8007F040000770400006F0400006704000008
:1064B8005F040000570400004F0400004704000078
:1064C8003F040000370400002F04000027040000E8
:1064D8001F040000170400000F0400000704000058
:1064E800FF030000F7030000EF030000E7030000CC
:1064F800DF030000D7030000CF030000C70300003C
:10650800BF030000B7030000AF030000A7030000AB
:106518009F030000970300008F030000870300001B
:106528007F030000770300006F030000670300008B
:106538005F030000570300004F03000047030000FB
:106548003F030000370300002F030000270300006B
:106558001F030000170300000F03000007030000DB
:10656800FF020000F7020000EF020000E70200004F
:10657800DF020000D7020000CF020000C7020000BF
:10658800BF020000B7020000AF020000A70200002F
:106598009F020000970200008F020000870200009F
:1065A8007F020000770200006F020000670200000F
:1065B8005F020000570200004F020000470200007F
:1065C8003F020000370200002F02000027020000EF
:1065D8001F020000170200000F020000070200005F
:1065E800FF010000F7010000EF010000E7010000D3
:1065F800DF010000D7010000CF010000C701000043
:10660800BF010000B7010000AF010000A7010000B2
:106618009F010000970100008F0100008701000022
:106628007F010000770100006F0100006701000092
:106638005F010000570100004F0100004701000002
:106648003F010000370100002F0100002701000072
:106658001F010000170100000F01000007010000E2
:10666800FF000000F7000000EF000000E700000056
:10667800DF000000D7000000CF000000C7000000C6
:10668800BF000000B7000000AF000000A700000036
:106698009F000000970000008F00000087000000A6
:1066A8007F000000770000006F0000006700000016
:1066B8005F000000570000004F0000004700000086
:1066C8003F000000370000002F00000027000000F6
:1066D8001F000000170000000F0000000700000066
:1066E8000000000003000000070000000B0000008D
:1066F8000F00000013000000170000001B0000003E
:106708001F00000023000000270000002B000000ED
:106718002F00000033000000370000003B0000009D
:106728003F00000043000000470000004B0000004D
:106738004F00000053000000570000005B000000FD
:106748005F00000063000000670000006B000000AD
:106758006F00000073000000770000007B0000005D
:106768007F00000083000000870000008B0000000D
:106778008F00000093000000970000009B000000BD
:106788009F000000A3000000A7000000AB0000006D
:10679800AF000000B3000000B7000000BB0000001D
:1067A800BF000000C3000000C7000000CB000000CD
:1067B800CF000000D3000000D7000000DB0000007D
:1067C800DF000000E3000000E7000000EB0000002D
:1067D800EF000000F3000000F7000000FB000000DD
:1067E800FF00000003010000070100000B0100008A
:1067F8000F01000013010000170100001B01000039
:106808001F01000023010000270100002B010000E8
:106818002F01000033010000370100003B01000098
:106828003F01000043010000470100004B01000048
:106838004F01000053010000570100005B010000F8
:106848005F01000063010000670100006B010000A8
:106858006F01000073010000770100007B01000058
:106868007F01000083010000870100008B01000008
:106878008F01000093010000970100009B010000B8
:106888009F010000A3010000A7010000AB01000068
:10689800AF010000B3010000B7010000BB01000018
:1068A800BF010000C3010000C7010000CB010000C8
:1068B800CF010000D3010000D7010000DB01000078
:1068C800DF010000E3010000E7010000EB01000028
:1068D800EF010000F3010000F7010000FB010000D8
:1068E800FF01000003020000070200000B02000085
:1068F8000F02000013020000170200001B02000034
:106908001F02000023020000270200002B020000E3
:106918002F02000033020000370200003B02000093
:106928003F02000043020000470200004B02000043
:106938004F02000053020000570200005B020000F3
:106948005F02000063020000670200006B020000A3
:106958006F02000073020000770200007B02000053
:106968007F02000083020000870200008B02000003
:106978008F02000093020000970200009B020000B3
:106988009F020000A3020000A7020000AB02000063
:10699800AF020000B3020000B7020000BB02000013
:1069A800BF020000C3020000C7020000CB020000C3
:1069B800CF020000D3020000D7020000DB02000073
:1069C800DF020000E3020000E7020000EB02000023
:1069D800EF020000F3020000F7020000FB020000D3
:1069E800FF02000003030000070300000B03000080
:1069F8000F03000013030000170300001B0300002F
:106A08001F03000023030000270300002B030000DE
:106A18002F03000033030000370300003B0300008E
:106A28003F03000043030000470300004B0300003E
:106A38004F03000053030000570300005B030000EE
:106A48005F03000063030000670300006B0300009E
:106A58006F03000073030000770300007B0300004E
:106A68007F03000083030000870300008B030000FE
:106A78008F03000093030000970300009B030000AE
:106A88009F030000A3030000A7030000AB0300005E
:106A9800AF030000B3030000B7030000BB0300000E
:106AA800BF030000C3030000C7030000CB030000BE
:106AB800CF030000D3030000D7030000DB0300006E
:106AC800DF030000E3030000E7030000EB0300001E
:106AD800EF030000F3030000F7030000FB030000CE
:106AE800FF03000003040000070400000B0400007B
:106AF8000F04000013040000170400001B0400002A
:106B08001F04000023040000270400002B040000D9
:106B18002F04000033040000370400003B04000089
:106B28003F04000043040000470400004B04000039
:106B38004F04000053040000570400005B040000E9
:106B48005F04000063040000670400006B04000099
:106B58006F04000073040000770400007B04000049
:106B68007F04000083040000870400008B040000F9
:106B78008F04000093040000970400009B040000A9
:106B88009F040000A3040000A7040000AB04000059
:106B9800AF040000B3040000B7040000BB04000009
:106BA800BF040000C3040000C7040000CB040000B9
:106BB800CF040000D3040000D7040000DB04000069
:106BC800DF040000E3040000E7040000EB04000019
:106BD800EF040000F3040000F7040000FB040000C9
:106BE800FF04000003050000070500000B05000076
:106BF8000F05000013050000170500001B05000025
:106C08001F05000023050000270500002B050000D4
:106C18002F05000033050000370500003B05000084
:106C28003F05000043050000470500004B05000034
:106C38004F05000053050000570500005B050000E4
:106C48005F05000063050000670500006B05000094
:106C58006F05000073050000770500007B05000044
:106C68007F05000083050000870500008B050000F4
:106C78008F05000093050000970500009B050000A4
