:020000040800F2
:100000000000022051260008410D0008430D0008A1
:10001000450D0008470D0008490D000800000000CC
:100020000000000000000000000000004B0D000870
:100030004D0D0008000000004F0D0008510D000894
:10004000A1260008A1260008A1260008A126000874
:10005000A1260008A126000871070008A1260008B3
:10006000A1260008A1260008A1260008A126000854
:10007000A1260008A1260008A1260008A126000844
:10008000590D0008A1260008A1260008A126000895
:10009000A1260008A1260008A1260008A126000824
:1000A000A1260008A1260008A1260008A126000814
:1000B000A1260008A1260008A1260008A126000804
:1000C000A1260008A1260008A1260008A1260008F4
:1000D000A1260008A1260008A1260008A1260008E4
:1000E000A1260008A1260008A1260008A1260008D4
:1000F000A1260008A1260008A1260008A1260008C4
:10010000A1260008A1260008A1260008A1260008B3
:10011000A1260008A1260008A1260008A1260008A3
:10012000A1260008A1260008A1260008A126000893
:10013000A12600080000000000000000A126000821
:10014000A1260008A1260008A1260008A126000873
:10015000A1260008A1260008A1260008A126000863
:10016000A1260008A1260008A1260008A126000853
:10017000A1260008A1260008A12600080000000012
:1001800000000000A12600080000000000000000A0
:10019000A12600080000000000000000A1260008C1
:1001A000000000000000000000000000A126000880
:1001B000A1260008A1260008A1260008A126000803
:0401C000A12600086C
:1001C40010B5054C237833B9044B13B10448AFF38D
:1001D40000800123237010BD0C00002000000000EB
:1001E400FC26000808B5034B1BB103490348AFF3D1
:1001F400008008BD0000000010000020FC2600085C
:1002040053B94AB9002908BF00281CBF4FF0FF3179
:100214004FF0FF3000F088B9ADF1080C6DE904CE61
:1002240000F006F8DDF804E0DDE9022304B07047CD
:100234002DE9F047089D8E4604468846002B4AD196
:100244008A42174662D9B2FA82F64EB1C6F1200349
:1002540001FA06F820FA03F3B74043EA0808B44069
:100264004FEA174E1FFA87FCB8FBFEF1230C0EFB76
:10027400118843EA084301FB0CF29A4209D9FB189E
:1002840001F1FF3080F0EA809A4240F2E7800239BF
:100294003B449A1AA3B2B2FBFEF00EFB102243EACF
:1002A400024300FB0CFC9C4509D9FB1800F1FF320A
:1002B40080F0D6809C4540F2D3803B44023840EA2B
:1002C4000140A3EB0C0300211DB1F3400022C5E95A
:1002D4000032BDE8F0878B4205D90DB1C5E90001B4
:1002E40000210846F5E7B3FA83F1002946D17345A6
:1002F40002D3824200F20581841A6EEB03020120CC
:100304009046002DE5D0C5E90048E2E7002A00F058
:100314009080B2FA82F6002E40F0A4808A1A030C70
:100324004FEA174E80B2BCB20121B2FBFEFC0EFBB9
:100334001C2243EA024304FB0CF29A4207D9FB183D
:100344000CF1FF3802D29A4200F2E080C4469B1AB4
:10035400B3FBFEF20EFB123340EA034302FB04F448
:100364009C4207D9FB1802F1FF3002D29C4200F2F2
:10037400CA8002461B1B42EA0C40A5E7C1F12006D5
:100384008B4022FA06F71F430EFA01F420FA06F313
:100394002EFA06FE4FEA1749234300FA01F81FFA22
:1003A40087FCBEFBF9F01C0C09FB10EE44EA0E447A
:1003B40000FB0CFEA64502FA01F209D93C1900F132
:1003C400FF3A80F09C80A64540F2998002383C4474
:1003D400A4EB0E041FFA83FEB4FBF9F309FB1344E8
:1003E4004EEA044403FB0CFCA44508D93C1903F170
:1003F400FF3E80F08280A4457FD9023B3C4443EA1F
:100404000040A4EB0C04A0FB02EC64457346E146F7
:1004140062D35FD05DB1B8EB030264EB090404FA64
:1004240006F622FA01F31E43CC40C5E9006400211C
:100434004FE7B1FBF2FC010C41EA0E4180B240EA05
:1004440001423B4638463C46B846BE462026B1FBF0
:10045400F7F1A2EB080241EA0C4166E7014618E70E
:1004640010462CE7C6F120022EFA02F3B740B14041
:1004740020FA02F24FEA174E0A43B3FBFEF8BCB26D
:100484000EFB1833110C41EA034108FB04F9B04098
:1004940089454FEA104380B23ED9791808F1FF3CF0
:1004A40001D289451FD8A1EB0901B1FBFEF909FB73
:1004B40004F80EFB191192B242EA0142424529D2D4
:1004C400BA1809F1FF31C4D24245C2D2A9F10201DE
:1004D4003A44BEE7F0459DD2BEEB02036CEB070C39
:1004E4000138E14696E7A7EB09094944A8F1020C53
:1004F400B1FBFEF909FB04F8DBE773467FE75046DE
:1005040066E70846FDE63B44023A33E7ACF1020CE9
:100514003B441CE749469CE7A1EB0901C446B1FBF7
:10052400FEF909FB04F8C4E7704700BF10B5810F5A
:100534008300181841F100010B0143EA1073020112
:10054400121A63EB01039B0043EA92739200500872
:1005540040EAC3705908034C001941F10001FFF748
:100564004FFE10BD0024F4002DE9F04F8BB00024A1
:10057400059406940794089409940194344B1A6BD7
:1005840042F080021A631A6B02F080020192019A0F
:1005940002941A6B42F001021A631A6B02F0010210
:1005A4000292029A03941A6B42F002021A631A6BC3
:1005B40002F002020392039A04941A6B42F00402BA
:1005C4001A631B6B03F004030493049B4FF4404B26
:1005D400CDF814B001260696DFF87CA005A9504694
:1005E40001F02AFC4FF44079CDF81490DFF86C80C8
:1005F40005A9404601F020FC4FF410470597154D1E
:1006040005A9284601F018FC22465946504601F037
:1006140003FD22464946404601F0FEFC2246394687
:10062400284601F0F9FC05964FF4881306930796C3
:1006340005A9284601F000FC22460221062001F00B
:100644006DFF062001F07AFF0BB0BDE8F08F00BF0C
:10065400003802400000024000080240000402404A
:1006640000B583B000210191094B1A6B42F40012CA
:100674001A631B6B03F400130193019B0A461020B9
:1006840001F04CFF102001F059FF03B05DF804FBAA
:100694000038024072B6FEE7052800D97047F8B565
:1006A4000446294B53F82060284B53F820703046F9
:1006B400FFF73CFF0546264B1A68D36823F4007302
:1006C400D360244801F0D5FD224B93F83530DBB2DA
:1006D400012BF9D105B901251F4B1D601B68013B96
:1006E4001B48C36000F004FD38BB1B4B1B68184853
:1006F40002685B085363002100F0EEFEF8B933464C
:10070400164A3946134801F07FFDD0B9104B1A68D8
:10071400D36843F40073D360114B1C60012000F0D4
:100724004DFA022000F04AFA0E4800F03BFA0E4B54
:1007340053F8240000F036FAF8BDFFF7ABFFFFF7DB
:10074400A9FFFFF7A7FF00BF642700087C27000864
:10075400DC000020340000202C0000203C04004079
:1007640030000020142700084C27000808B501F0C9
:1007740049FF0E4B1B68C31AC72B12D90B4B1860C9
:100784000B4B186801300B4BA3FB00239B0803EBB6
:100794004303A0EB4300FFF77FFF012001F044FC7B
:1007A40008BD012001F040FCFAE700BF280000204A
:1007B40030000020ABAAAAAA00B58FB000230A9388
:1007C4000B930C930D930393049305930693079350
:1007D400089309930193029335484FF080420260D5
:1007E40043604FF0FF32C26083600361836100F0B5
:1007F4007FFC002850D14FF480530A930AA92C4857
:1008040000F0DCFD002849D1294800F09DFC0028B7
:1008140046D10022039204920592079203A9244828
:1008240000F022FD00283DD100230193029301A989
:100834001F4800F055FF002836D1002300931D4ABD
:10084400116B41F400111163126B02F40012009257
:10085400009A1948194A02604FF0C062426040226F
:100864008260C3604FF4806202614FF400624261AF
:100874004FF4005282614FF48072C2614FF400322F
:100884000262436201F05AFC80B9094A0A4B53627E
:100894009A630FB05DF804FBFFF7FCFEFFF7FAFE66
:1008A400FFF7F8FEFFF7F6FEFFF7F4FEFFF7F2FEA0
:1008B400DC00002000380240340000208860024040
:1008C40000B58FB000230A930B930C930D930393FD
:1008D4000493059306930793089309930193029352
:1008E40019481A4A02604360836040F6FF72C2608E
:1008F4000361836100F0FCFBE8B94FF480530A9371
:100904000AA9114800F05AFDB8B90F4800F048FC94
:10091400A8B9602303930023049305930793082243
:1009240003A9094800F0CFFC58B9074800F082FA3F
:100934000FB05DF804FBFFF7ADFEFFF7ABFEFFF76A
:10094400A9FEFFF7A7FE00BF9400002000040040AA
:1009540000B595B03422002107A801F0A0FE0023C1
:10096400029303930493059306930093194A116C1D
:1009740041F080511164126C02F080520092009A8E
:10098400019315490A6822F4404242F480420A6005
:100994000A6802F440420192019A0222079201225B
:1009A4000A9210220B920D9307A801F023F868B95C
:1009B4000F2302930021039104910591069102A84B
:1009C40000F0D4FE20B915B05DF804FBFFF762FE19
:1009D400FFF760FE003802400070004008B501F0E7
:1009E400EBFDFFF7B5FFFFF7BFFDFFF739FEFFF79C
:1009F400E3FEFFF765FF08210F4800F0EFFD08B1A3
:100A0400FFF748FE0020FFF747FE00F05FF91420CF
:100A140001F0FEFD012000F0D1F8022000F0CEF834
:100A2400064800F0BFF8064B1A68064B53F822003C
:100A340000F0B8F830BFFDE7940000201427000848
:100A4400300000204C27000882B000EB4000002357
:100A5400019304E000BF00BF019B01330193019B9C
:100A64008342F7D302B0704710B51420FFF7ECFFB0
:100A7400094CA36943F40043A3611420FFF7E4FF86
:100A8400A36943F00043A3611420FFF7DDFFA369CA
:100A940043F40043A36110BD0008024010B50446AE
:100AA4003D4A936943F48043936110F0800F41D130
:100AB4003A4A936943F00043936114F0400F40D0E5
:100AC400364A936943F48053936114F0200F3ED067
:100AD400334A936943F40073936114F0100F3CD0CC
:100AE4002F4A936943F480739361FFF7BDFF14F0B9
:100AF400080F38D0294A936943F40043936114F0F2
:100B0400040F36D0254A936943F48053936114F05B
:100B1400020F34D0224A936943F40073936114F0B2
:100B2400010F32D01E4A936943F480739361FFF737
:100B34009BFF10BDA2F50062936943F400439361E7
:100B4400BBE7164A936943F080539361BDE7144AA7
:100B5400936943F000739361BFE7114A936943F0CB
:100B640080739361C1E70D4A936943F00043936135
:100B7400C5E70A4A936943F080539361C7E7084A7B
:100B8400936943F000739361C9E7054A936943F09D
:100B940080739361CBE700BF00080240000002406D
:100BA4000004024038B50546002403E0FFF776FF51
:100BB4000134E4B2285D0028F8D138BD10B50446EC
:100BC4003F4A936943F08043936110F0800F45D10D
:100BD4003C4A936943F00043936114F0400F44D0BE
:100BE400384A936943F48053936114F0200F42D040
:100BF400354A936943F40073936114F0100F40D0A5
:100C0400314A936943F480739361FFF72DFF14F025
:100C1400080F3CD02B4A936943F40043936114F0CA
:100C2400040F3AD0274A936943F48053936114F034
:100C3400020F38D0244A936943F40073936114F08B
:100C4400010F36D0204A936943F480739361FFF710
:100C54000BFF40F6B830FFF7F7FE10BDA2F50062B7
:100C6400936943F400439361B7E7164A936943F0E9
:100C740080539361B9E7144A936943F00073936115
:100C8400BBE7114A936943F080739361BDE70D4A52
:100C9400936943F000439361C1E70A4A936943F0BF
:100CA40080539361C3E7084A936943F000739361E7
:100CB400C5E7054A936943F080739361C7E700BFB2
:100CC40000080240000002400004024008B5194B2D
:100CD4001A6B42F001021A631A6B42F002021A63A1
:100CE4001A6B42F004021A63134A136843F08243F6
:100CF400136002F58062136843F4A023136002F5C5
:100D04008062136843F0A043136047F23050FFF74A
:100D14009BFE3320FFF752FF3220FFF74FFF0C20DA
:100D2400FFF74CFF2820FFF749FF0120FFF746FF9C
:100D340008BD00BF0038024000000240FEE7FEE7A5
:100D4400FEE7FEE7FEE770477047704708B501F01D
:100D54004DFC08BD08B5024801F09EFA08BD00BF6D
:100D64003400002082B0002100910B4B5A6C42F4F5
:100D740080425A645A6C02F480420092009A0191B3
:100D84001A6C42F080521A641B6C03F08053019376
:100D9400019B02B0704700BF0038024010B582B01A
:100DA4000368B3F1804F04D01E4A93422CD002B0A2
:100DB40010BD0446002300931B4A116C41F001014D
:100DC4001164126C02F001020092009A1748184A4A
:100DD40002604FF0C06242608360C3604FF480627F
:100DE40002614FF4805242614FF480428261C361D8
:100DF4000362436201F0A2F918B90C4B63629C636D
:100E0400D5E7FFF747FCF8E700230193064B1A6C7C
:100E140042F002021A641B6C03F002030193019B6B
:100E2400C5E700BF00040040003802403400002041
:100E34008860024000B587B00023019302930393B6
:100E44000493059302680E4B9A4202D007B05DF8F2
:100E540004FB002300930B4B1A6B42F002021A634B
:100E64001B6B03F002030093009B012301930223F5
:100E74000293059301A9044800F0DEFFE6E700BFF2
:100E840000040040003802400004024030B4036A09
:100E9400026A22F0010202624268846924F0730C3F
:100EA4000C6844EA0C0423F0020C8B6843EA0C033C
:100EB400114DA84203D005F58065A84205D123F061
:100EC4000803CD682B4323F004030B4DA84203D041
:100ED40005F58065A84207D122F440724D6945EAC0
:100EE400020C8A6942EA0C02426084614A684263E5
:100EF400036230BC704700BF0000014030B4036A95
:100F0400026A22F4807202624268C46924F0730C9B
:100F14000C6844EA0C0523F400738C6843EA042348
:100F2400114CA04203D004F58064A04206D123F4FE
:100F34000063CC6843EA042323F480630A4CA04290
:100F440003D004F58064A04207D122F440524C69D6
:100F540042EA04128C6942EA04124260C5614A689A
:100F6400C263036230BC70470000014030B4036ABE
:100F7400026A22F4805202624468C26922F4E642A0
:100F84000D6842EA052223F400538D6843EA0533D1
:100F9400094DA84203D005F58065A84204D124F484
:100FA40080444D6944EA85144460C2614A6802641D
:100FB400036230BC704700BF0000014010B4036AF4
:100FC400046A24F001040462846924F0F00C4CEAFD
:100FD400021223F00A030B43826103625DF8044B9F
:100FE400704710B4036A046A24F01004046284692C
:100FF40024F4704C4CEA023223F0A00343EA0113B8
:10100400826103625DF8044B7047836823F07003C8
:101014000B4343F007038360704770477047000039
:101024000368324A904212D0B0F1804F0FD0A2F53B
:101034007C4290420BD002F58062904207D002F5C8
:101044008062904203D002F57842904203D123F0AB
:1010540070034A681343254A90422AD0B0F1804F66
:1010640027D0A2F57C42904223D002F580629042C0
:101074001FD002F5806290421BD002F57842904264
:1010840017D002F57052904213D002F5806290425C
:101094000FD002F5806290420BD0A2F598329042B4
:1010A40007D002F58062904203D002F5806290423C
:1010B40003D123F44073CA68134323F080034A69BD
:1010C40013438A68C2620A688262084A904203D063
:1010D40002F58062904201D10A690263026842F01B
:1010E4000402026001224261036070470000014073
:1010F40040B310B5044690F83D30F3B1022384F8B0
:101104003D30214651F8040BFFF78AFF012384F890
:10111400463084F83E3084F83F3084F8403084F818
:10112400413084F8423084F8433084F8443084F801
:10113400453084F83D30002010BD80F83C30FFF786
:101144002DFEDBE70120704740B310B5044690F84C
:101154003D30F3B1022384F83D30214651F8040BAD
:10116400FFF75EFF012384F8463084F83E3084F8AC
:101174003F3084F8403084F8413084F8423084F8B9
:10118400433084F8443084F8453084F83D300020FE
:1011940010BD80F83C30FFF740FFDBE701207047CB
:1011A40040B310B5044690F83D30F3B1022384F8FF
:1011B4003D30214651F8040BFFF732FF012384F838
:1011C400463084F83E3084F83F3084F8403084F868
:1011D400413084F8423084F8433084F8443084F851
:1011E400453084F83D30002010BD80F83C30FFF7D6
:1011F40015FFDBE70120704730B4036A026A22F06E
:10120400100202624468826922F4E6420D6842EAEE
:10121400052223F020038D6843EA0513114DA842EB
:1012240003D005F58065A84206D123F08003CD687C
:1012340043EA051323F040030A4DA84203D005F501
:101244008065A84207D124F440644D6944EA8504CA
:101254008D6944EA8504446082614A68826303625A
:1012640030BC70470000014090F83C30012B28D07E
:1012740010B50446012380F83C300C2A1CD8DFE862
:1012840002F0071B1B1B0C1B1B1B111B1B1B16003B
:101294000068FFF7FBFD00200FE00068FFF7ACFFDC
:1012A40000200AE00068FFF729FE002005E000683E
:1012B400FFF75CFE002000E00120002384F83C30AE
:1012C40010BD0220704738B590F83C30012B66D031
:1012D40004460D46012380F83C300C2A5AD8DFE836
:1012E40002F0075959591B59595930595959440051
:1012F4000068FFF7CBFD2268936943F0080393610C
:101304002268936923F0040393612268936929692D
:101314000B43936100203EE00068FFF76DFF2268F5
:10132400936943F4006393612268936923F48063AF
:10133400936122689369296943EA01239361002038
:1013440029E00068FFF7DAFD2268D36943F0080357
:10135400D3612268D36923F00403D3612268D3697B
:1013640029690B43D361002015E00068FFF7FEFDF7
:101374002268D36943F40063D3612268D36923F4F8
:101384008063D3612268D369296943EA0123D36165
:10139400002000E00120002384F83C3038BD022006
:1013A400FCE710B4846824F47F4C42EA03220A4325
:1013B40042EA0C0282605DF8044B704790F83C30BE
:1013C400012B78D010B50446012380F83C30022369
:1013D40080F83D300268936823F47F4323F0770359
:1013E40093600B68602B4CD023D8402B54D011D879
:1013F400202B03D00AD80BB1102B05D11946206835
:10140400FFF703FE002028E0012026E0302BF5D072
:10141400012022E0502B0AD1CA6849680068FFF70E
:10142400CDFD50212068FFF7F0FD002015E00120DC
:1014340013E0B3F5805F3AD0B3F5005F14D0702B9E
:1014440037D1CB684A6889680068FFF7AAFF226829
:10145400936843F0770393600020012384F83D30C0
:10146400002384F83C3010BDCB684A688968006862
:10147400FFF797FF2268936843F48043936000204A
:10148400EBE7CA6849680068FFF7ABFD6021206894
:10149400FFF7BBFD0020E0E7CA6849680068FFF772
:1014A4008DFD40212068FFF7B0FD0020D5E7002026
:1014B400D3E70120D1E70220704701F01F014FF06C
:1014C400010C0CFA01FC036A23EA0C030362036AAD
:1014D4008A4013430362704710B504460846002946
:1014E40042D194F83E30DBB2013B18BF0123002BFC
:1014F4006ED1002851D1022384F83E3001220146E6
:101504002068FFF7DAFF2368334A934203D002F5D9
:101514008062934203D15A6C42F400425A642368B5
:101524002D4A934249D0B3F1804F46D0A2F57C4274
:10153400934242D002F5806293423ED002F580622B
:1015440093423AD002F57842934236D002F5705273
:10155400934232D0A2F5943293422ED01A6842F0CC
:1015640001021A60002032E0042908D008290DD0B5
:1015740094F84130DBB2013B18BF0123B7E794F87C
:101584003F30DBB2013B18BF0123B0E794F8403091
:10159400DBB2013B18BF0123A9E7042805D00828C2
:1015A40007D0022384F84130A8E7022384F83F30AF
:1015B400A4E7022384F84030A0E79A6802F0070207
:1015C400062A07D01A6842F001021A60002010BDF2
:1015D4000120FCE70020FAE70000014010B50446B2
:1015E4000846002942D194F83E30DBB2013B18BFD3
:1015F4000123002B6ED1002851D1022384F83E3000
:10160400012201462068FFF758FF2368334A9342BA
:1016140003D002F58062934203D15A6C42F4004233
:101624005A6423682D4A934249D0B3F1804F46D07F
:10163400A2F57C42934242D002F5806293423ED0AE
:1016440002F5806293423AD002F57842934236D052
:1016540002F57052934232D0A2F5943293422ED0C6
:101664001A6842F001021A60002032E0042908D00E
:1016740008290DD094F84130DBB2013B18BF012397
:10168400B7E794F83F30DBB2013B18BF0123B0E762
:1016940094F84030DBB2013B18BF0123A9E70428CA
:1016A40005D0082807D0022384F84130A8E7022394
:1016B40084F83F30A4E7022384F84030A0E79A6816
:1016C40002F00702062A07D01A6842F001021A60E3
:1016D400002010BD0120FCE70020FAE700000140D3
:1016E40090F83C20012A3DD010B40346012280F832
:1016F4003C20022280F83D2002685068946820F063
:10170400700C086840EA0C0050601A68164882425F
:101714001AD0B2F1804F17D0A0F57C40824213D08A
:1017240000F5806082420FD000F5806082420BD0C9
:1017340000F57840824207D000F57050824203D011
:10174400A0F59430824204D124F0800449682143F6
:101754009160012283F83D20002083F83C005DF86D
:10176400044B70470220704700000140002800F03D
:101774009B8070B50D4604464F4B1B6803F00F0366
:101784008B4208D2CBB24C4A1370136803F00F0398
:101794008B4240F08B80236813F0020F17D013F0B4
:1017A400040F04D0454A936843F4E05393602368DC
:1017B40013F0080F04D0414A936843F460439360E4
:1017C4003E4A936823F0F003A1680B4393602368B7
:1017D40013F0010F32D06368012B21D09A1E012A25
:1017E40025D9364A126812F0020F61D033498A684B
:1017F40022F0030213438B6000F004FF06462F4BD4
:101804009B6803F00C036268B3EB820F16D000F000
:10181400F9FE801B41F288339842F0D9032042E05C
:10182400264A126812F4003FE0D101203BE0234A2B
:10183400126812F0007FD9D1012034E01E4B1B68DE
:1018440003F00F03AB4207D9EAB21B4B1A701B68B3
:1018540003F00F03AB422DD1236813F0040F06D01D
:10186400164A936823F4E053E1680B4393602368BA
:1018740013F0080F07D0114A936823F460432169D9
:1018840043EAC103936000F021F80C4B9B68C3F357
:1018940003130B4AD35CD8400A4B18600A4B1868F0
:1018A40000F064FE002070BD012070470120FAE7BB
:1018B4000120F8E70120F6E7003C0240003802402E
:1018C400C4E20108080000200400002008B5464BCB
:1018D4009B6803F00C03082B05D00C2B43D0042B7E
:1018E4007FD1424819E0404B5A6802F03F025B68DE
:1018F40013F4800F12D03C4B5968C1F388113B4854
:101904000023A1FB0001FEF77BFC374B5B68C3F3AC
:10191400014301335B00B0FBF3F008BD324B586860
:10192400C0F388104FEA401CBCEB000C6EEB0E0EAB
:101934004FEA8E1343EA9C634FEA8C11B1EB0C011E
:1019440063EB0E03DB0043EA5173C90011EB000C97
:1019540043F10003990200234FEA8C2041EA9C5191
:10196400FEF74EFCD1E7204B5A6802F03F025B6859
:1019740013F4800F10D01C4B5968C1F388111B4815
:101984000023A1FB0001FEF73BFC174B5B68C3F38C
:101994000273B0FBF3F0C0E7134B5868C0F3881030
:1019A4004FEA401CBCEB000C6EEB0E0E4FEA8E139C
:1019B40043EA9C634FEA8C11B1EB0C0163EB0E0319
:1019C400DB0043EA5173C90011EB000C43F100033F
:1019D400990200234FEA8C2041EA9C51FEF710FC47
:1019E400D3E7034899E700BF0038024040787D01FF
:1019F4000024F400002800F0018270B582B004468F
:101A0400036813F0010F41D0994B9B6803F00C035A
:101A1400042B32D0964B9B6803F00C03082B27D081
:101A2400934B9B6803F00C030C2B59D06368B3F5FC
:101A3400803F5BD0B3F5A02F5ED08D4B1A6822F4A3
:101A440080321A601A6822F480221A606368002BBC
:101A54005CD000F0D7FD0546854B1B6813F4003FAE
:101A640014D100F0CFFD401B6428F5D90320CCE14C
:101A74007F4B5B6813F4800FD2D07D4B1B6813F44B
:101A8400003F03D06368002B00F0BA81236813F091
:101A9400020F60D0764B9B6813F00C0F4AD0744B46
:101AA4009B6803F00C03082B3FD0714B9B6803F039
:101AB4000C030C2B69D0E368002B75D06D4B01220D
:101AC4001A6000F09FFD0546694B1B6813F0020F76
:101AD40061D100F097FD401B0228F5D9032094E161
:101AE400634B5B6813F4800FA0D0C6E7604A1368A9
:101AF40043F480331360A9E75D4B1A6842F48022F3
:101B04001A601A6842F480321A609FE700F07AFD86
:101B14000546574B1B6813F4003FB7D000F072FD25
:101B2400401B6428F5D903206FE1514B5B6813F423
:101B3400800FBAD14E4B1B6813F0020F03D0E36839
:101B4400012B40F05F814A4A136823F0F8032169AE
:101B540043EAC1031360236813F0080F49D0636993
:101B6400002B33D0434B0122C3F8802E00F04AFDF2
:101B740005463F4B5B6F13F0020F3AD100F042FD74
:101B8400401B0228F5D903203FE1394B5B6813F46D
:101B9400800F90D1CEE7364A136823F0F803216909
:101BA40043EAC1031360D6E7324B00221A6000F007
:101BB40029FD05462E4B1B6813F0020FCBD000F015
:101BC40021FD401B0228F5D903201EE1294B0022E8
:101BD400C3F8802E00F016FD0546254B5B6F13F00D
:101BE400020F06D000F00EFD401B0228F5D9032099
:101BF4000BE1236813F0040F76D01D4B1B6C13F01C
:101C0400805F33D100230193194B1A6C42F0805248
:101C14001A641B6C03F080530193019B0125164B3E
:101C24001B6813F4807F29D0A368012B3AD0052BBD
:101C34003ED00F4B1A6F22F001021A671A6F22F07E
:101C440004021A67A368002B3CD000F0DBFC0646B4
:101C5400074B1B6F13F0020F45D100F0D3FC801B20
:101C640041F288339842F3D90320CEE00025D6E729
:101C74000038024000004742007000406B4A13687D
:101C840043F48073136000F0BDFC0646674B1B6889
:101C940013F4807FC8D100F0B5FC801B0228F5D96D
:101CA4000320B2E0624A136F43F001031367C9E7EC
:101CB4005F4B1A6F42F004021A671A6F42F0010276
:101CC4001A67BFE700F09EFC0646594B1B6F13F0E2
:101CD400020F08D000F096FC801B41F28833984232
:101CE400F3D9032091E0EDB9A369002B00F08C80B7
:101CF4004F4A926802F00C02082A54D0022B17D0E3
:101D04004C4B00221A6600F07DFC0446484B1B68CD
:101D140013F0007F45D000F075FC001B0228F5D9B4
:101D2400032072E0424A136C23F080531364DBE710
:101D3400404B00221A6600F065FC05463C4B1B68CC
:101D440013F0007F06D000F05DFC401B0228F5D99B
:101D540003205AE0E369226A1343626A43EA821366
:101D6400A26A5208013A43EA0243E26A43EA02637E
:101D7400226B43EA02732E4A53602E4B01221A66E9
:101D840000F040FC04462A4B1B6813F0007F06D188
:101D940000F038FC001B0228F5D9032035E00020B0
:101DA40033E0002031E0012B31D0214B5B6803F498
:101DB4008001E26991422CD103F03F02216A8A42F8
:101DC40029D1616A47F6C0721A40B2EB811F24D14F
:101DD40003F44031A26A5208013AB1EB024F1ED11A
:101DE40003F07062E16AB2EB016F1AD103F0E043D1
:101DF400226BB3EB027F16D1002006E0012070476E
:101E0400012002E0012000E0002002B070BD0120AA
:101E1400FBE70120F9E70120F7E70120F5E70120BE
:101E2400F3E70120F1E70120EFE700BF0070004075
:101E3400003802400000474200230F2B00F2E380E9
:101E440070B582B065E085684FEA430E032404FA56
:101E54000EF425EA0405CC6804FA0EF42C438460DD
:101E6400446824EA02044A68C2F300129A402243F6
:101E740042605CE0DC08083450F8242003F00705D5
:101E8400AD004FF00F0E0EFA05FE22EA0E0E0A699F
:101E9400AA4042EA0E0240F824205CE0062200E058
:101EA400002202FA0EF22A430234574D45F8242048
:101EB400564A94686FEA0C0224EA0C054E6816F43C
:101EC400801F01D04CEA0405504CA560E46802EA86
:101ED40004054E6816F4001F01D04CEA04054B4C6F
:101EE400E560646802EA04054E6816F4003F01D018
:101EF4004CEA0405454C6560246822404D6815F49D
:101F0400803F01D04CEA0402404C226001330F2B85
:101F140077D801229A400C6804EA020C32EA0404DD
:101F2400F4D14C6804F00304013C012C8BD94A68B9
:101F340002F00302032A09D0C4685D000322AA4008
:101F440024EA02048A68AA402243C2604A6802F072
:101F54000302022A8ED004684FEA430E032202FAD7
:101F64000EF224EA02044A6802F0030202FA0EF2B4
:101F7400224302604A6812F4403FC7D00022019213
:101F8400234A546C44F480445464526C02F48042F6
:101F94000192019A9C08A51C1B4A52F8255003F093
:101FA400030E4FEA8E0E0F2202FA0EF225EA020504
:101FB400184A90423FF474AF02F58062904216D002
:101FC40002F58062904214D002F58062904212D0F1
:101FD40002F58062904210D002F5806290420ED0E9
:101FE40002F5806290423FF459AF072259E701227B
:101FF40057E7022255E7032253E7042251E705225B
:102004004FE702B070BD704700380140003C01400A
:1020140000380240000002400AB18161704709049F
:10202400816170477047000008B5054B5B69034246
:1020340000D108BD024B5861FFF7F4FFF9E700BF78
:10204400003C014030B405682C6824F480242C60E2
:10205400046863608368402B05D003689960036853
:10206400DA6030BC704703689A600368D960F8E7A7
:1020740010B40368D9B210390A4AA2FB014212090A
:10208400094CA25CC2655F2907D96FF309030433C5
:102094008365806D5DF8044B70476FF309038365B6
:1020A400F7E700BFABAAAAAABCE20108836A826967
:1020B40092B9012B0AD0022B02D00BB10020704739
:1020C400C36A13F0807F28D100207047C36AB3F13C
:1020D400C07F24D000207047B2F5005F09D0022BE6
:1020E40025D9032B25D1C36A13F0807F23D1002087
:1020F4007047032B03D8DFE803F01404140A00200C
:102104007047C36A13F0807F0DD100207047C36A03
:10211400B3F1C07F09D0002070470120704701202F
:10212400704701207047012070470120704701204B
:1021340070470020704701207047000070B50446C6
:1021440000F060FA002C5BD00546022384F8353099
:10215400002384F834302268136823F001031360E9
:1021640023681A6812F0010F0AD000F04BFA431BDF
:10217400052BF5D920236365032084F8350070BD51
:102184001A68204911406268A0680243E06802436B
:102194002069024360690243A0690243E069024383
:1021A400206A02430A43616A04291ED01A60266821
:1021B400756925F00705636A1D43042B07D1A36ADB
:1021C4001D43E36A1BB12046FFF770FF90B97561A8
:1021D4002046FFF74DFFE26D3F23934083600020CC
:1021E4006065012384F83530C9E7E16A206B014357
:1021F4000A43DBE740236365012084F83500BEE72A
:102204000120BCE73F8010F038B50446856D90F896
:10221400340001282BD0012084F8340094F83500D0
:10222400C0B2012804D0002384F83430022038BD21
:10223400022084F83500002060652046FFF702FF85
:10224400E26D3F239340AB602268136843F01603AA
:102254001360236C23B12268136843F008031360EE
:102264002268136843F0010313600020DFE70220B3
:10227400DDE790F83530DBB2022B03D080234365D1
:1022840001207047052380F835300268136823F075
:102294000103136000207047F0B583B004460023A7
:1022A4000193724B1D68724BA3FB0535AD0A876D14
:1022B4003E68C26D08239340334210D003681A6805
:1022C40012F0040F0BD01A6822F004021A60C26DD7
:1022D40008239340BB60436D43F001034365E26D03
:1022E40001239340334209D02268526912F0800FCF
:1022F40004D0BB60636D43F002036365E26D0423A5
:102304009340334209D02268126812F0020F04D0BD
:10231400BB60636D43F004036365E26D1023934077
:10232400334224D02268126812F0080F1FD0BB6019
:1023340023681A6812F4802F0DD01B6813F4002F41
:1023440004D1236C9BB12046984710E0A36C73B171
:10235400204698470BE01A6812F4807F03D11A686C
:1023640022F008021A60236C0BB120469847E26DF4
:1023740020239340334255D02268126812F0100F84
:1023840050D0BB6094F83530DBB2052B0ED02368F7
:102394001A6812F4802F33D01B6813F4002F2AD14B
:1023A400636C002B3ED0204698473BE022681368BC
:1023B40023F0160313602268536923F080035361EA
:1023C400236CA3B12268136823F008031360E26D41
:1023D4003F239340BB60012384F83530002384F805
:1023E4003430236D002B3FD0204698473CE0A36C4B
:1023F400002BE7D1EBE7E36BA3B12046984711E04C
:102404001A6812F4807F09D11A6822F010021A6047
:10241400012384F83530002384F83430E36B0BB1A6
:1024240020469847636DFBB1636D13F0010F17D01D
:10243400052384F835302268136823F00103136000
:10244400019B01330193AB4204D823681B6813F04A
:10245400010FF5D1012384F83530002384F834309A
:10246400E36C0BB12046984703B0F0BD0800002090
:10247400B5814E1B002807DB00F01F024009012331
:102484009340024A42F82030704700BF00E100E068
:10249400002808DB0901C9B200F1604000F5614081
:1024A40080F80013704700F00F000901C9B2014B16
:1024B4001954704714ED00E000B500F00700C0F1B6
:1024C400070CBCF1040F28BF4FF0040C031D062BAE
:1024D4000FD9C31E4FF0FF3E0EFA0CF021EA0001A3
:1024E40099400EFA03FE22EA0E0241EA02005DF868
:1024F40004FB0023EEE70000074AD36823F4E063FB
:102504001B041B0C000200F4E060034343F0BF63B0
:1025140043F40033D360704700ED00E010B5044687
:10252400054BD868C0F30220FFF7C6FF01462046DA
:10253400FFF7AEFF10BD00BF00ED00E008B5FFF7E8
:1025440099FF08BD0138B0F1807F0BD24FF0E02332
:102554005861054AF02182F823100020986107226F
:102564001A6170470120704700ED00E010B5044681
:102574000E4B1A784FF47A73B3FBF2F30C4A1068DB
:10258400B0FBF3F0FFF7DEFF68B90F2C01D901208F
:102594000AE0002221464FF0FF30FFF7BFFF054B52
:1025A4001C60002000E0012010BD00BF00000020DE
:1025B400080000200400002008B50B4B1A6842F400
:1025C40000721A601A6842F480621A601A6842F44F
:1025D40080721A600320FFF78FFF0F20FFF7C6FFFA
:1025E400FEF7C0FB002008BD003C0240034A11680E
:1025F400034B1B780B441360704700BF2401002079
:1026040000000020014B1868704700BF240100201F
:1026140038B50446FFF7F6FF0546B4F1FF3F02D094
:10262400044B1B781C44FFF7EDFF401BA042FAD378
:1026340038BD00BF00000020034AD2F8883043F4BC
:102644007003C2F88830704700ED00E0DFF834D042
:10265400FFF7F2FF0C480D490D4A002302E0D4585D
:10266400C4500433C4188C42F9D30A4A0A4C0023D8
:1026740001E013600432A242FBD300F019F8FEF724
:10268400ADF9704700000220000000200C0000207B
:10269400E4E201080C00002028010020FEE70244C7
:1026A4000346934200D1704703F8011BF9E7000089
:1026B40070B50D4D0D4C641BA4100026A64209D123
:1026C4000B4D0C4C00F018F8641BA4100026A64215
:1026D40005D170BD55F8043B98470136EEE755F82F
:1026E400043B98470136F2E7DCE20108DCE201082A
:1026F400DCE20108E0E20108F8B500BFF8BC08BC60
:102704009E467047F8B500BFF8BC08BC9E467047AB
:10271400576176653A20000053696E650000000039
:10272400547269616E676C65000000005361770044
:102734005069616E6F000000477569746172000032
:102744004472756D000000001C270008242700084F
:1027540030270008342700083C27000844270008D5
:102764006C0000006C0000006C0000007049000068
:102774007049000070490000E4E1010834E00108F8
:102784000CE10108544D010874BA000894270008AC
:10279400E707E707E707E707E707E707E707E707C5
:1027A400E707E707E707E707E707E707E707E707B5
:1027B400E707E707E707E707E707E707E707E707A5
:1027C400E707E707E707E707E707E707E707E70795
:1027D400E707E707E707E707E707E707E707E70785
:1027E400E707E707E707E707E707E707E707E70775
:1027F400E707E707E707E707E707E607E707E70766
:10280400E707E607E707E707E707E707E707E70755
:10281400E807E707E607E707E807E707E607E70744
:10282400E707E807E707E707E707E707E807E80731
:10283400E707E707E807E507E507E807E607E70727
:10284400E907E707E807E607E707E707E407E70715
:10285400E707E807E507E607E607E407E607E5070D
:10286400E907E807E607EA07E707E307E707E607F4
:10287400E607E807E807E807E707E707E607E807E2
:10288400E807E807E607E607E807E907E507E607D4
:10289400E807E907E907E807E807E807E907E707BA
:1028A400E807EA07EA07E507E907EA07E807E707A9
:1028B400E707E607E807E707E707E907E907E8079F
:1028C400E407E707E507E607EA07E807E507E60799
:1028D400E507E607E807E807E707E807E607E60786
:1028E400E307E807E807E907EA07EB07E807E8076B
:1028F400E907E707E907E707E607E507E707E70763
:10290400E607E607EB07E707E707E607E707E80751
:10291400EA07E507EA07E307E907E207E407E70749
:10292400D1071707F4065507200789072C088308E1
:102934003B08050774064806A5062F08ED07970807
:102944005509F9084E08280773071707EE07A80862
:10295400EA08FB083B086D07D706D006E306D8074C
:10296400B007CD08BB0964097B088A0722072E0635
:10297400BD0666074E087A08B0087B08D807CF065C
:1029840069069907E80697085E09B8090D0A1D0942
:1029940089096709900765068206CA06F806F405E0
:1029A40078060A044203160569049A0595079308F4
:1029B4006A09E60ACC09C8085F0DCD0CAC0C4E0FB1
:1029C400470F2F0FE30FF60E140EED0E6A0D440C95
:1029D400F409EF091308960671042F0382045C02BC
:1029E4004E00BB00E2004800880027005F00120090
:1029F4004D001C0038002E005E00AD008600BA01B8
:102A04006903CE05BF08B00A0A0C4A0D860D190EDB
:102A14008A0EE50EB00EF50E580E530EC60E800E3D
:102A24008A0FF80EA30FA70E260E330DD20A5509EE
:102A3400F206A10433027901EA000101E800E8008A
:102A4400E400C800FD009F0086008F0088006F002E
:102A54005B008E000801D9025904BC05F607B809C9
:102A6400DC0A620C320E2B0FB80F8E0FAB0F9B0FCC
:102A74009E0FA10FA30F950F9B0FA30F9C0FA40FE5
:102A84009B0FA80FA10F630F680E630D8D0C9F0B96
:102A9400C80A9209A408AB07380614054204AA031D
:102AA40091022A02E701BC018E01BE01F001280255
:102AB4006102FA022D03D4026103B403FE03060586
:102AC400C1066007D4075C085809B709290A990A9E
:102AD400290BA20A9C0948095D087408EB079F07A3
:102AE4001B07540682055E04A4033303F7025D0248
:102AF4006301F600270182016F01E501BE01620155
:102B0400A5018401E101A9010B0213022E02B30203
:102B140036032E03B303C60425056A0593052C0664
:102B24007E06810620067B06A5065E06300687061D
:102B340058063D0623062106C0055305A805AD0524
:102B440029065406D10611071E07FC061C07FA06BF
:102B54007F079B072D07D7065E068D06C906E1068B
:102B64001507C807A20773073C0791074B077A07A5
:102B74009307A007ED07C80720086E08FA08640940
:102B8400160A5F0AA30ABC0A700B9C0BE50B8B0C9C
:102B9400C50CF80CF80CAC0DEE0D410EAE0EEB0EA0
:102BA400000F880E8E0EC80EC90E1E0F690F8F0FF0
:102BB400A20F9A0F970FA70F990FA00FA10FA20FA3
:102BC4009F0FA90FA10FA60F930FAD0F9B0FAB0F74
:102BD400770F0B0FE50EB70EF10ED80E710ECD0D5B
:102BE400910DE30CCA0CA60C300CC00B440BCA0AA2
:102BF400A60AB40A430A4A0A460A3B0AF109D80952
:102C040092095D09FE081609DF089408E208C8085D
:102C1400D708C008B6089808BF08FB08E9080A09DD
:102C240024091B091C09BB086F0870086A082908D5
:102C3400D9077F07A506BE0534058104BB03FD0241
:102C4400130207014B002E0029002C002B002D003D
:102C54002A002B002B002A002B0030002C002B0014
:102C640028002B0028002A0029002A0028002A0016
:102C740029002900290028002B0028002E00260006
:102C840033001F007100F2004C016B01F2013E029F
:102C940097024503B703DC03EA039804CF04320523
:102CA400B8056406CF0628077307F6077508B70842
:102CB400EA08F4085A098C09DB09C409F8094A0A24
:102CC400490A000A320A400A430A5B0A240A540ADF
:102CD400260A150AE109B70993099409A709C7093E
:102CE400A109AB09D209C109E009E6092D0A2E0A96
:102CF400150A370A6F0A870AB50AF90AEF0AE30ABE
:102D04000A0B590B860BD50B2E0C480C900C890C16
:102D1400940CB20CF70C1A0D090D290DEB0CEF0CE9
:102D2400F20CE60CF20CD60CC70C930C8C0C550C64
:102D34004F0C3C0C2D0C4C0C2B0C420C1D0C310C70
:102D44002F0C400C480C470C530C7B0C770C8F0C4D
:102D5400A30CC10CDE0CE60C550D520D3C0D370DC9
:102D64007E0D590D130DE60CDB0CB30CA30C570CA4
:102D7400090CDA0B750B2F0BE90AB10A420AE209B6
:102D84005B09C8083108E8076D07E6067806FF0501
:102D94005D05E30497045C041004B7036C03F402B8
:102DA400C802A802A302860275025602350249022D
:102DB4002B025102920294029F029002AC02C002C2
:102DC400E702020332035A038803BF03F103360404
:102DD4005E04A804C704F504230561057805B70556
:102DE400CA05D8050706200625064A069806C90618
:102DF400F006F6061F073E075E077907B407E807E3
:102E0400190837084A086B088C08CB08D108D7087A
:102E1400E108D408FC08FD08F008F808F608FC08E6
:102E2400EE08E708EC08F508F208CA08C0088F089D
:102E34006B084F0829080808D407BC078C076607E5
:102E44004407300721070307F306F606F9060907C6
:102E540019072B07320757075C0762079807B00763
:102E6400CB07EC07010821083C0841084A08690817
:102E74007A088508AE08C208C408C908DC08D9085D
:102E8400C808B3089B0892088E08700861085E0899
:102E94005308490834083E08390834083E083708FE
:102EA4002F0839084A084808670877088C089208E8
:102EB4009408B308BD08D508D108DA08ED08F0086D
:102EC4000A0932094B094709480950094D094F09B4
:102ED4005909560954093F094009370910090909D4
:102EE4000309F908D008C608C808BD08B308AD0826
:102EF4009F088808870880087208680873086208B1
:102F04005D0858085B084A083C0830082A0842084B
:102F1400500853084B085F0855085F0865086308A4
:102F24005F085908620863085D08580841083708B3
:102F340032081E08210813080E08F107E207CC071F
:102F4400B407A0077F077607500735071E07FB065F
:102F5400DD06BB0691066B064B0637060106EA053D
:102F6400BC05840554051B05F204C004AC048104AB
:102F7400790459043F042E041E0416040B04180497
:102F84001E0432044204520462047C049A04BC0405
:102F9400E104FF041C0549056B059405C505EE0510
:102FA4000D062A06500671069306BB06E4060207C0
:102FB4001407330743074B0763077B079307A907E6
:102FC400BC07BF07D007E407E607EE07FF071708AB
:102FD4002608490865087C0894089B08BB08D9089A
:102FE400FB080D0936094F0964098809A009BE09BF
:102FF400D109F309030A220A370A510A5D0A700A41
:10300400820A8A0A980AA20AA90AB20AC20ABD0A4C
:10301400B90AAE0AA50A950A850A6F0A600A4F0A18
:103024003A0A1E0A0D0AF409DB09C809B309A00902
:1030340083097A095D0954093F0935092B092309D4
:103044001D090D091B091E0926092A093F094609FC
:1030540052095F096C0979098A0996099809AB092B
:10306400AC09B609B509BD09BF09C409C909C7092D
:10307400C409BA09B609AD09A509910982096B0900
:103084004E092C091009F008CB08AE088D086B080E
:10309400430822080508ED07D107B20790076F0718
:1030A400570745072A0712070007F106E106CC0671
:1030B400B806A2068F068106740663065A064E06F3
:1030C4003F062A061A060A06F605E105D205CB05CF
:1030D400BF05B2059A058E057F056E055D054C0595
:1030E4003D0533052A051D051B05140514050C05AE
:1030F4000D050C0514051F052E053C054405540556
:103104006205770585059905AD05C605DB05F3055B
:1031140006061B063006460660067B069506A706CD
:10312400B806C306D406E206F206FF060D07190721
:1031340020072A07390747074F0756075D07670720
:10314400750785079607A707BA07CA07D807EF07C1
:1031540003081B083A085C087B089B08BC08D908CC
:10316400F4080C0924093B095B0977099209AA09A7
:10317400C509D809E809F9090E0A240A2E0A3F0AE2
:103184004D0A550A580A5E0A5B0A550A530A4B0A45
:10319400410A370A2B0A1F0A140A020AF609E4092B
:1031A400D009BD09AC099A098609750960094B095A
:1031B4003709230911090009ED08E108D408C008FA
:1031C400B108A60897088C0880087508680857088D
:1031D40045083A082F08200813080408F707E807E9
:1031E400DD07CE07C407BA07AC079A078A077E072C
:1031F4007107690762075C075007430739072F0700
:10320400270722071F071E071D071A071A071A0791
:103214001E072107230726072B0733073807400714
:103224004607490749074C07500754075B075D07E2
:103234005E07630766076A076D07730776077C07EF
:1032440084078C0797079B07A507AB07B407BC0740
:10325400C507D007E007EE07F807020809081708B2
:1032640019081E0825082F08320832082D082908D5
:103274002B08290821081D0821081C081508040822
:103284000108FA07F207E207D007C807BB07AD0732
:103294009F0799078C07830775076D0765075E0706
:1032A4005C07550752074E07470748074607470775
:1032B4004C074A074A07470749074D074D07510777
:1032C40057075E0760075E07600761075E075C07D4
:1032D4005E07610760075C075D07580755075307DA
:1032E40050074B074F0750074E074E074C07500730
:1032F40050074F0751075807600764076A076F07AD
:103304007107770783078D0793079D07A307A8070E
:10331400AA07B107B807B607BC07C407C707CC0795
:10332400D107D407DA07DA07DC07DD07E107E80786
:10333400EB07F307F907FE0707080D081308180839
:103344001E08250831083A0848084F085D086E0829
:103354007E0886089F08B508C908DA08E008FE0850
:10336400F7081E09230933093A09400964094E097B
:1033740053097C0997098A0979098F0994098D09E8
:10338400A00983097B0964097A097A0986098309F2
:1033940072097D095E0947093F09550951094C091C
:1033A4005209480927095909430927091609100927
:1033B4000309E708270907090309F908DA08C20815
:1033C400AC08AE089B08920867084F082108050856
:1033D400CF07AC07A907780779076C076807460782
:1033E4001807F906C206D006BD06B706C606B80613
:1033F400A106800690067B0661062D0624061806A3
:1034040013061D0611060406D005CB05B605B7053F
:10341400B705D805C205A505B505AF05BF05B205B5
:10342400CB05CD05C205DC05D005F3052006100645
:103434000806F80538063906350675067006770657
:103444006F06A306B506AA06C806D006EE06000750
:103454001D07160723071E0730076C07720782072C
:103464009307C007BE07B107C007DF07ED070B08C6
:103474003408260818083A085E086B087B08870891
:1034840099089A08B408E008F008F408DE08EB0884
:103494000C0909091C092B0940093809390946098D
:1034A400540942094C094D0935093F095609700967
:1034B4007109780979096B0950095F095C095F0989
:1034C4005D096509590954095B094F0948093D0912
:1034D40030093609490947092A0916092109080941
:1034E4000F0930091C0910090F090809FE0805090C
:1034F4001A09FF08F808F708F408E808F208FB08B6
:10350400DB08C808C208A6089E0894087D08690854
:10351400420839081D081008FD07CC07AF079F07AC
:103524008E078A07860774075607460730071D0764
:103534001E0719071607FD06E406CF06C406C906CA
:10354400BC06B906B206A5069D069706950688062A
:103554007F06890689068206880688068A06880602
:1035640088068206830685067F068C0689069006F1
:103574009B069606AC06AC06A806B306C006D006A3
:10358400DB06F706050702070F071E072C073B0794
:1035940061077207790792079D07B607C007D60728
:1035A400D107D907FA070B08110825083D08330885
:1035B400390845085108590867086F087F088908C1
:1035C40097089408A308A5089F08B108A908AA08A1
:1035D400A608AC08A908AB08AC08A808A908A20862
:1035E4009F08A7089D08A3089E089C0892088808BD
:1035F40095088A088F088208800885086E0869087B
:1036040060085F08600851085208450841083108FD
:1036140023081B0809080E0809080008F707EE0725
:10362400E907D707D407CE07B707B207AC07AA073D
:10363400AD07A9079A078F078F07850786077D07B8
:10364400760773076E076D076507620761075E07F4
:1036540050074C0749073E0747074D0745074607EC
:103664003D073E07350736073A073B074707440738
:103674005007490743073B073F074F0759076307AD
:1036840068076C0775077C07880792079B07A607DE
:10369400B007C007CA07DE07E407EE07F607060807
:1036A4001A0827083E084A0856085C0868086B0888
:1036B400730883088C089308A308AD08B708BC08EE
:1036C400C308BC08B308C408C308CD08C908D10896
:1036D400D308D608D808CA08D108CB08C908C60830
:1036E400BD08BD08B808B008AE08A108A908A1081B
:1036F400A0089A0891088B087E0880087608770845
:103704006D086B085C0855085508500843083508CF
:103714002B081D081B0811080D080408FD07EC07F9
:10372400E107CF07C507B807B007AA079E0799079F
:1037340090079007810776076D0765075C075907AF
:1037440055074E07450745073C0730072E07250751
:10375400210718071E071B071E0718070B070C076E
:103764000A070607000704070507050705070207F8
:10377400FF060107FF06FC06FE0600070007030715
:103784000F070B070C0711071A071C0727072F073A
:1037940034073C073B0745074807530754075D07B1
:1037A40068076F07790778077E07860789079107F7
:1037B4009E07AB07B907BF07CC07CE07D507E007BD
:1037C400E707F407F7070508080817082408270877
:1037D40031083508400847084F0857085F0867084C
:1037E400720871087E088308810887088D08950887
:1037F4009608A1089D08A508A708AD08A808AE0862
:10380400AD08B008BC08B808BD08B808C108BC08B1
:10381400BF08BD08BC08BD08BB08BA08B508AE0897
:10382400AE08AF08A908AB08A4089F0899089A082D
:1038340090088C0883087C087B08740874086D0859
:10384400690865085D08510846083A0831082B08DC
:103854002A0825081F08190810080A080108000882
:10386400FA07F907F507F007EA07E507DE07D607C1
:10387400D407CC07C707C007BC07B507B007A8071C
:10388400A5079E07A0079B0795078F078907890748
:103894007F077B07720771076C0769076307600777
:1038A400590752074E07490741073D0739073307B0
:1038B400340730072F072D072E072A072C072D075B
:1038C4002D072B07310737073407330734073C0725
:1038D4003C0742074907500755075B07630766071C
:1038E4006E0777077E07870792079707A207A70740
:1038F400B007B807BD07C407C607CF07D307D90762
:10390400DD07E607F007F80701080B080F0813089E
:103914001B08210827082A082F08330838083E08FE
:1039240043084408480849085008540855085908E9
:103934005F08620862086408660864086A0869081F
:10394400660867086808680861085F085C085D081D
:1039540057085208540854084F084C0848084708A8
:1039640042083E083908340834082E082A08250875
:1039740020081A081A0812080C080908FF07FA0791
:10398400F307F007E807E507DE07D807D407CE07F3
:10399400C807C507BF07B907B307AF07A807A1073B
:1039A4009D07980792078E0790078C078B07860759
:1039B40085078307800780078207820782078507B8
:1039C4008407870785078507840786078A078D0785
:1039D40091079107970796079907A007A407AA07D5
:1039E400AF07B707BC07C007C607C507C707CB079C
:1039F400D107D707DC07E207E507EC07EE07F00776
:103A0400F207F707FE0703080B080D08130815084B
:103A14001708190820082308240829082D082F0846
:103A24002E083008300831083208360838083908BA
:103A34003A08390836083808360837083708390884
:103A44003D083A083B0837083608330831082E0881
:103A54002F082E082B082C082808260824082208DA
:103A64001F0820081A0818081B0818081708130844
:103A740012080E080D0806080108FD07FB07F807E1
:103A8400F207F107EF07EE07E807E807E307DC07AB
:103A9400D707D207CE07CA07C407C207C107BB07A7
:103AA400BB07BB07B707B307B107AC07A807A40751
:103AB400A1079E079C079907950794079207920709
:103AC40091078F078C078D078F078F079107920740
:103AD4009307900790078F078F078F078F078F072C
:103AE40090079507950799079E07A407A507A807B8
:103AF400AA07AD07B007B007AF07B207B407B2070C
:103B0400B507BC07BD07C107C807CA07D207D30753
:103B1400D807D907DF07E307E507EB07EF07F60741
:103B2400F807FD07030806080A080C080E080F0822
:103B34001408150818081E081F0820082408290856
:103B440029082B082A082B082C08280828082608E6
:103B540028082A08260827082708250823082508EE
:103B640020081F081F081908190819081A08170837
:103B740017081108150812080E0810080C080C087C
:103B84000A080A08080808080808070807080708B0
:103B940009080608060806080508060804080508B2
:103BA40007080508040805080308FE07FE070208BD
:103BB400FF07FB07F907F807F907F907F907F30700
:103BC400F107F407F407F007EF07EF07EA07E9073F
:103BD400E607E207E107E007DC07E007E007D907AB
:103BE400D707D407D007CF07D107D007C807C40722
:103BF400C307C107C507C607C207B907B607BA078F
:103C0400B707B607B807B407AF07B007AF07B007E1
:103C1400AF07AE07AA07A807A907AB07AE07AA070D
:103C2400AB07AE07AE07AB07AD07B007B207B407E3
:103C3400B407B007B107B207B107B607B807BB07A7
:103C4400BD07BD07BC07BD07BF07BF07C107C20744
:103C5400C007C107C407C607C707C407C307C60709
:103C6400CB07CE07D007D207D107CE07CF07D60799
:103C7400DB07DE07DE07DE07DF07E007E407E70709
:103C8400E707E607E807E707EB07F007F007F2079F
:103C9400F407F907FA07000804080108FF070508F4
:103CA4000B080A080C081208100810081508170851
:103CB4001A081C081E081F082208200825082908BD
:103CC400270827082A082A082B0830082F0835084F
:103CD40034083508340833083208360838083608FA
:103CE40038083608340831083308310830082F08FA
:103CF4002F082C082A082A082A082B082608220834
:103D040020081D081A0819081508120811081008B7
:103D14000D080908080806080208FC07FA07F7074F
:103D2400F207EE07E907E507E007DC07DB07D8073A
:103D3400D407CF07CC07C807C607C307BF07BC070C
:103D4400BB07BA07B707B507B307B007AC07A8079F
:103D5400A607A607A507A107A207A2079E079C0717
:103D64009E079F079E079E079C079C079D079C072D
:103D74009C079E079E079E079E07A007A107A10711
:103D8400A007A007A307A507A607A607A807AA07D1
:103D9400AD07AF07B207B507B607B607B907BD0742
:103DA400BE07C107C507C607C607C807C907CA07AC
:103DB400CE07D207D207D407D607D807DA07DC071D
:103DC400DD07DE07E107E607E907EA07EA07EA078E
:103DD400EC07ED07EF07F007F207F307F507F8071D
:103DE400FA07FD070008030804080608080809087C
:103DF400080808080A080B080B080D080E08100824
:103E040010081208140811081208110810080E08E6
:103E14000F080F080E0810081108100810081008E1
:103E24000F080F080D080A08090807080408030802
:103E34000208030805080508040802080208000827
:103E4400FD07FB07F807F607F507F207F107F10787
:103E5400EF07F007F007ED07EB07EA07E907E807C4
:103E6400E907E707E507E607E607E707E707E407E3
:103E7400E207E007DF07DD07DE07DE07DC07DB0715
:103E8400DC07DD07DC07D907D907D807D607D6072B
:103E9400D707D507D307D207D207D307D207D3074B
:103EA400D507D707D607D707D607D507D507D50728
:103EB400D607D707DA07DC07DD07E007E107E207E3
:103EC400E207E507E607E707E707E907ED07ED0778
:103ED400F007F107F607F607F707F707F707F607FE
:103EE400F907F807FA07FB07FD07000800080508AB
:103EF400050809080C080B0805080C08FC070A0843
:103F04000B08080803080C0813081508FE0707081F
:103F1400F70713080D08EC072008EA07F507F1076F
:103F240026081D080D080208060818080F08D207FD
:103F3400C507A507B507A107E0074B08D4075E0826
:103F44008E076D07A807BB07F107E7077A0829085A
:103F54004008FA0771077907D407A507E607C707DA
:103F6400EA07230896072307E106D307CC07B3071C
:103F7400D0073009AA099108A908FC07D106A406AC
:103F84003507820796074C088308750744075806C7
:103F9400D30697060707AB088708EC09BB09330962
:103FA4006A099208B8068A06980657079F064606C5
:103FB400140643035C04070584048F061E08E908FD
:103FC400FF09FC0AAE08860AFC0DFF0BFB0D7B0FF4
:103FD400230F710FE90F310EAC0E6A0E130D560B41
:103FE400CB0981092E070F065003D00303043E01B9
:103FF40040000401770070005A003F004E0020008A
:1040040059001000500017009D008700DF0069026E
:1040140040040507B809250B9E0C730DB00D500E16
:10402400B80ED70EB30EE00E090EB00E730EF00EDE
:10403400650F1F0F860F2C0E240E1A0C3D0A6B08F9
:104044000A068003C1014201D3000D01D300ED0033
:10405400CA00E600E300880088008A007F005E0052
:104064006B00AA00AC01A203CC04A006CF08430A4B
:104074006C0B480DB50E7E0FB70F920FB10F900F5A
:10408400A20F9C0F9F0F8C0FA30F930FA50F920FDE
:10409400960F9F0F900F030FDC0DF50C1B0C3A0BC2
:1040A400390A190950080607B505AC040D04320392
:1040B4005A021102D401AA019801DB01F90151024B
:1040C40093024E0307031A03A603DD035504D80520
:1040D40034079A070E08CB089209DF09640ABE0A5E
:1040E4002E0B050A7E09C8084E085208AA077E0747
:1040F400B8060906FD04030460030D03CE02E401BF
:104104001601F500510175018601F801700187015E
:104114008D01B001D301BF012B020A026702F20232
:104124004E033D033B04FD0453057305D5055B06AF
:104134008E0656062F06A7069206450655069206D3
:10414400430646061B06140677057C05A405DA0516
:1041540046067C06F30618071107FC060B071A0728
:10416400B2075E070C0797066506A306E506E30695
:104174006A07CD078F07520759078E074307A7071A
:104184007E07D507DA07ED073D08AF082909B0090E
:104194003C0A7E0AAB0AF30AA40B990B3B0CA00C55
:1041A400EB0CE70C320DDC0D000E7C0EC60E080F76
:1041B400D50E760EB10EC70EE20E470F820F970F83
:1041C400A30F930FA20FA10F9B0FA50FA10FA20F77
:1041D400A10FA40FA00F9E0F980FAD0F980FAD0F56
:1041E400440F020FC90ED20EF30EC20E2C0EBA0DDE
:1041F400560DC00CD60C6C0C090C850B140B9D0AC7
:10420400B70A800A320A480A420A190ADD09C309B0
:1042140079093509F8081B09A808B908E108C8088C
:10422400D908B908AE089908E608FA08F10825097A
:10423400200922090009950872087A0857080E080F
:10424400BE0739073E068005F6042B046C03A00262
:10425400A401A20034002C002A002C0028002A000B
:104264002C002C002C002A002C002F0028002A00EF
:1042740029002D0028002B0029002B0027002C00EA
:1042840029002C0029002F0026002F0026002D00D5
:104294002A003200A80022015A0197012502530284
:1042A400E3027C03DC03CC032F04BD04E9046705AB
:1042B400FD059D06EF064C079B073A088B08DB08B3
:1042C400E90822097109B309E109CA09270A5A0A46
:1042D4002D0A030A4E0A2F0A5E0A3D0A370A460AC5
:1042E400190A070AC909AA098E099B09B309C10950
:1042F4009709C909C609D309E009FE093C0A200A3D
:104304001D0A4F0A7E0A920AD50AFD0AE60AEE0A37
:10431400260B700B9C0B040C360C630C930C810C59
:104324009F0CC20C140D070D1C0D130DDD0CFB0CA2
:10433400E30CEF0CE40CCD0CAD0C890C760C400CAA
:104344004F0C260C400C370C340C350C1E0C360C60
:10435400310C470C410C4A0C5E0C7D0C6F0CA00C0C
:10436400A00CD50CCE0C130D5B0D410D2F0D500D73
:104374007C0D2D0DF90CDA0CCB0CA00C8E0C2A0C38
:10438400FD0BAA0B550B0D0BD50A840A1C0AAC09AC
:10439400200984080C08BF072F07BB064906C2057D
:1043A4001D05C5047D044504E403A0033903DD02AF
:1043B400BA02A4029F027D0273024102400240023B
:1043C4002E02750295029D0295029502B502CA025B
:1043D400F2020E03480363039F03CC0310043E045C
:1043E4007C04B704D60404053D056C058B05C8059B
:1043F400C805ED050F0626062B066D06AC06DE067F
:10440400F30604072E074B076A078F07CF07FD073C
:1044140028083E085B087608A908D408CF08E008F5
:10442400D808E0080309F208F308F508F708F708C4
:10443400E608E808EE08F808E008C508AF087908B7
:1044440063083C081F08F107C907A907790758073B
:1044540039072B071507F906F306F60600070E07BA
:1044640022072D073E07610756077907A707B907F3
:10447400DA07F5070D082F083F08420855087408A5
:104484007A089508BB08C408C608D208DF08D20811
:10449400C208A9089508940884086608620859089F
:1044A40052083F0835084008330839083D083308E6
:1044B4002E0843084808520871087D0894088D089E
:1044C400A208B808C708D708D108E508ED08F70816
:1044D4001B0942094B0946094D0950094C09560963
:1044E400580957094E093A09440924090A090709D0
:1044F4000109E908C508C908C308BA08AF08AA0829
:104504009308880885087C086B086D086E085D08A8
:104514005B085808580840083A0828083308470830
:1045240055084C0853085D08540865086308630877
:1045340059085D08640860085B085108390839089F
:1045440027081F081C0811080508E607DD07BE0731
:10455400B00790077C076A0741072D071007EE068E
:10456400D106A90682065C0645062306F205DF0588
:10457400A005740539050C05DA04B7049B047A0414
:10458400710449043A0424041D040E0410041A049A
:1045940025043A0449045A046C048904A704CC048D
:1045A400F00409052F055A057A05AA05D805FD0565
:1045B40018063A065F067F06A406CE06F3060A0727
:1045C40021073E07460755076E0786079C07B20773
:1045D400BF07C307DC07E607E807F4070A081D0856
:1045E400320858086C0889089608A608C808E8081C
:1045F40003091A094609530976099009AE09C50940
:10460400E009FB090F0A2D0A410A590A620A7B0ACA
:10461400840A910A9C0AA60AAA0ABB0AC10ABC0A0D
:10462400B60AAB0A9F0A8E0A7D0A680A5A0A470A22
:104634002F0A150A050AE709D409BD09AE0991092B
:1046440080096E0956094E093709340924092509D8
:10465400120912091D0920092709310945094909C7
:104664005A09630973097F0993099509A109AD09D9
:10467400B009B809B709C009BF09C909C709C709F9
:10468400BF09B909B209AB099E098A097B095F0907
:1046940041091F090509E008BF08A0087F085A0856
:1046A40035081608FB07E207C407A4078207640756
:1046B40050073B071F070B07F906EB06D806C3068E
:1046C400AF069A0689067D066C065E065506480600
:1046D4003706220614060106ED05D905CF05C605E1
:1046E400BA05A805930589057705670555054605A7
:1046F4003705300524051C051705130512050B05A0
:104704000E050D051A05230536053E054A0559050E
:104714006B057D058C05A105B605CF05E405FC05F3
:104724000E062406380651066A0687069D06AF065D
:10473400BC06C906DA06E906F806040714071C07CE
:104744002407300740074B075207590761076C07D6
:104754007C078C079D07AF07C107CE07E107F80761
:104764000C082808480869088808A908C908E50841
:10477400FE0816092D094809670982099C09B5092B
:10478400CF09DF09F009010A190A290A350A460A7C
:10479400520A570A5B0A5F0A580A540A510A470A1E
:1047A4003D0A330A260A1C0A0C0AFD09F009DB0932
:1047B400C809B609A50991097F096D095709430973
:1047C4002E091B090A09F708E708DC08CC08B90810
:1047D400AD08A008920887087B086F0861084F0895
:1047E4003F08360828081B080D08FF07F007E307F1
:1047F400D607C907C007B407A40792078507780737
:104804006D0766075F0757074A073F0734072B07FB
:10481400240720071E071E071C0719071A071B0772
:1048240020072207240727072E0735073B074307DE
:10483400470749074A074E07510757075D075D07B2
:104844006007650768076B077007750777078007B8
:104854008607910799079F07A807AE07B807BF0700
:10486400C907D607E707F107FD0704080F08190869
:104874001A08210829083108320831082A082A08A8
:104884002A0827081D081F081F081A080F0801080E
:104894000008F607EE07D807CD07C207B507A70734
:1048A4009D07940789077E0771076B0761075E07F9
:1048B4005907540751074A07470748074507490757
:1048C4004C074A07490746074B074D074E0753074E
:1048D4005A0760075F075F07610760075D075D07A9
:1048E4005F0762075F075D075C07570754075207B6
:1048F4004E074B0751074E074E074D074D0750070C
:104904004F074F0753075B07610766076C076F077D
:1049140072077A0787078F0796079F07A407A807D8
:10492400AA07B407B607B707BF07C507C707CE0767
:10493400D107D607DA07DA07DD07DD07E507E90758
:10494400ED07F707FB0703080A08100815081B08FA
:1049540021082B08360840084D08540865087508D6
:1049640083088D08AB08BA08D508D808EF08FC08F6
:104974000209280923093D09340955095E094A0930
:1049840061098B0995097F097C0998098A099609A7
:1049940095097D0972096709800979098E097609E3
:1049A4007B09720954093F09480957094E094B0903
:1049B4005409320937095C092D0924090809130926
:1049C400E90802092409F9080809E708D308B40822
:1049D400B108A5089A0883085C083E081308F7077D
:1049E400B607B207940775077707680765072E07A8
:1049F4001007E006C306D106B006C306C106B40616
:104A04008F0685068D0670064D06210625060D06C1
:104A14001B0615061206EB05CB05C305B205B40546
:104A2400C005DB05A905AD05AE05B605BA05B50596
:104A3400D305C105CD05D905D2050F061B060F0602
:104A4400FE050B064806290654067606710674060A
:104A54007C06B606A906B706CB06D906F4060C07EB
:104A64001C07140725071A074D07700775078507E4
:104A7400A407C707B507B307CB07E707F307200861
:104A840032081B081F084C086408720880088D0847
:104A940097089E08C808E808F308EC08DA08FC0838
:104AA4000A090F09220935093E0935093D094D094D
:104AB4004F093F0954094009360945096609710936
:104AC4007509790977095D09530961095B09600969
:104AD4006009640952095A0956094C0945093809FB
:104AE4002D093F094B093E091D091C091A0903092F
:104AF40021092E09130911090B090509FC081109DB
:104B04001209F808F908F408F008E808FB08F008A6
:104B1400CF08C708B7089E08A0088908790858086C
:104B24003F08310813080F08EA07BD07A9079807CB
:104B34008C078907800768074D07400726071D076C
:104B44001B0719070F07F106DC06C706C606C506CC
:104B5400B906B706AB06A1069A0696068F06820624
:104B640082068B06850684068806880689068806DA
:104B7400850680068606800684068C0687069706C8
:104B840095069D06B106A806AD06B606C706D30669
:104B9400E50601070307050715072307310749073A
:104BA4006D07720785079507A707BB07C907D807CD
:104BB400CE07E80702080E08150833083A08330838
:104BC4003E084B0854085F086B08750883088F0873
:104BD40097089608A9089D08A808AE08A808A80878
:104BE400A608AC08A908AC08A908A808A8089E0843
:104BF400A308A4089E08A4089B089B0888088F089B
:104C040091088B088D087D0886087C086A08670867
:104C14005C086308580852084F0842083F082908EE
:104C2400220813080A080F080408FD07F207ED0715
:104C3400E207D307D507C307B307B007AA07AB0733
:104C4400AD07A407930790078B07840784077907A8
:104C5400770770076E076A076307610761075907DB
:104C64004C074D0744073F074D07490745074307CE
:104C74003C073C0731073A0738074207450748070E
:104C84005007450740073A07460753075E0766077C
:104C94006A077007780780078E079407A107A9079A
:104CA400B807C407D207E307E707F307FA071108B1
:104CB4001D08310844084F08590861086B086C083E
:104CC4007B0888088E089908A808B108BA08BE08A5
:104CD400C408B308BA08C408C608CE08C908D50869
:104CE400D108DB08D008CC08D008C808C908C20815
:104CF400BC08BC08B308B108A708A308A8089D0805
:104D0400A00894089208830880087C087608740830
:104D14006B0868085608570854084D083C083208C0
:104D240024081D08170810080A080108F707E707F0
:104D3400DB07C907C107B207AF07A4079D0795079B
:104D440090078C077B077207690761075A075807A2
:104D540052074A0744074407350730072907240741
:104D64001C071A071F071B071E0711070B070B0752
:104D740009070307010706070507050705070107D4
:104D8400FF060207FD06FD06FF06010700070907E7
:104D940010070A070D0716071C071E072D07300703
:104DA40039073B073F0746074C0755075607640773
:104DB4006A07750779077907820788078B079707BA
:104DC400A307B107BC07C407CF07CF07DB07E20778
:104DD400EE07F507FD0708080C08200825082D082C
:104DE4003308390844084A0853085B0863086D0807
:104DF400730875088408810884088808920895084F
:104E04009B08A008A008A708A908AD08A808B1082D
:104E1400AB08B708BA08BB08BB08BB08C108BB0885
:104E2400C008BB08BD08BB08BC08B708B308AD0878
:104E3400B008AC08AA08A908A2089C089908970811
:104E44008D088A087E087C087708740871086B0846
:104E54006708620858084C08410835082F082A08D2
:104E6400290823081D0814080E0805080008FE0771
:104E7400F807F807F207EE07E707E207D907D507AF
:104E8400D007C907C407BE07B907B307AC07A6070D
:104E9400A2079D079F07970793078A078A07840736
:104EA4007D07760770076F076A07670761075E0764
:104EB400540750074B0746073E073B0735073207A1
:104EC400320730072E072C072C0729072D072D073B
:104ED4002C072C07340736073407330738073C07F9
:104EE4003E0745074B07530756075F0764076907E3
:104EF40072077A0781078D0795079B07A507AA07FD
:104F0400B407B907C107C407CA07D107D507DB0728
:104F1400E007EA07F407FB0705080D081008160860
:104F24001D08240828082C083108350839084108C8
:104F34004308460848084B085308550856085C08B7
:104F44006108620863086608650866086B086708F4
:104F5400670867086908650860085E085C085B08FC
:104F640054085308550852084D084A08480846088A
:104F740040083D083608350832082C08280823085C
:104F84001D08190818080E080C080408FD07F7077F
:104F9400F207ED07E607E307DB07D607D107CB07E0
:104FA400C707C307BD07B707B107AD07A407A00725
:104FB4009B0796078F078F078E078B07890785073F
:104FC4008507810780078007830781078307840794
:104FD4008507860785078507830788078A078F075C
:104FE40090079307970796079C07A207A607AC07A5
:104FF400B207BA07BD07C307C607C607C907CD0767
:10500400D407D907E007E307E807EE07EF07F2073D
:10501400F307FB07000807080D0810081508160811
:1050240018081B082308230827082B082F082F0813
:1050340030083008310832083308380839083A088B
:105044003A083808370838083608380837083C085A
:105054003B083B083A0837083508310830082E0861
:1050640030082C082C082A082708250823082108BA
:105074001F081F0817081A081A0818081508120824
:1050840010080D080B0803080008FB07FB07F507C9
:10509400F207F007EF07EB07E807E707DF07DA0790
:1050A400D507D007CC07C807C207C207BE07BB078E
:1050B400BC07BA07B507B207AF07AA07A607A30735
:1050C400A0079D079B0797079507930792079207E9
:1050D40090078E078C078E078F078F079207930719
:1050E4009207900790078E0790078E0790078E0708
:1050F4009207940796079B07A007A407A507A9078B
:10510400AB07AF07B007AF07AF07B407B307B307E1
:10511400B807BD07BD07C507C807CE07D307D5071E
:10512400D907DA07E207E307E807EC07F207F8070D
:10513400FA070108040808080B080D080E081108EE
:10514400150816081B081F081F0822082708290825
:105154002A082C082A082C082A08280828082608BF
:105164002A082808260827082708240824082408C9
:105174001E0820081C08190819081B081908170814
:105184001408120815080E080F080E080C080B085E
:105194000A08090808080808070808080708090889
:1051A400080805080708060806080508040806088C
:1051B40006080408040805080108FD070008020899
:1051C400FD07FA07F807F807F907FA07F707F107E1
:1051D400F207F507F307EF07F007ED07E907E8071C
:1051E400E407E207E107DE07DD07E107DD07D8078B
:1051F400D607D207CF07D007D207CD07C607C40703
:10520400C107C207C607C407BE07B607B707B90771
:10521400B507B707B807B107B007AF07AF07B007BF
:10522400AE07AD07A907A807A907AD07AC07AA07EA
:10523400AC07AF07AD07AA07AE07B107B307B507B9
:10524400B207AF07B207B107B307B707B907BC077F
:10525400BD07BC07BC07BE07BF07C007C207C1071D
:10526400C007C207C507C707C607C307C407C807DF
:10527400CD07CF07D107D207CF07CE07D207D9076B
:10528400DC07DE07DE07DF07DF07E207E607E707DD
:10529400E707E707E807E707EE07F007F107F20774
:1052A400F607F907FC0702080308000801080908C3
:1052B4000B080A08100813080F0812081608190822
:1052C4001A081D081E082108210822082808280891
:1052D400270828082B082A082E082F083108350823
:1052E40034083508340833083308380837083708D1
:1052F40037083608320832083208300830082F08D8
:105304002E082B082A0829082B0829082408210814
:105314001F081C081A0818081308120811080F0897
:105324000C080808070805080008FA07F907F50734
:10533400F107EC07E707E307DD07DB07DA07D60722
:10534400D207CE07CA07C607C507C107BD07BC07F2
:10535400BA07B807B607B507B207AE07AA07A70783
:10536400A607A607A307A107A207A0079C079C07F7
:105374009F079F079E079D079C079C079D079B0708
:105384009D079E079D079E079F07A107A107A107E9
:10539400A007A107A407A607A607A607A907AB07A6
:1053A400AE07B007B307B607B607B707BA07BE0715
:1053B400BF07C307C607C607C707C907C907CC077E
:1053C400D007D207D207D507D707D907DB07DC07F1
:1053D400DD07DF07E307E707EA07EA07E907EB0763
:1053E400EC07EE07EF07F007F307F407F607F907F2
:1053F400FC07FF070208040805080708090809084C
:10540400080808080C080B080C080E080F081108F7
:105414001108140812081208120811080F080E08BF
:1054240010080F080F0810081108100810081008B9
:105434000F080E080B0809080808060804080208E3
:105444000208040806080508030802080108FF0703
:10545400FC07FA07F707F607F407F107F107F00767
:10546400EF07F007EF07EC07EB07E907E807E807A2
:10547400E907E607E507E707E707E807E607E307BD
:10548400E107E007DE07DD07DE07DD07DC07DB07F2
:10549400DC07DD07DA07D907D907D707D507D60709
:1054A400D607D407D307D207D207D207D207D40727
:1054B400D607D607D707D707D507D507D507D60701
:1054C400D607D807DB07DC07DF07E007E207E207B8
:1054D400E307E507E607E707E707EB07ED07EF074D
:1054E400F007F307F607F607F607F707F607F807D6
:1054F400F807F907FA07FC07FE0700080108060881
:1055040006080A080E0807080A08050800080C0817
:105514000B08040807080C081A08080804080108FE
:10552400FF071E08F60700081308DE07F907F80747
:1055340034080C08110800080E082508E907F407C8
:105544008207AA07D207E507EB07C50732072B072F
:10555400760767068102D8004B01B8024405E105CD
:105564008C042D030C069D073F0D2A0D9A067E061A
:105574006C08B70DD10F7A0FB50F940FAB0F9A0FBC
:10558400A60FF00D100A350653036A01DB012B0543
:105594008A082E0A6D0ABA0A3007BF019C0020004F
:1055A40030002D0026003300240036001D00E600E4
:1055B400E501B6018101E202FA048107E809C40C9D
:1055C400330FB20F970FA60F9D0FA20FA10F9D0FC0
:1055D400A70F9C0FAB0F9B0FAC0F950FBA0F490F82
:1055E400140E830C0A098F059504EA0373030D0353
:1055F400A8003D003E001A00600038002D0026007F
:105604003600220037001D003D0015004500020051
:10561400FD00FA01E80230047D04A6047104A2042A
:1056240026061608720B4C0E170F940F230F9C0FAF
:10563400140F530F8A0ED20EAC0F170F710F8C0F6D
:10564400920FAB0F820F9A0FC20EB70D0A0E200AEB
:105654006308C406040863082C047A026F00F90086
:10566400F7006D0057001E00C500CF00070055006D
:10567400D4000201830175013A036B048A04AB046C
:105684006D05D2062C07EF06F4078809FA09860B84
:10569400010CB50D6F0C680B4B0B0F0C370E650D21
:1056A400BC0DA70D320FAB0F3C0F900F9F0EE20EF7
:1056B4003E0FDF0D900B2408BF07ED060F075F05B3
:1056C40021049D083A08F4077D0425032605A30256
:1056D4009C033D046E04D2022B04ED051505250739
:1056E4002C06F2066A08D5063A04770515093D0822
:1056F400FC068306D907220BB8095C074A08FC0A92
:10570400300C3E08A307480ABF0C810DBE0BC70B23
:10571400F90BAA0CC30AA30A6D0BD7075B079506FE
:1057240098076A083A068C0722075A05E3052907F1
:1057340006078E0643064F08F507DC08AA07660825
:10574400B80AEF074605B1020C043102B60105029E
:1057540050039503FA053509700A710B680A420A69
:10576400D10AD00A26091C0898087C09AC07F4075A
:1057740039096C097B0817088A0AE9096C09440984
:105784008E0AC10A7708390A89080A088A067B083A
:105794001C07CC06C6095F075607DF047F068D0683
:1057A4001E057E06AA052B05220610066006410585
:1057B4009605D3052C04B9057206B606EF055F05F8
:1057C40095071D09650AB40A810AF509B109CA08D1
:1057D4003809470896050C07D305FE0676053708F1
:1057E400ED0A52078E086409850BA106E4060F062C
:1057F4005905D50AA509C1078D0564024703EB07BE
:10580400AE077D0547048006600628072008A80720
:105814005E08ED089B081807EA070107F006EB0687
:10582400500822096407FD08EA08A108980ACF096C
:10583400FB07EB07C90A1C0C570AEE08CA07E20665
:10584400D006DF08C5091008EF07220821072A053A
:10585400A0057C05B9058305D9053C062E057A0704
:1058640071079506D105C90524061506A705F40494
:10587400F903F204930670080B08830735097A08C4
:105884004008E808C50AE3092308FA08DF0ACA0938
:105894008709090B9909DC08B608E708A20840093A
:1058A400E50A310A7809B40A460A3A0A030A77096A
:1058B4000709CF073F088D06AD065206B605310825
:1058C4001F085007C8060A07B7065A055E0586056D
:1058D400200682060C06DD05730771080D08910782
:1058E4009506F20628070A08F908E008DD08760A92
:1058F4006F0AD409710959098C09BD089E09030965
:105904005609D6087F089508AB086E096909D509B8
:105914006F093D0933099208DE08F4088807660711
:1059240091077208AD070008F50853089E07E206C0
:105934007906DF059C06F306E4060A07E007630818
:1059440077078C07E407C006C406CA06E007E50625
:1059540042071C097B09CC092E0812089008C808C4
:10596400860857085109BA0AB6091D0AC709DF098A
:10597400C309210A670A46089F09F1091D0AC508D7
:105984001008DF0790079708F00799069D06A506FB
:1059940082064707E9079E06A005EA057505CE07B6
:1059A4002D082B060905F106CE081A07C90621069B
:1059B4008906A909850ADD09B206C00461069B08A7
:1059C400EA0A310B330B2C0AF8089508B308F108DE
:1059D400C20A3F093A07B3096108B4075609F9072F
:1059E400F3078109160848077F0775070C08730732
:1059F40009072906E905E00509066906E704A40480
:105A04003D05FE045505A907AA079E062207D507EA
:105A14002708A107AE081409D8072D08E808CC0800
:105A2400F40803095F0902093909DA09840ABD0A7D
:105A3400500AA909B60822090B0986082B0865082B
:105A44001F08D307C5074507A506C3064C0730063C
:105A54003E0546058305930522067306D5051C06F7
:105A6400DF06E405F70578068C06F50600076907E6
:105A74004E078F074A076007B907BA079607040855
:105A8400A4088108BC08300925099C08CE086E09C1
:105A9400870913097909D0095309DD080D09D108CB
:105AA400EC0708085908E0070108EC073C07D00692
:105AB4004A060E06B4051206E105B3051306590697
:105AC4008E069C0696063006360630066F0691064C
