:020000040800F2
:100000000000022051260008410D0008430D0008A1
:10001000450D0008470D0008490D000800000000CC
:100020000000000000000000000000004B0D000870
:100030004D0D0008000000004F0D0008510D000894
:10004000A1260008A1260008A1260008A126000874
:10005000A1260008A126000871070008A1260008B3
:10006000A1260008A1260008A1260008A126000854
:10007000A1260008A1260008A1260008A126000844
:10008000590D0008A1260008A1260008A126000895
:10009000A1260008A1260008A1260008A126000824
:1000A000A1260008A1260008A1260008A126000814
:1000B000A1260008A1260008A1260008A126000804
:1000C000A1260008A1260008A1260008A1260008F4
:1000D000A1260008A1260008A1260008A1260008E4
:1000E000A1260008A1260008A1260008A1260008D4
:1000F000A1260008A1260008A1260008A1260008C4
:10010000A1260008A1260008A1260008A1260008B3
:10011000A1260008A1260008A1260008A1260008A3
:10012000A1260008A1260008A1260008A126000893
:10013000A12600080000000000000000A126000821
:10014000A1260008A1260008A1260008A126000873
:10015000A1260008A1260008A1260008A126000863
:10016000A1260008A1260008A1260008A126000853
:10017000A1260008A1260008A12600080000000012
:1001800000000000A12600080000000000000000A0
:10019000A12600080000000000000000A1260008C1
:1001A000000000000000000000000000A126000880
:1001B000A1260008A1260008A1260008A126000803
:0401C000A12600086C
:1001C40010B5054C237833B9044B13B10448AFF38D
:1001D40000800123237010BD0C00002000000000EB
:1001E400FC26000808B5034B1BB103490348AFF3D1
:1001F400008008BD0000000010000020FC2600085C
:1002040053B94AB9002908BF00281CBF4FF0FF3179
:100214004FF0FF3000F088B9ADF1080C6DE904CE61
:1002240000F006F8DDF804E0DDE9022304B07047CD
:100234002DE9F047089D8E4604468846002B4AD196
:100244008A42174662D9B2FA82F64EB1C6F1200349
:1002540001FA06F820FA03F3B74043EA0808B44069
:100264004FEA174E1FFA87FCB8FBFEF1230C0EFB76
:10027400118843EA084301FB0CF29A4209D9FB189E
:1002840001F1FF3080F0EA809A4240F2E7800239BF
:100294003B449A1AA3B2B2FBFEF00EFB102243EACF
:1002A400024300FB0CFC9C4509D9FB1800F1FF320A
:1002B40080F0D6809C4540F2D3803B44023840EA2B
:1002C4000140A3EB0C0300211DB1F3400022C5E95A
:1002D4000032BDE8F0878B4205D90DB1C5E90001B4
:1002E40000210846F5E7B3FA83F1002946D17345A6
:1002F40002D3824200F20581841A6EEB03020120CC
:100304009046002DE5D0C5E90048E2E7002A00F058
:100314009080B2FA82F6002E40F0A4808A1A030C70
:100324004FEA174E80B2BCB20121B2FBFEFC0EFBB9
:100334001C2243EA024304FB0CF29A4207D9FB183D
:100344000CF1FF3802D29A4200F2E080C4469B1AB4
:10035400B3FBFEF20EFB123340EA034302FB04F448
:100364009C4207D9FB1802F1FF3002D29C4200F2F2
:10037400CA8002461B1B42EA0C40A5E7C1F12006D5
:100384008B4022FA06F71F430EFA01F420FA06F313
:100394002EFA06FE4FEA1749234300FA01F81FFA22
:1003A40087FCBEFBF9F01C0C09FB10EE44EA0E447A
:1003B40000FB0CFEA64502FA01F209D93C1900F132
:1003C400FF3A80F09C80A64540F2998002383C4474
:1003D400A4EB0E041FFA83FEB4FBF9F309FB1344E8
:1003E4004EEA044403FB0CFCA44508D93C1903F170
:1003F400FF3E80F08280A4457FD9023B3C4443EA1F
:100404000040A4EB0C04A0FB02EC64457346E146F7
:1004140062D35FD05DB1B8EB030264EB090404FA64
:1004240006F622FA01F31E43CC40C5E9006400211C
:100434004FE7B1FBF2FC010C41EA0E4180B240EA05
:1004440001423B4638463C46B846BE462026B1FBF0
:10045400F7F1A2EB080241EA0C4166E7014618E70E
:1004640010462CE7C6F120022EFA02F3B740B14041
:1004740020FA02F24FEA174E0A43B3FBFEF8BCB26D
:100484000EFB1833110C41EA034108FB04F9B04098
:1004940089454FEA104380B23ED9791808F1FF3CF0
:1004A40001D289451FD8A1EB0901B1FBFEF909FB73
:1004B40004F80EFB191192B242EA0142424529D2D4
:1004C400BA1809F1FF31C4D24245C2D2A9F10201DE
:1004D4003A44BEE7F0459DD2BEEB02036CEB070C39
:1004E4000138E14696E7A7EB09094944A8F1020C53
:1004F400B1FBFEF909FB04F8DBE773467FE75046DE
:1005040066E70846FDE63B44023A33E7ACF1020CE9
:100514003B441CE749469CE7A1EB0901C446B1FBF7
:10052400FEF909FB04F8C4E7704700BF10B5810F5A
:100534008300181841F100010B0143EA1073020112
:10054400121A63EB01039B0043EA92739200500872
:1005540040EAC3705908034C001941F10001FFF748
:100564004FFE10BD0024F4002DE9F04F8BB00024A1
:10057400059406940794089409940194344B1A6BD7
:1005840042F080021A631A6B02F080020192019A0F
:1005940002941A6B42F001021A631A6B02F0010210
:1005A4000292029A03941A6B42F002021A631A6BC3
:1005B40002F002020392039A04941A6B42F00402BA
:1005C4001A631B6B03F004030493049B4FF4404B26
:1005D400CDF814B001260696DFF87CA005A9504694
:1005E40001F02AFC4FF44079CDF81490DFF86C80C8
:1005F40005A9404601F020FC4FF410470597154D1E
:1006040005A9284601F018FC22465946504601F037
:1006140003FD22464946404601F0FEFC2246394687
:10062400284601F0F9FC05964FF4881306930796C3
:1006340005A9284601F000FC22460221062001F00B
:100644006DFF062001F07AFF0BB0BDE8F08F00BF0C
:10065400003802400000024000080240000402404A
:1006640000B583B000210191094B1A6B42F40012CA
:100674001A631B6B03F400130193019B0A461020B9
:1006840001F04CFF102001F059FF03B05DF804FBAA
:100694000038024072B6FEE7052853D8F8B5044680
:1006A400294B53F82050294B53F820602846FFF774
:1006B4003DFF074600B90127254B1A68D36823F488
:1006C4000073D360234801F0D4FD224B93F83530F6
:1006D400DBB2012BF9D1204B1F601B68013B1C4886
:1006E400C36000F005FD38BB1B4B1B68184802684B
:1006F4005B085363002100F0EFFEF8B92B46174A5C
:100704003146144801F080FDD0B9114B1A68D36802
:1007140043F40073D360124B1C60012000F04EFAC6
:10072400022000F04BFA0F4800F03CFA0E4B53F84D
:10073400240000F037FAF8BDFFF7ACFFFFF7AAFF7B
:10074400FFF7A8FF704700BF642700087C27000854
:10075400DC000020340000202C0000203C04004079
:1007640030000020142700084C27000808B501F0C9
:1007740049FF0E4B1B68C31AC72B12D90B4B1860C9
:100784000B4B186801300B4BA3FB00239B0803EBB6
:100794004303A0EB4300FFF77FFF012001F044FC7B
:1007A40008BD012001F040FCFAE700BF280000204A
:1007B40030000020ABAAAAAA00B58FB000230A9388
:1007C4000B930C930D930393049305930693079350
:1007D400089309930193029335484FF080420260D5
:1007E40043604FF0FF32C26083600361836100F0B5
:1007F4007FFC002850D14FF480530A930AA92C4857
:1008040000F0DCFD002849D1294800F09DFC0028B7
:1008140046D10022039204920592079203A9244828
:1008240000F022FD00283DD100230193029301A989
:100834001F4800F055FF002836D1002300931D4ABD
:10084400116B41F400111163126B02F40012009257
:10085400009A1948194A02604FF0C062426040226F
:100864008260C3604FF4806202614FF400624261AF
:100874004FF4005282614FF48072C2614FF400322F
:100884000262436201F05AFC80B9094A0A4B53627E
:100894009A630FB05DF804FBFFF7FCFEFFF7FAFE66
:1008A400FFF7F8FEFFF7F6FEFFF7F4FEFFF7F2FEA0
:1008B400DC00002000380240340000208860024040
:1008C40000B58FB000230A930B930C930D930393FD
:1008D4000493059306930793089309930193029352
:1008E40019481A4A02604360836040F6FF72C2608E
:1008F4000361836100F0FCFBE8B94FF480530A9371
:100904000AA9114800F05AFDB8B90F4800F048FC94
:10091400A8B9602303930023049305930793082243
:1009240003A9094800F0CFFC58B9074800F082FA3F
:100934000FB05DF804FBFFF7ADFEFFF7ABFEFFF76A
:10094400A9FEFFF7A7FE00BF9400002000040040AA
:1009540000B595B03422002107A801F0A0FE0023C1
:10096400029303930493059306930093194A116C1D
:1009740041F080511164126C02F080520092009A8E
:10098400019315490A6822F4404242F480420A6005
:100994000A6802F440420192019A0222079201225B
:1009A4000A9210220B920D9307A801F023F868B95C
:1009B4000F2302930021039104910591069102A84B
:1009C40000F0D4FE20B915B05DF804FBFFF762FE19
:1009D400FFF760FE003802400070004008B501F0E7
:1009E400EBFDFFF7B5FFFFF7BFFDFFF739FEFFF79C
:1009F400E3FEFFF765FF08210F4800F0EFFD08B1A3
:100A0400FFF748FE0020FFF747FE00F05FF91420CF
:100A140001F0FEFD012000F0D1F8022000F0CEF834
:100A2400064800F0BFF8064B1A68064B53F822003C
:100A340000F0B8F830BFFDE7940000201427000848
:100A4400300000204C27000882B000EB4000002357
:100A5400019304E000BF00BF019B01330193019B9C
:100A64008342F7D302B0704710B51420FFF7ECFFB0
:100A7400094CA36943F40043A3611420FFF7E4FF86
:100A8400A36943F00043A3611420FFF7DDFFA369CA
:100A940043F40043A36110BD0008024010B50446AE
:100AA4003D4A936943F48043936110F0800F41D130
:100AB4003A4A936943F00043936114F0400F40D0E5
:100AC400364A936943F48053936114F0200F3ED067
:100AD400334A936943F40073936114F0100F3CD0CC
:100AE4002F4A936943F480739361FFF7BDFF14F0B9
:100AF400080F38D0294A936943F40043936114F0F2
:100B0400040F36D0254A936943F48053936114F05B
:100B1400020F34D0224A936943F40073936114F0B2
:100B2400010F32D01E4A936943F480739361FFF737
:100B34009BFF10BDA2F50062936943F400439361E7
:100B4400BBE7164A936943F080539361BDE7144AA7
:100B5400936943F000739361BFE7114A936943F0CB
:100B640080739361C1E70D4A936943F00043936135
:100B7400C5E70A4A936943F080539361C7E7084A7B
:100B8400936943F000739361C9E7054A936943F09D
:100B940080739361CBE700BF00080240000002406D
:100BA4000004024038B50546002403E0FFF776FF51
:100BB4000134E4B2285D0028F8D138BD10B50446EC
:100BC4003F4A936943F08043936110F0800F45D10D
:100BD4003C4A936943F00043936114F0400F44D0BE
:100BE400384A936943F48053936114F0200F42D040
:100BF400354A936943F40073936114F0100F40D0A5
:100C0400314A936943F480739361FFF72DFF14F025
:100C1400080F3CD02B4A936943F40043936114F0CA
:100C2400040F3AD0274A936943F48053936114F034
:100C3400020F38D0244A936943F40073936114F08B
:100C4400010F36D0204A936943F480739361FFF710
:100C54000BFF40F6B830FFF7F7FE10BDA2F50062B7
:100C6400936943F400439361B7E7164A936943F0E9
:100C740080539361B9E7144A936943F00073936115
:100C8400BBE7114A936943F080739361BDE70D4A52
:100C9400936943F000439361C1E70A4A936943F0BF
:100CA40080539361C3E7084A936943F000739361E7
:100CB400C5E7054A936943F080739361C7E700BFB2
:100CC40000080240000002400004024008B5194B2D
:100CD4001A6B42F001021A631A6B42F002021A63A1
:100CE4001A6B42F004021A63134A136843F08243F6
:100CF400136002F58062136843F4A023136002F5C5
:100D04008062136843F0A043136047F23050FFF74A
:100D14009BFE3320FFF752FF3220FFF74FFF0C20DA
:100D2400FFF74CFF2820FFF749FF0120FFF746FF9C
:100D340008BD00BF0038024000000240FEE7FEE7A5
:100D4400FEE7FEE7FEE770477047704708B501F01D
:100D54004DFC08BD08B5024801F09EFA08BD00BF6D
:100D64003400002082B0002100910B4B5A6C42F4F5
:100D740080425A645A6C02F480420092009A0191B3
:100D84001A6C42F080521A641B6C03F08053019376
:100D9400019B02B0704700BF0038024010B582B01A
:100DA4000368B3F1804F04D01E4A93422CD002B0A2
:100DB40010BD0446002300931B4A116C41F001014D
:100DC4001164126C02F001020092009A1748184A4A
:100DD40002604FF0C06242608360C3604FF480627F
:100DE40002614FF4805242614FF480428261C361D8
:100DF4000362436201F0A2F918B90C4B63629C636D
:100E0400D5E7FFF747FCF8E700230193064B1A6C7C
:100E140042F002021A641B6C03F002030193019B6B
:100E2400C5E700BF00040040003802403400002041
:100E34008860024000B587B00023019302930393B6
:100E44000493059302680E4B9A4202D007B05DF8F2
:100E540004FB002300930B4B1A6B42F002021A634B
:100E64001B6B03F002030093009B012301930223F5
:100E74000293059301A9044800F0DEFFE6E700BFF2
:100E840000040040003802400004024030B4036A09
:100E9400026A22F0010202624268846924F0730C3F
:100EA4000C6844EA0C0423F0020C8B6843EA0C033C
:100EB400114DA84203D005F58065A84205D123F061
:100EC4000803CD682B4323F004030B4DA84203D041
:100ED40005F58065A84207D122F440724D6945EAC0
:100EE400020C8A6942EA0C02426084614A684263E5
:100EF400036230BC704700BF0000014030B4036A95
:100F0400026A22F4807202624268C46924F0730C9B
:100F14000C6844EA0C0523F400738C6843EA042348
:100F2400114CA04203D004F58064A04206D123F4FE
:100F34000063CC6843EA042323F480630A4CA04290
:100F440003D004F58064A04207D122F440524C69D6
:100F540042EA04128C6942EA04124260C5614A689A
:100F6400C263036230BC70470000014030B4036ABE
:100F7400026A22F4805202624468C26922F4E642A0
:100F84000D6842EA052223F400538D6843EA0533D1
:100F9400094DA84203D005F58065A84204D124F484
:100FA40080444D6944EA85144460C2614A6802641D
:100FB400036230BC704700BF0000014010B4036AF4
:100FC400046A24F001040462846924F0F00C4CEAFD
:100FD400021223F00A030B43826103625DF8044B9F
:100FE400704710B4036A046A24F01004046284692C
:100FF40024F4704C4CEA023223F0A00343EA0113B8
:10100400826103625DF8044B7047836823F07003C8
:101014000B4343F007038360704770477047000039
:101024000368324A904212D0B0F1804F0FD0A2F53B
:101034007C4290420BD002F58062904207D002F5C8
:101044008062904203D002F57842904203D123F0AB
:1010540070034A681343254A90422AD0B0F1804F66
:1010640027D0A2F57C42904223D002F580629042C0
:101074001FD002F5806290421BD002F57842904264
:1010840017D002F57052904213D002F5806290425C
:101094000FD002F5806290420BD0A2F598329042B4
:1010A40007D002F58062904203D002F5806290423C
:1010B40003D123F44073CA68134323F080034A69BD
:1010C40013438A68C2620A688262084A904203D063
:1010D40002F58062904201D10A690263026842F01B
:1010E4000402026001224261036070470000014073
:1010F40040B310B5044690F83D30F3B1022384F8B0
:101104003D30214651F8040BFFF78AFF012384F890
:10111400463084F83E3084F83F3084F8403084F818
:10112400413084F8423084F8433084F8443084F801
:10113400453084F83D30002010BD80F83C30FFF786
:101144002DFEDBE70120704740B310B5044690F84C
:101154003D30F3B1022384F83D30214651F8040BAD
:10116400FFF75EFF012384F8463084F83E3084F8AC
:101174003F3084F8403084F8413084F8423084F8B9
:10118400433084F8443084F8453084F83D300020FE
:1011940010BD80F83C30FFF740FFDBE701207047CB
:1011A40040B310B5044690F83D30F3B1022384F8FF
:1011B4003D30214651F8040BFFF732FF012384F838
:1011C400463084F83E3084F83F3084F8403084F868
:1011D400413084F8423084F8433084F8443084F851
:1011E400453084F83D30002010BD80F83C30FFF7D6
:1011F40015FFDBE70120704730B4036A026A22F06E
:10120400100202624468826922F4E6420D6842EAEE
:10121400052223F020038D6843EA0513114DA842EB
:1012240003D005F58065A84206D123F08003CD687C
:1012340043EA051323F040030A4DA84203D005F501
:101244008065A84207D124F440644D6944EA8504CA
:101254008D6944EA8504446082614A68826303625A
:1012640030BC70470000014090F83C30012B28D07E
:1012740010B50446012380F83C300C2A1CD8DFE862
:1012840002F0071B1B1B0C1B1B1B111B1B1B16003B
:101294000068FFF7FBFD00200FE00068FFF7ACFFDC
:1012A40000200AE00068FFF729FE002005E000683E
:1012B400FFF75CFE002000E00120002384F83C30AE
:1012C40010BD0220704738B590F83C30012B66D031
:1012D40004460D46012380F83C300C2A5AD8DFE836
:1012E40002F0075959591B59595930595959440051
:1012F4000068FFF7CBFD2268936943F0080393610C
:101304002268936923F0040393612268936929692D
:101314000B43936100203EE00068FFF76DFF2268F5
:10132400936943F4006393612268936923F48063AF
:10133400936122689369296943EA01239361002038
:1013440029E00068FFF7DAFD2268D36943F0080357
:10135400D3612268D36923F00403D3612268D3697B
:1013640029690B43D361002015E00068FFF7FEFDF7
:101374002268D36943F40063D3612268D36923F4F8
:101384008063D3612268D369296943EA0123D36165
:10139400002000E00120002384F83C3038BD022006
:1013A400FCE710B4846824F47F4C42EA03220A4325
:1013B40042EA0C0282605DF8044B704790F83C30BE
:1013C400012B78D010B50446012380F83C30022369
:1013D40080F83D300268936823F47F4323F0770359
:1013E40093600B68602B4CD023D8402B54D011D879
:1013F400202B03D00AD80BB1102B05D11946206835
:10140400FFF703FE002028E0012026E0302BF5D072
:10141400012022E0502B0AD1CA6849680068FFF70E
:10142400CDFD50212068FFF7F0FD002015E00120DC
:1014340013E0B3F5805F3AD0B3F5005F14D0702B9E
:1014440037D1CB684A6889680068FFF7AAFF226829
:10145400936843F0770393600020012384F83D30C0
:10146400002384F83C3010BDCB684A688968006862
:10147400FFF797FF2268936843F48043936000204A
:10148400EBE7CA6849680068FFF7ABFD6021206894
:10149400FFF7BBFD0020E0E7CA6849680068FFF772
:1014A4008DFD40212068FFF7B0FD0020D5E7002026
:1014B400D3E70120D1E70220704701F01F014FF06C
:1014C400010C0CFA01FC036A23EA0C030362036AAD
:1014D4008A4013430362704710B504460846002946
:1014E40042D194F83E30DBB2013B18BF0123002BFC
:1014F4006ED1002851D1022384F83E3001220146E6
:101504002068FFF7DAFF2368334A934203D002F5D9
:101514008062934203D15A6C42F400425A642368B5
:101524002D4A934249D0B3F1804F46D0A2F57C4274
:10153400934242D002F5806293423ED002F580622B
:1015440093423AD002F57842934236D002F5705273
:10155400934232D0A2F5943293422ED01A6842F0CC
:1015640001021A60002032E0042908D008290DD0B5
:1015740094F84130DBB2013B18BF0123B7E794F87C
:101584003F30DBB2013B18BF0123B0E794F8403091
:10159400DBB2013B18BF0123A9E7042805D00828C2
:1015A40007D0022384F84130A8E7022384F83F30AF
:1015B400A4E7022384F84030A0E79A6802F0070207
:1015C400062A07D01A6842F001021A60002010BDF2
:1015D4000120FCE70020FAE70000014010B50446B2
:1015E4000846002942D194F83E30DBB2013B18BFD3
:1015F4000123002B6ED1002851D1022384F83E3000
:10160400012201462068FFF758FF2368334A9342BA
:1016140003D002F58062934203D15A6C42F4004233
:101624005A6423682D4A934249D0B3F1804F46D07F
:10163400A2F57C42934242D002F5806293423ED0AE
:1016440002F5806293423AD002F57842934236D052
:1016540002F57052934232D0A2F5943293422ED0C6
:101664001A6842F001021A60002032E0042908D00E
:1016740008290DD094F84130DBB2013B18BF012397
:10168400B7E794F83F30DBB2013B18BF0123B0E762
:1016940094F84030DBB2013B18BF0123A9E70428CA
:1016A40005D0082807D0022384F84130A8E7022394
:1016B40084F83F30A4E7022384F84030A0E79A6816
:1016C40002F00702062A07D01A6842F001021A60E3
:1016D400002010BD0120FCE70020FAE700000140D3
:1016E40090F83C20012A3DD010B40346012280F832
:1016F4003C20022280F83D2002685068946820F063
:10170400700C086840EA0C0050601A68164882425F
:101714001AD0B2F1804F17D0A0F57C40824213D08A
:1017240000F5806082420FD000F5806082420BD0C9
:1017340000F57840824207D000F57050824203D011
:10174400A0F59430824204D124F0800449682143F6
:101754009160012283F83D20002083F83C005DF86D
:10176400044B70470220704700000140002800F03D
:101774009B8070B50D4604464F4B1B6803F00F0366
:101784008B4208D2CBB24C4A1370136803F00F0398
:101794008B4240F08B80236813F0020F17D013F0B4
:1017A400040F04D0454A936843F4E05393602368DC
:1017B40013F0080F04D0414A936843F460439360E4
:1017C4003E4A936823F0F003A1680B4393602368B7
:1017D40013F0010F32D06368012B21D09A1E012A25
:1017E40025D9364A126812F0020F61D033498A684B
:1017F40022F0030213438B6000F004FF06462F4BD4
:101804009B6803F00C036268B3EB820F16D000F000
:10181400F9FE801B41F288339842F0D9032042E05C
:10182400264A126812F4003FE0D101203BE0234A2B
:10183400126812F0007FD9D1012034E01E4B1B68DE
:1018440003F00F03AB4207D9EAB21B4B1A701B68B3
:1018540003F00F03AB422DD1236813F0040F06D01D
:10186400164A936823F4E053E1680B4393602368BA
:1018740013F0080F07D0114A936823F460432169D9
:1018840043EAC103936000F021F80C4B9B68C3F357
:1018940003130B4AD35CD8400A4B18600A4B1868F0
:1018A40000F064FE002070BD012070470120FAE7BB
:1018B4000120F8E70120F6E7003C0240003802402E
:1018C4009C570008080000200400002008B5464B7F
:1018D4009B6803F00C03082B05D00C2B43D0042B7E
:1018E4007FD1424819E0404B5A6802F03F025B68DE
:1018F40013F4800F12D03C4B5968C1F388113B4854
:101904000023A1FB0001FEF77BFC374B5B68C3F3AC
:10191400014301335B00B0FBF3F008BD324B586860
:10192400C0F388104FEA401CBCEB000C6EEB0E0EAB
:101934004FEA8E1343EA9C634FEA8C11B1EB0C011E
:1019440063EB0E03DB0043EA5173C90011EB000C97
:1019540043F10003990200234FEA8C2041EA9C5191
:10196400FEF74EFCD1E7204B5A6802F03F025B6859
:1019740013F4800F10D01C4B5968C1F388111B4815
:101984000023A1FB0001FEF73BFC174B5B68C3F38C
:101994000273B0FBF3F0C0E7134B5868C0F3881030
:1019A4004FEA401CBCEB000C6EEB0E0E4FEA8E139C
:1019B40043EA9C634FEA8C11B1EB0C0163EB0E0319
:1019C400DB0043EA5173C90011EB000C43F100033F
:1019D400990200234FEA8C2041EA9C51FEF710FC47
:1019E400D3E7034899E700BF0038024040787D01FF
:1019F4000024F400002800F0018270B582B004468F
:101A0400036813F0010F41D0994B9B6803F00C035A
:101A1400042B32D0964B9B6803F00C03082B27D081
:101A2400934B9B6803F00C030C2B59D06368B3F5FC
:101A3400803F5BD0B3F5A02F5ED08D4B1A6822F4A3
:101A440080321A601A6822F480221A606368002BBC
:101A54005CD000F0D7FD0546854B1B6813F4003FAE
:101A640014D100F0CFFD401B6428F5D90320CCE14C
:101A74007F4B5B6813F4800FD2D07D4B1B6813F44B
:101A8400003F03D06368002B00F0BA81236813F091
:101A9400020F60D0764B9B6813F00C0F4AD0744B46
:101AA4009B6803F00C03082B3FD0714B9B6803F039
:101AB4000C030C2B69D0E368002B75D06D4B01220D
:101AC4001A6000F09FFD0546694B1B6813F0020F76
:101AD40061D100F097FD401B0228F5D9032094E161
:101AE400634B5B6813F4800FA0D0C6E7604A1368A9
:101AF40043F480331360A9E75D4B1A6842F48022F3
:101B04001A601A6842F480321A609FE700F07AFD86
:101B14000546574B1B6813F4003FB7D000F072FD25
:101B2400401B6428F5D903206FE1514B5B6813F423
:101B3400800FBAD14E4B1B6813F0020F03D0E36839
:101B4400012B40F05F814A4A136823F0F8032169AE
:101B540043EAC1031360236813F0080F49D0636993
:101B6400002B33D0434B0122C3F8802E00F04AFDF2
:101B740005463F4B5B6F13F0020F3AD100F042FD74
:101B8400401B0228F5D903203FE1394B5B6813F46D
:101B9400800F90D1CEE7364A136823F0F803216909
:101BA40043EAC1031360D6E7324B00221A6000F007
:101BB40029FD05462E4B1B6813F0020FCBD000F015
:101BC40021FD401B0228F5D903201EE1294B0022E8
:101BD400C3F8802E00F016FD0546254B5B6F13F00D
:101BE400020F06D000F00EFD401B0228F5D9032099
:101BF4000BE1236813F0040F76D01D4B1B6C13F01C
:101C0400805F33D100230193194B1A6C42F0805248
:101C14001A641B6C03F080530193019B0125164B3E
:101C24001B6813F4807F29D0A368012B3AD0052BBD
:101C34003ED00F4B1A6F22F001021A671A6F22F07E
:101C440004021A67A368002B3CD000F0DBFC0646B4
:101C5400074B1B6F13F0020F45D100F0D3FC801B20
:101C640041F288339842F3D90320CEE00025D6E729
:101C74000038024000004742007000406B4A13687D
:101C840043F48073136000F0BDFC0646674B1B6889
:101C940013F4807FC8D100F0B5FC801B0228F5D96D
:101CA4000320B2E0624A136F43F001031367C9E7EC
:101CB4005F4B1A6F42F004021A671A6F42F0010276
:101CC4001A67BFE700F09EFC0646594B1B6F13F0E2
:101CD400020F08D000F096FC801B41F28833984232
:101CE400F3D9032091E0EDB9A369002B00F08C80B7
:101CF4004F4A926802F00C02082A54D0022B17D0E3
:101D04004C4B00221A6600F07DFC0446484B1B68CD
:101D140013F0007F45D000F075FC001B0228F5D9B4
:101D2400032072E0424A136C23F080531364DBE710
:101D3400404B00221A6600F065FC05463C4B1B68CC
:101D440013F0007F06D000F05DFC401B0228F5D99B
:101D540003205AE0E369226A1343626A43EA821366
:101D6400A26A5208013A43EA0243E26A43EA02637E
:101D7400226B43EA02732E4A53602E4B01221A66E9
:101D840000F040FC04462A4B1B6813F0007F06D188
:101D940000F038FC001B0228F5D9032035E00020B0
:101DA40033E0002031E0012B31D0214B5B6803F498
:101DB4008001E26991422CD103F03F02216A8A42F8
:101DC40029D1616A47F6C0721A40B2EB811F24D14F
:101DD40003F44031A26A5208013AB1EB024F1ED11A
:101DE40003F07062E16AB2EB016F1AD103F0E043D1
:101DF400226BB3EB027F16D1002006E0012070476E
:101E0400012002E0012000E0002002B070BD0120AA
:101E1400FBE70120F9E70120F7E70120F5E70120BE
:101E2400F3E70120F1E70120EFE700BF0070004075
:101E3400003802400000474200230F2B00F2E380E9
:101E440070B582B065E085684FEA430E032404FA56
:101E54000EF425EA0405CC6804FA0EF42C438460DD
:101E6400446824EA02044A68C2F300129A402243F6
:101E740042605CE0DC08083450F8242003F00705D5
:101E8400AD004FF00F0E0EFA05FE22EA0E0E0A699F
:101E9400AA4042EA0E0240F824205CE0062200E058
:101EA400002202FA0EF22A430234574D45F8242048
:101EB400564A94686FEA0C0224EA0C054E6816F43C
:101EC400801F01D04CEA0405504CA560E46802EA86
:101ED40004054E6816F4001F01D04CEA04054B4C6F
:101EE400E560646802EA04054E6816F4003F01D018
:101EF4004CEA0405454C6560246822404D6815F49D
:101F0400803F01D04CEA0402404C226001330F2B85
:101F140077D801229A400C6804EA020C32EA0404DD
:101F2400F4D14C6804F00304013C012C8BD94A68B9
:101F340002F00302032A09D0C4685D000322AA4008
:101F440024EA02048A68AA402243C2604A6802F072
:101F54000302022A8ED004684FEA430E032202FAD7
:101F64000EF224EA02044A6802F0030202FA0EF2B4
:101F7400224302604A6812F4403FC7D00022019213
:101F8400234A546C44F480445464526C02F48042F6
:101F94000192019A9C08A51C1B4A52F8255003F093
:101FA400030E4FEA8E0E0F2202FA0EF225EA020504
:101FB400184A90423FF474AF02F58062904216D002
:101FC40002F58062904214D002F58062904212D0F1
:101FD40002F58062904210D002F5806290420ED0E9
:101FE40002F5806290423FF459AF072259E701227B
:101FF40057E7022255E7032253E7042251E705225B
:102004004FE702B070BD704700380140003C01400A
:1020140000380240000002400AB18161704709049F
:10202400816170477047000008B5054B5B69034246
:1020340000D108BD024B5861FFF7F4FFF9E700BF78
:10204400003C014030B405682C6824F480242C60E2
:10205400046863608368402B05D003689960036853
:10206400DA6030BC704703689A600368D960F8E7A7
:1020740010B40368D9B210390A4AA2FB014212090A
:10208400094CA25CC2655F2907D96FF309030433C5
:102094008365806D5DF8044B70476FF309038365B6
:1020A400F7E700BFABAAAAAA94570008836A82691B
:1020B40092B9012B0AD0022B02D00BB10020704739
:1020C400C36A13F0807F28D100207047C36AB3F13C
:1020D400C07F24D000207047B2F5005F09D0022BE6
:1020E40025D9032B25D1C36A13F0807F23D1002087
:1020F4007047032B03D8DFE803F01404140A00200C
:102104007047C36A13F0807F0DD100207047C36A03
:10211400B3F1C07F09D0002070470120704701202F
:10212400704701207047012070470120704701204B
:1021340070470020704701207047000070B50446C6
:1021440000F060FA002C5BD00546022384F8353099
:10215400002384F834302268136823F001031360E9
:1021640023681A6812F0010F0AD000F04BFA431BDF
:10217400052BF5D920236365032084F8350070BD51
:102184001A68204911406268A0680243E06802436B
:102194002069024360690243A0690243E069024383
:1021A400206A02430A43616A04291ED01A60266821
:1021B400756925F00705636A1D43042B07D1A36ADB
:1021C4001D43E36A1BB12046FFF770FF90B97561A8
:1021D4002046FFF74DFFE26D3F23934083600020CC
:1021E4006065012384F83530C9E7E16A206B014357
:1021F4000A43DBE740236365012084F83500BEE72A
:102204000120BCE73F8010F038B50446856D90F896
:10221400340001282BD0012084F8340094F83500D0
:10222400C0B2012804D0002384F83430022038BD21
:10223400022084F83500002060652046FFF702FF85
:10224400E26D3F239340AB602268136843F01603AA
:102254001360236C23B12268136843F008031360EE
:102264002268136843F0010313600020DFE70220B3
:10227400DDE790F83530DBB2022B03D080234365D1
:1022840001207047052380F835300268136823F075
:102294000103136000207047F0B583B004460023A7
:1022A4000193724B1D68724BA3FB0535AD0A876D14
:1022B4003E68C26D08239340334210D003681A6805
:1022C40012F0040F0BD01A6822F004021A60C26DD7
:1022D40008239340BB60436D43F001034365E26D03
:1022E40001239340334209D02268526912F0800FCF
:1022F40004D0BB60636D43F002036365E26D0423A5
:102304009340334209D02268126812F0020F04D0BD
:10231400BB60636D43F004036365E26D1023934077
:10232400334224D02268126812F0080F1FD0BB6019
:1023340023681A6812F4802F0DD01B6813F4002F41
:1023440004D1236C9BB12046984710E0A36C73B171
:10235400204698470BE01A6812F4807F03D11A686C
:1023640022F008021A60236C0BB120469847E26DF4
:1023740020239340334255D02268126812F0100F84
:1023840050D0BB6094F83530DBB2052B0ED02368F7
:102394001A6812F4802F33D01B6813F4002F2AD14B
:1023A400636C002B3ED0204698473BE022681368BC
:1023B40023F0160313602268536923F080035361EA
:1023C400236CA3B12268136823F008031360E26D41
:1023D4003F239340BB60012384F83530002384F805
:1023E4003430236D002B3FD0204698473CE0A36C4B
:1023F400002BE7D1EBE7E36BA3B12046984711E04C
:102404001A6812F4807F09D11A6822F010021A6047
:10241400012384F83530002384F83430E36B0BB1A6
:1024240020469847636DFBB1636D13F0010F17D01D
:10243400052384F835302268136823F00103136000
:10244400019B01330193AB4204D823681B6813F04A
:10245400010FF5D1012384F83530002384F834309A
:10246400E36C0BB12046984703B0F0BD0800002090
:10247400B5814E1B002807DB00F01F024009012331
:102484009340024A42F82030704700BF00E100E068
:10249400002808DB0901C9B200F1604000F5614081
:1024A40080F80013704700F00F000901C9B2014B16
:1024B4001954704714ED00E000B500F00700C0F1B6
:1024C400070CBCF1040F28BF4FF0040C031D062BAE
:1024D4000FD9C31E4FF0FF3E0EFA0CF021EA0001A3
:1024E40099400EFA03FE22EA0E0241EA02005DF868
:1024F40004FB0023EEE70000074AD36823F4E063FB
:102504001B041B0C000200F4E060034343F0BF63B0
:1025140043F40033D360704700ED00E010B5044687
:10252400054BD868C0F30220FFF7C6FF01462046DA
:10253400FFF7AEFF10BD00BF00ED00E008B5FFF7E8
:1025440099FF08BD0138B0F1807F0BD24FF0E02332
:102554005861054AF02182F823100020986107226F
:102564001A6170470120704700ED00E010B5044681
:102574000E4B1A784FF47A73B3FBF2F30C4A1068DB
:10258400B0FBF3F0FFF7DEFF68B90F2C01D901208F
:102594000AE0002221464FF0FF30FFF7BFFF054B52
:1025A4001C60002000E0012010BD00BF00000020DE
:1025B400080000200400002008B50B4B1A6842F400
:1025C40000721A601A6842F480621A601A6842F44F
:1025D40080721A600320FFF78FFF0F20FFF7C6FFFA
:1025E400FEF7C0FB002008BD003C0240034A11680E
:1025F400034B1B780B441360704700BF2401002079
:1026040000000020014B1868704700BF240100201F
:1026140038B50446FFF7F6FF0546B4F1FF3F02D094
:10262400044B1B781C44FFF7EDFF401BA042FAD378
:1026340038BD00BF00000020034AD2F8883043F4BC
:102644007003C2F88830704700ED00E0DFF834D042
:10265400FFF7F2FF0C480D490D4A002302E0D4585D
:10266400C4500433C4188C42F9D30A4A0A4C0023D8
:1026740001E013600432A242FBD300F019F8FEF724
:10268400ADF9704700000220000000200C0000207B
:10269400BC5700080C00002028010020FEE702447B
:1026A4000346934200D1704703F8011BF9E7000089
:1026B40070B50D4D0D4C641BA4100026A64209D123
:1026C4000B4D0C4C00F018F8641BA4100026A64215
:1026D40005D170BD55F8043B98470136EEE755F82F
:1026E400043B98470136F2E7B4570008B457000892
:1026F400B4570008B8570008F8B500BFF8BC08BCC8
:102704009E467047F8B500BFF8BC08BC9E467047AB
:10271400576176653A20000053696E650000000039
:1027240053617700547269616E676C650000000044
:102734005069616E6F000000477569746172000032
:102744004472756D000000001C270008242700084F
:1027540028270008342700083C27000844270008DD
:102764000004000000040000000400000004000055
:102774000004000000040000944F0008943F000887
:102784009447000894370008942F00089427000801
:10279400E9070408F7073407D0068A071D089F07CE
:1027A4009E060A068D0675077E07210759079307BB
:1027B4003007D7063F0701081C087707F106EA0629
:1027C4005307060822083B0763068706BE077309FA
:1027D400E9099408AF072508550812084608770840
:1027E4008D083309D7099B09AB0879079E068D0626
:1027F400E30635076F076207510777070807CC051B
:1028040006054105D8058D0649078B07220765068D
:10281400CE05770567053E06BF073E08B907D3070F
:102824006C08820857083008E407A507CD0781081B
:10283400F30849089807EA0778080509EE09630AC6
:10284400E4094F094C094F09AA0842081909F50976
:10285400BB093F0923093F090609BC072606F805F9
:102864004A07BF08D108D307B707E807A606B50586
:10287400B306F2076F086508B9071E07FD06F206DE
:10288400610717080C08D9078D0857092C09830814
:102894004708AD085B099509C708E80756086D099C
:1028A400E009AE095A094C093B0955086407C307F6
:1028B40075086D0897081509C9087907ED056805B5
:1028C400580638071F074007ED07000842073F0670
:1028D4003B05A50456058E07970955096C070E0696
:1028E400FB058C06EF064D074608D90861086B08FE
:1028F40008097F08F806DD05410645081B0A460A53
:10290400C009E209950A7D0AED08C707AC08480A20
:10291400B90AC009B8082C09380AEE09AA08A70799
:102924003E077707E00700083108A6089D08AC07B2
:10293400BE067F0648062B06F106EE072408960716
:1029440071063E05C00439056F065F07A0072D0810
:10295400A408D107A1065C06D90660076007B5077D
:102964002109190ADF098109EF08E307170701079D
:10297400D5075209860ADD0A4A0A4C095B087E0714
:10298400730747088F087E08AD0854083208CC083E
:102994005908D506D8059405DE0582060C077A0782
:1029A4008307F0062306B5058906EB072C081808EB
:1029B400380850073D064006130746087A08910771
:1029C40099072C08020863087509C60962095C099D
:1029D4005A0A170B380A5D093A095E080A0883097E
:1029E400E50A810BEC0B750B200ADA0838082D0870
:1029F400EF07CA07F808C70A6F0BE40A5F0A080A58
:102A0400480964082F08D808A909140AD309D30867
:102A1400F207C40765071006C90418059906CB0711
:102A2400DD07F006140600067C06E90695061E0678
:102A3400D306BB072D075F06DC06B707B507E30619
:102A44004B06A506C706E8054D05BC057E06BE0671
:102A54006F065906B10677068605E2049C0417043E
:102A64008403FA025D029D02BD03520457047404F8
:102A74008104AD04E10489045104000581050F05B6
:102A84004304E3038A0456056D05AD050A062A06C8
:102A9400AD0635072B0751071208ED08F309550A4F
:102AA400E7084107EC069E076B095A0BC70BF10AAE
:102AB4002B0A160A2E0ADA09BB09C10A050C210CD5
:102AC400740BA10A9609430824075D07D7082A0A4C
:102AD400F70A010C580D110EF30DB50DBF0DC00D05
:102AE400100D200C930CE20DCE0DDE0C700C290C95
:102AF400790CC50D320FFF0FFF0FFF0FFF0FFD0FF6
:102B0400FF0FCA0FB80E1D0E120FFF0FFF0FF60FA7
:102B1400FA0FFA0FF70FB50F8B0FA40FE70FFF0F84
:102B2400FF0FFC0FED0FFF0F1C0F7C0DDE0C030DD0
:102B3400B20D500EE50EC20FF20FF40F7E0FE80D2A
:102B4400E30C010D390DFA0CC40CEB0C280D550DDA
:102B54007D0C210BC20A680A4709A6084609430AE4
:102B6400AF0A310A48090A092909F608E8081E09C2
:102B7400EA08F507C406E105F605F6063D0734063E
:102B84001E05040519051504C20279022503BD03B7
:102B94008A038D02B4016602BC030604E5030C0437
:102BA4000404790378028901B401300236010D006E
:102BB40003001A00000000000000010013001200CE
:102BC40044001301FF002B0015001C0026002900FF
:102BD40011002F0011001000120001003E001D0022
:102BE40000001C000D000F0014000200070000008C
:102BF40000000400000000000900040000000000C0
:102C040001000000000000000D002C001F00000067
:102C1400020012000F0000000000000000000A0083
:102C24000D00000000000800150009001C00410010
:102C340014000800430055003C005900AD00E300B7
:102C440026014A01FE00AF00AE00EA000B01E500D8
:102C5400C3001501D80156026B027602D502DC03CB
:102C6400A5047A042A046C042605D5051B06180657
:102C74007606A6071709E709B7092B0959094B0A6C
:102C84005D0B1B0C4F0C5E0C930CAB0CF30C780D12
:102C9400960DB60D360E720E840EB30EB10EDB0E0B
:102CA400920FF10F5F0F9E0E970E530FC90FB50FC2
:102CB400D40FFD0FFF0FEF0F8A0F840FE50FF60FF0
:102CC400E60FF60FFF0FFF0FFF0FFA0FF30FFF0FC3
:102CD400FF0FFF0FFF0FFF0FFF0FFF0FF80FED0F99
:102CE400FF0FFF0FFF0FFF0FB00F400F630F850F94
:102CF4006D0FB80FFF0FFD0FFE0FFF0FF60FFF0F45
:102D0400F40F7D0F4B0FB90FF80FEF0FFD0FFF0FEF
:102D1400FF0FFF0FFF0FFF0FFB0FFF0FFF0FFF0F43
:102D2400E30FD30FFC0FFF0FF10FFF0FFF0FED0F9A
:102D3400E80FFF0FA80FCD0E500E490E810EBC0EEA
:102D44007B0E150EFC0DD60D9D0DA50D880DC80C22
:102D5400EE0B550B9F0A0F0A000A170AF309AA097A
:102D64006909D8081A08C9076E07AD060106900557
:102D74005F054C05E4047D044D0464032002C60190
:102D84009A0147017F0155019B008700C500980007
:102D94003C000000000014000A0000000A001000BB
:102DA400000000000200090005000000010000000E
:102DB400000000000000000000000000000000000F
:102DC40000000200000000000000000000000000FD
:102DD4000B000000000000000100000000000000E3
:102DE40000000000000007000200000000000000D6
:102DF40007000000000000000000000000000000C8
:102E040003000A0000000000110017000400000085
:102E140000000000000000000000000004000100A9
:102E24000900030000000000000002000800000088
:102E34000000030024008B003501B601BF01CB0163
:102E44005102E50219033C0398030B043404F7030D
:102E54000804B2043B056805A00509069306250786
:102E6400BF07500884084E0821085708F408CA0907
:102E7400790AB70AA20A740A720ACD0A470B8F0BA1
:102E8400C00B5F0C630DED0DD50DC30DD90D0D0EEB
:102E94003D0E5F0EF80EC20FFF0FFF0FF20FCE0FA5
:102EA400DE0FF70FEF0FF50FF90FF70FFF0FFF0FFF
:102EB400FF0FF50FF80FFF0FFF0FF70FFE0FFF0FB8
:102EC400FF0FFE0FFA0FF50FFF0FFF0FFF0FFB0FA2
:102ED400E90FE50FF40FFC0FFF0FFF0FFF0FFF0FBC
:102EE400FF0FFF0FFF0FFF0FFF0FFF0FFF0FFF0F6E
:102EF400FF0FF70FFB0FFF0FFC0FFF0FFF0FFF0F6D
:102F0400FF0FFF0FFF0FF40FFB0FFF0FFF0FFF0F5C
:102F1400FF0FF40FF70FFE0FF80FF70FF40FF80F72
:102F2400FE0FFF0FFF0FFF0FFF0FFE0FF90FFD0F37
:102F3400FF0FFF0FFF0FFF0FFF0FFF0FFF0FFF0F1D
:102F4400F20FFF0FF80F5D0FFB0E290F390FDD0E87
:102F54007E0E620E440EDD0D580D1E0D460D560DEF
:102F6400180DEB0CD40C840C2B0C0E0C1D0C0E0C3D
:102F74009E0B370B450B490B110BE60AA60A570AA1
:102F8400250A090AE9098609F708B108C708FA08F1
:102F9400AF079B079807A307B107B307AF07B307AA
:102FA400C807E507FB070008FF07FF07FC07F7074B
:102FB400F70705081C08250819081A083F086A08B5
:102FC4007708650856085B084E081108CE07AE0757
:102FD4009E077E074C072907340759075D073E07FC
:102FE4003B077707C707F107F207ED07EC07E2078E
:102FF400C907B107BB07ED071C08210814082608F8
:103004006508AD08DA08EC08F408EF08CE0897085C
:10301400630840081D08E507AD07A207BF07CC07F2
:10302400A5076B0762079307C207BB0799079D07AC
:10303400C407D007B007A507DC072A0851084808C9
:103044003B0853089108D508F408E708CD08B708E9
:103054009E087B085B083E081608E507B907A10728
:10306400A207B107B507B007C207EC070D080E08A1
:10307400FE07F307E707D207C607C807C607C40752
:10308400CF07DC07E707F707180846085F084F086B
:10309400310823082808310825080808F707F90724
:1030A400FD07F807EE07F60712082C084108570831
:1030B400600863086608500824080508FB07F7073A
:1030C400DC079F076B0767077E079907B907D907CE
:1030D400EA07DE07C407CE07040833083D082E08B4
:1030E40017080308020811082B0847085F08770827
:1030F4009108A00891086F085B085F0860084E08F3
:103104002008D0077D075907690783079807B30785
:10311400C507BB07AB07BF07EE071C083C084708F9
:103124003C08350843084D083C0827081F081A08BE
:103134002A086608AE08CC08B4088608670865083B
:103144006E08780878085408FF079D076907830705
:10315400CA07E0078E071A07020750079507890771
:1031640063076B079407A60792078807B207F90756
:103174001F08230837086D08A508BC08A60882089C
:103184008D08D0080A090009BC086C082908FC0746
:10319400E607E307DE07C30788073607FE060807C6
:1031A4003707560750073A07340758079807C507E3
:1031B400C807BA07C307EA071708360842084008D1
:1031C4003708290838087F08C008A3083908E00729
:1031D400C507CD07DC07F70716081008CF078707D0
:1031E40074079807C507C907A807A007D3070B08E2
:1031F400FF07BB079C07D60730085C0843080D0887
:10320400EC07EA07ED07F3071F087608B508A208DC
:1032140058081C08070811082A08470853083708E3
:10322400F607C307C607DE07D007A307A8070008E9
:103234004A081708A7079107EE075208730865089C
:103244005A0850081008A5078007DC0748084308F7
:10325400DF078A078707B007B807A807CC07300835
:1032640077085808FD07CF07FC073D083608030810
:1032740008084C086C083108E807EF074808A1085B
:10328400AC086F083E0853087D0877084D082C08E1
:103294000C08D70799076A0751074B0759077B079B
:1032A400A607D007EA07F8071D086D08A5087C08DB
:1032B4003C086F08F6081F09A80820082D08B20862
:1032C400F608B2086A088C08BA087308F307DC0722
:1032D4004108940871081908EC07D00786072A07E3
:1032E4000007180754078307820763076A07C107A3
:1032F4003808720862085F089908CD08B5087A088A
:103304007508A808DD08F608E708B908A008C30886
:10331400F508ED08A4086A089708FD08E008FB070B
:103324003707A307BD08F108E80715078D078508C7
:103334009F08EA07BB079B086C0910090B08B30731
:103344005308E1089308F207DB07300857081E0802
:10335400B2074E0721072E07530758070F07990690
:1033640057066D068E065906FB05000644060C0634
:1033740064052C05B60565068F062A06A50578059D
:10338400BF051C061D06D705C8051D067F06860653
:10339400130680057105F7054206B205D904BE047B
:1033A400560596051B05B1040305A605CA054B057C
:1033B400D8041205B405FD05CC05AF05FA0552067F
:1033C40050062E066306CD06F106C706BB061C078B
:1033D400AD07EB07C207A607DC07300864087B08C3
:1033E4009B08C408CA08B508C108F70822093109AE
:1033F4003E0947092209D208A508E4086C09C60950
:10340400B20963092A092309390933090509FA08A4
:103414005109C609E409A1096B099F09220A960A00
:10342400C00AB80ACB0A020B150BED0ACA0AC60A6F
:10343400CA0AEF0A3B0B4F0BF20A900AA80A090BBF
:103444001E0BD50AAF0AEE0A1D0BBB0A080ABF09F8
:10345400180A620AF8094F094309A1098809F20800
:10346400CB0878091F0AE509360912098F09E8090A
:10347400B5097509BD094E0A7F0A450A170A170AD4
:103484000C0A060A3E0A770A3E0AB5096509780954
:103494009E098D09560950099309B5096A090E094F
:1034A40015096A09B009C009B609C309010A4A0A1B
:1034B400560A1A0AEF09150A5E0A7D0A7C0A8F0A5F
:1034C400B80AC50AA50A7F0A720A6D0A5F0A4D0A7C
:1034D4003F0A2A0A0C0A130A690AC20AAD0A510AE7
:1034E400400A900AB50A690A3A0AAB0A490B380B32
:1034F4006C0ABF09D709540A680AF809A909DC0942
:103504002C0A110A980932092209480953090909A0
:1035140094084E0844083C080908A30749074A07C9
:103524008F079A073407C206B406E106D606740666
:103534000206CB05C3057B05C9042E042C048A04AA
:103544009A041F04960371037D0361032103D002CF
:1035540078024C0259023E02C5014D014D01C001E1
:103564002302FD0187017501E9013202D9015D01E0
:103574007101EA0100027201CB00850086006F0030
:103584003A0032007700C900EC00F90021014B0138
:103594004101170110013E017E01AB01C601E001AA
:1035A400F8010C022C026702B602FD021D032C0373
:1035B40051037E039803B803F603360459046804E0
:1035C4007E04A704E60438057305680538053D053F
:1035D4008005B0059A0567056D05BF05FC05CF0597
:1035E40084059F0516068606CE0610076407C007E5
:1035F4000E08450867087F08B5082909A909D409F0
:10360400860923092D098C09B80994099109EB0944
:10361400320AE9095C094F09D3092C0AED09930917
:10362400C109370A410ADC09C909610A0A0B090BF5
:10363400880A4C0A950AED0A030B020B140B1F0BA4
:10364400010BBE0A7C0A560A4C0A780AEB0A610B83
:103654006C0B180BED0A320B940BAB0B8C0B910B10
:10366400DB0B2A0C250CD20BB10B0D0C860C9F0C1A
:103674006D0C5E0C9A0CDC0CDA0CAC0C9A0CB30CD2
:10368400D30CDF0CE90C040D130D030D000D2B0DF1
:103694005D0D6D0D770DA60DD60DB80D5A0D390DB6
:1036A400840DC30D900D2D0D160D500D750D5B0D74
:1036B400570DBC0D490E700E1C0ED30D010E780E65
:1036C400B90E9D0E710E730E910E910E570E100EC3
:1036D400F60D0B0E2F0E370EFC0D960D570D4F0DDC
:1036E4003D0DF90CAE0C910C9A0C870C250C9F0B1C
:1036F4005C0B730B7E0B310BCC0AAB0AB40A870A42
:10370400170AB509950987093C09B9083408C60799
:1037140079075C07500710079A063E062A06180622
:10372400AB050A05CE042A05830532057304030498
:10373400090400049D03290305031A03F802810206
:103744001202EC01E601C901A20191017D014101CE
:10375400F100BA009C007A0043000E00000017003C
:103764002E003600400059006D0077009200CE0014
:1037740015014B0168017E01AE01ED011202120236
:103784000C0221024502470222020F023E029E025F
:10379400E907D407B807950768073207F506AF06A7
:1037A40060060806A9054505DA046A04F7038103DF
:1037B400090391021902AD0174015D013C01240168
:1037C4001B0111011101180128013D0156017A0163
:1037D400A101CC01FC0136027202AF02F5023A03E8
:1037E4008303CF031E046B04B30404055F05B4050F
:1037F400FE055506CF063C075C0763079207BC0726
:10380400F7073C084F0866088B08AF08CB08E308A5
:1038140037099309BD09E509F409CD09B509D009AA
:10382400C90968090609E808CF085908C7075F07E6
:10383400FE06FC062607FF06F00624077407850724
:103844005A0754074C0752075007080792063A06CE
:103854002506DC054505C504A304A7048A049A04C7
:10386400B804C704E7040B056805E30538067E06BB
:10387400B206DC060C0736075E07770781077E076A
:103884008207B707F4070C080A080E084608BB08A5
:103894004309A509F209100A000AFF09E909CE093A
:1038A400CA09CE09D309CC09C409B309B709CE0999
:1038B400F109380A820ABC0AD80AF30AED0ABA0ADC
:1038C400B00AAE0A7E0A390AF909B6096209FA0889
:1038D4008E083808FC07E407DC07C707A2077E0741
:1038E400640751075207570745071B07DD06910672
:1038F4003B06DC05750532050805E504DD04E40432
:10390400040534057205AF05DD050B0632066C06A9
:10391400BB06060723070A07E006A10667063C065E
:10392400260625061306020614065006AF062307CC
:103934009B0709087F08FD086C09B409E809200AF7
:103944004D0A720A8F0AAA0ABD0AAE0A860A710AC9
:103954006B0A5E0A5A0A600A730A8E0AB00ACE0A11
:10396400CE0AC90AC40AC10AAE0A7E0A2E0AD209BC
:1039740090094C09F808AB087208490821080608A0
:10398400EA07D107B7079307700747072407070714
:10399400E606BD0690065F061F06EF05C5059A05F7
:1039A400810583059805AF05C505E2050D063506B5
:1039B40055067B06AA06DC0600071C0734074507E4
:1039C4005507660781079E07C907FC073D08940849
:1039D400F1085A09D409550ABF0A1F0B840BD60BE8
:1039E400120C300C420C420C250C010CDC0BBE0BEF
:1039F4009E0B830B6B0B610B6A0B730B830B9F0B7F
:103A0400C40BE20BF80B0B0C110C120C030CDC0BAB
:103A1400A80B770B460B0C0BC70A850A4F0A0B0A37
:103A2400C10989095C092B09F408C1088F086008D9
:103A34002C08F207B3076C073307FE06CC069E0674
:103A440073065606430643064B065B0671068C0650
:103A5400B506DC06FF061F073E0758076F079607E3
:103A6400C307EC07120844088108B808FC084E098B
:103A7400A409060A720AE20A570BC10B120C5F0C66
:103A8400B10C030D550D9E0DD70D040E240E3E0EE4
:103A9400610E8A0EB80EF10E350F760FA20FC10F0C
:103AA400DB0FF40FFF0FED0FD60FBA0F960F660F53
:103AB400270FD90E760E040E8A0D1B0DAE0C350C95
:103AC400B80B380BC40A5C0AF9099B093B09E908DD
:103AD4009C084C08FD07AF075307E906880627062C
:103AE400C70568050305A2044804F1039B034B03BF
:103AF4000003B8027F0252022402F501CC01AA019C
:103B04008E0172015C014E014201390134013A0116
:103B14004901560160017501A101DD0126026C0213
:103B2400A902E5021D0357038F03CB030D045104BF
:103B34009A04E30429056605A605F0053F068F06E9
:103B4400DB062A077007A707E1071B08480868086F
:103B54008A08B008CA08D808E408EE08F508F60888
:103B6400F608FE080B090F090A090209FB08F40804
:103B7400E708D308B70892086D0843080F08D00770
:103B8400890744070407C7068C0653061C06EC0580
:103B9400C4059D057705560542053B0534052F05EB
:103BA4002D052A0527052705320547055C057105FE
:103BB4008B05A805C205D805F0050B062D0657068A
:103BC4008206AF06DA06010726074C076D078A0747
:103BD400AA07CD07F3071D084A087B08A808CE08E2
:103BE400EF08090920093909560973099109AB0934
:103BF400BD09C609CA09CF09D409D709D309CB0914
:103C0400C309B509A009890974095B09400929098F
:103C14001009F108CB08A4087E08590834081008D4
:103C2400EC07C4079C07740747071A07F006CD067C
:103C3400B0069406790660064A0634061D060D068B
:103C44000406FB05ED05DD05CF05C705C605C4055E
:103C5400BE05B605B605BE05CD05DC05EB05FA05C2
:103C64000C06250646066D069C06D2060E074E0770
:103C74008E07C90702083C087608B108ED0829092F
:103C840063099C09D109020A2D0A560A7B0A9F0A74
:103C9400C00AE00AFC0A110B1E0B270B2D0B2D0B7F
:103CA400280B1F0B120B010BEE0AD80ABF0AA20A3B
:103CB4007F0A590A320A090ADE09B6099009670916
:103CC40037090309CC08960861082D08F807C407CA
:103CD4009307630735070607DC06B70694067106E3
:103CE4004D062E0614060006EF05E405E005E3057F
:103CF400EA05F40500060C061D0634064F066E069A
:103D04008F06B306DA0603072B0752077A07A507BF
:103D1400D50709083D086E089E08CB08F6081D095A
:103D2400420968099009BA09E609110A3A0A600ABF
:103D3400820AA40AC50AE50A010B1D0B380B510BB4
:103D4400660B750B7E0B840B870B8B0B8D0B8A0B11
:103D5400810B6F0B580B3E0B220BFF0AD60AAB0AE2
:103D6400820A5B0A340A090AD909A70972093C09BB
:103D74000609D0089A0863082B08F507C5079B07AE
:103D840074074F072C070C07EE06CF06B2069906F8
:103D940089068106810685068D069906AB06C3064B
:103DA400DF06FF06240750078107B807F2072E082D
:103DB4006A08A608E40827097009BC090A0A590A0E
:103DC400A80AF60A430B910BE00B2F0C7D0CC90CCF
:103DD400140D5D0DA20DE20D1B0E4D0E780E9D0E01
:103DE400C00EE10E000F190F2B0F330F330F2C0FE2
:103DF4001F0F0B0FF10ED20EAD0E850E590E290EAC
:103E0400F50DBE0D820D410DFB0CAF0C5F0C0E0CBD
:103E1400BA0B650B0D0BB40A580AFB099B09380948
:103E2400D60874081208B0074F07F10696063A063A
:103E3400DE0583052D05DC04900448040204C10357
:103E440085034C031403DF02AE02840261024602BE
:103E5400320224021A02140211021302190222026B
:103E6400300244025F028102A702CF02F802230358
:103E74004E037D03B103E80322045D049704D204D6
:103E84000C0546057F05B905F2052B065F068E066F
:103E9400BA06E3060A072C074B0764077A078D075F
:103EA4009E07AD07BA07C607CE07D107D007CA07D2
:103EB400C107B307A0078A0773075C0745072D07E7
:103EC4001307F506D506B3068E066A0647062806C6
:103ED4000A06EF05D405BC05A50590057B05680514
:103EE40059054E05490548054B054E05530558052A
:103EF4005E05660571057F059105A505BD05D5051A
:103F0400EF0509062506440667068D06B406DD0698
:103F140006072F0757078007A807CF07F6071E08CD
:103F2400470871089A08C008E308030921093E09F3
:103F34005809700985099A09AD09BE09CA09D30946
:103F4400D709D909D609CF09C509B809A809960915
:103F540081096B09520938091909F708D208AB0815
:103F64008208590831080908E007B7078A075B0780
:103F74002C07FE06D106A6067E065806360615064A
:103F8400F505D605B8059B0582056D055E05530547
:103F9400000007000F0017001F0027002F00370044
:103FA4003F0047004F0057005F0067006F00770035
:103FB4007F0087008F0097009F00A700AF00B70025
:103FC400BF00C700CF00D700DF00E700EF00F70015
:103FD400FF0007010F0117011F0127012F013701FE
:103FE4003F0147014F0157015F0167016F017701ED
:103FF4007F0187018F0197019F01A701AF01B701DD
:10400400BF01C701CF01D701DF01E701EF01F701CC
:10401400FF0107020F0217021F0227022F023702B5
:104024003F0247024F0257025F0267026F027702A4
:104034007F0287028F0297029F02A702AF02B70294
:10404400BF02C702CF02D702DF02E702EF02F70284
:10405400FF0207030F0317031F0327032F0337036D
:104064003F0347034F0357035F0367036F0377035C
:104074007F0387038F0397039F03A703AF03B7034C
:10408400BF03C703CF03D703DF03E703EF03F7033C
:10409400FF0307040F0417041F0427042F04370425
:1040A4003F0447044F0457045F0467046F04770414
:1040B4007F0487048F0497049F04A704AF04B70404
:1040C400BF04C704CF04D704DF04E704EF04F704F4
:1040D400FF0407050F0517051F0527052F053705DD
:1040E4003F0547054F0557055F0567056F057705CC
:1040F4007F0587058F0597059F05A705AF05B705BC
:10410400BF05C705CF05D705DF05E705EF05F705AB
:10411400FF0507060F0617061F0627062F06370694
:104124003F0647064F0657065F0667066F06770683
:104134007F0687068F0697069F06A706AF06B70673
:10414400BF06C706CF06D706DF06E706EF06F70663
:10415400FF0607070F0717071F0727072F0737074C
:104164003F0747074F0757075F0767076F0777073B
:104174007F0787078F0797079F07A707AF07B7072B
:10418400BF07C707CF07D707DF07E707EF07F7071B
:10419400FF0707080F0817081F0827082F08370804
:1041A4003F0847084F0857085F0867086F087708F3
:1041B4007F0887088F0897089F08A708AF08B708E3
:1041C400BF08C708CF08D708DF08E708EF08F708D3
:1041D400FF0807090F0917091F0927092F093709BC
:1041E4003F0947094F0957095F0967096F097709AB
:1041F4007F0987098F0997099F09A709AF09B7099B
:10420400BF09C709CF09D709DF09E709EF09F7098A
:10421400FF09070A0F0A170A1F0A270A2F0A370A73
:104224003F0A470A4F0A570A5F0A670A6F0A770A62
:104234007F0A870A8F0A970A9F0AA70AAF0AB70A52
:10424400BF0AC70ACF0AD70ADF0AE70AEF0AF70A42
:10425400FF0A070B0F0B170B1F0B270B2F0B370B2B
:104264003F0B470B4F0B570B5F0B670B6F0B770B1A
:104274007F0B870B8F0B970B9F0BA70BAF0BB70B0A
:10428400BF0BC70BCF0BD70BDF0BE70BEF0BF70BFA
:10429400FF0B070C0F0C170C1F0C270C2F0C370CE3
:1042A4003F0C470C4F0C570C5F0C670C6F0C770CD2
:1042B4007F0C870C8F0C970C9F0CA70CAF0CB70CC2
:1042C400BF0CC70CCF0CD70CDF0CE70CEF0CF70CB2
:1042D400FF0C070D0F0D170D1F0D270D2F0D370D9B
:1042E4003F0D470D4F0D570D5F0D670D6F0D770D8A
:1042F4007F0D870D8F0D970D9F0DA70DAF0DB70D7A
:10430400BF0DC70DCF0DD70DDF0DE70DEF0DF70D69
:10431400FF0D070E0F0E170E1F0E270E2F0E370E52
:104324003F0E470E4F0E570E5F0E670E6F0E770E41
:104334007F0E870E8F0E970E9F0EA70EAF0EB70E31
:10434400BF0EC70ECF0ED70EDF0EE70EEF0EF70E21
:10435400FF0E070F0F0F170F1F0F270F2F0F370F0A
:104364003F0F470F4F0F570F5F0F670F6F0F770FF9
:104374007F0F870F8F0F970F9F0FA70FAF0FB70FE9
:10438400BF0FC70FCF0FD70FDF0FE70FEF0FF70FD9
:10439400FF0FF70FEF0FE70FDF0FD70FCF0FC70F89
:1043A400BF0FB70FAF0FA70F9F0F970F8F0F870F79
:1043B4007F0F770F6F0F670F5F0F570F4F0F470F69
:1043C4003F0F370F2F0F270F1F0F170F0F0F070F59
:1043D400FF0EF70EEF0EE70EDF0ED70ECF0EC70E51
:1043E400BF0EB70EAF0EA70E9F0E970E8F0E870E41
:1043F4007F0E770E6F0E670E5F0E570E4F0E470E31
:104404003F0E370E2F0E270E1F0E170E0F0E070E20
:10441400FF0DF70DEF0DE70DDF0DD70DCF0DC70D18
:10442400BF0DB70DAF0DA70D9F0D970D8F0D870D08
:104434007F0D770D6F0D670D5F0D570D4F0D470DF8
:104444003F0D370D2F0D270D1F0D170D0F0D070DE8
:10445400FF0CF70CEF0CE70CDF0CD70CCF0CC70CE0
:10446400BF0CB70CAF0CA70C9F0C970C8F0C870CD0
:104474007F0C770C6F0C670C5F0C570C4F0C470CC0
:104484003F0C370C2F0C270C1F0C170C0F0C070CB0
:10449400FF0BF70BEF0BE70BDF0BD70BCF0BC70BA8
:1044A400BF0BB70BAF0BA70B9F0B970B8F0B870B98
:1044B4007F0B770B6F0B670B5F0B570B4F0B470B88
:1044C4003F0B370B2F0B270B1F0B170B0F0B070B78
:1044D400FF0AF70AEF0AE70ADF0AD70ACF0AC70A70
:1044E400BF0AB70AAF0AA70A9F0A970A8F0A870A60
:1044F4007F0A770A6F0A670A5F0A570A4F0A470A50
:104504003F0A370A2F0A270A1F0A170A0F0A070A3F
:10451400FF09F709EF09E709DF09D709CF09C70937
:10452400BF09B709AF09A7099F0997098F09870927
:104534007F0977096F0967095F0957094F09470917
:104544003F0937092F0927091F0917090F09070907
:10455400FF08F708EF08E708DF08D708CF08C708FF
:10456400BF08B708AF08A7089F0897088F088708EF
:104574007F0877086F0867085F0857084F084708DF
:104584003F0837082F0827081F0817080F080708CF
:10459400FF07F707EF07E707DF07D707CF07C707C7
:1045A400BF07B707AF07A7079F0797078F078707B7
:1045B4007F0777076F0767075F0757074F074707A7
:1045C4003F0737072F0727071F0717070F07070797
:1045D400FF06F706EF06E706DF06D706CF06C7068F
:1045E400BF06B706AF06A7069F0697068F0687067F
:1045F4007F0677066F0667065F0657064F0647066F
:104604003F0637062F0627061F0617060F0607065E
:10461400FF05F705EF05E705DF05D705CF05C70556
:10462400BF05B705AF05A7059F0597058F05870546
:104634007F0577056F0567055F0557054F05470536
:104644003F0537052F0527051F0517050F05070526
:10465400FF04F704EF04E704DF04D704CF04C7041E
:10466400BF04B704AF04A7049F0497048F0487040E
:104674007F0477046F0467045F0457044F044704FE
:104684003F0437042F0427041F0417040F040704EE
:10469400FF03F703EF03E703DF03D703CF03C703E6
:1046A400BF03B703AF03A7039F0397038F038703D6
:1046B4007F0377036F0367035F0357034F034703C6
:1046C4003F0337032F0327031F0317030F030703B6
:1046D400FF02F702EF02E702DF02D702CF02C702AE
:1046E400BF02B702AF02A7029F0297028F0287029E
:1046F4007F0277026F0267025F0257024F0247028E
:104704003F0237022F0227021F0217020F0207027D
:10471400FF01F701EF01E701DF01D701CF01C70175
:10472400BF01B701AF01A7019F0197018F01870165
:104734007F0177016F0167015F0157014F01470155
:104744003F0137012F0127011F0117010F01070145
:10475400FF00F700EF00E700DF00D700CF00C7003D
:10476400BF00B700AF00A7009F0097008F0087002D
:104774007F0077006F0067005F0057004F0047001D
:104784003F0037002F0027001F0017000F0007000D
:104794000000030007000B000F00130017001B00AC
:1047A4001F00230027002B002F00330037003B009D
:1047B4003F00430047004B004F00530057005B008D
:1047C4005F00630067006B006F00730077007B007D
:1047D4007F00830087008B008F00930097009B006D
:1047E4009F00A300A700AB00AF00B300B700BB005D
:1047F400BF00C300C700CB00CF00D300D700DB004D
:10480400DF00E300E700EB00EF00F300F700FB003C
:10481400FF00030107010B010F01130117011B0125
:104824001F01230127012B012F01330137013B0114
:104834003F01430147014B014F01530157015B0104
:104844005F01630167016B016F01730177017B01F4
:104854007F01830187018B018F01930197019B01E4
:104864009F01A301A701AB01AF01B301B701BB01D4
:10487400BF01C301C701CB01CF01D301D701DB01C4
:10488400DF01E301E701EB01EF01F301F701FB01B4
:10489400FF01030207020B020F02130217021B029D
:1048A4001F02230227022B022F02330237023B028C
:1048B4003F02430247024B024F02530257025B027C
:1048C4005F02630267026B026F02730277027B026C
:1048D4007F02830287028B028F02930297029B025C
:1048E4009F02A302A702AB02AF02B302B702BB024C
:1048F400BF02C302C702CB02CF02D302D702DB023C
:10490400DF02E302E702EB02EF02F302F702FB022B
:10491400FF02030307030B030F03130317031B0314
:104924001F03230327032B032F03330337033B0303
:104934003F03430347034B034F03530357035B03F3
:104944005F03630367036B036F03730377037B03E3
:104954007F03830387038B038F03930397039B03D3
:104964009F03A303A703AB03AF03B303B703BB03C3
:10497400BF03C303C703CB03CF03D303D703DB03B3
:10498400DF03E303E703EB03EF03F303F703FB03A3
:10499400FF03030407040B040F04130417041B048C
:1049A4001F04230427042B042F04330437043B047B
:1049B4003F04430447044B044F04530457045B046B
:1049C4005F04630467046B046F04730477047B045B
:1049D4007F04830487048B048F04930497049B044B
:1049E4009F04A304A704AB04AF04B304B704BB043B
:1049F400BF04C304C704CB04CF04D304D704DB042B
:104A0400DF04E304E704EB04EF04F304F704FB041A
:104A1400FF04030507050B050F05130517051B0503
:104A24001F05230527052B052F05330537053B05F2
:104A34003F05430547054B054F05530557055B05E2
:104A44005F05630567056B056F05730577057B05D2
:104A54007F05830587058B058F05930597059B05C2
:104A64009F05A305A705AB05AF05B305B705BB05B2
:104A7400BF05C305C705CB05CF05D305D705DB05A2
:104A8400DF05E305E705EB05EF05F305F705FB0592
:104A9400FF05030607060B060F06130617061B067B
:104AA4001F06230627062B062F06330637063B066A
:104AB4003F06430647064B064F06530657065B065A
:104AC4005F06630667066B066F06730677067B064A
:104AD4007F06830687068B068F06930697069B063A
:104AE4009F06A306A706AB06AF06B306B706BB062A
:104AF400BF06C306C706CB06CF06D306D706DB061A
:104B0400DF06E306E706EB06EF06F306F706FB0609
:104B1400FF06030707070B070F07130717071B07F2
:104B24001F07230727072B072F07330737073B07E1
:104B34003F07430747074B074F07530757075B07D1
:104B44005F07630767076B076F07730777077B07C1
:104B54007F07830787078B078F07930797079B07B1
:104B64009F07A307A707AB07AF07B307B707BB07A1
:104B7400BF07C307C707CB07CF07D307D707DB0791
:104B8400DF07E307E707EB07EF07F307F707FB0781
:104B9400FF07030807080B080F08130817081B086A
:104BA4001F08230827082B082F08330837083B0859
:104BB4003F08430847084B084F08530857085B0849
:104BC4005F08630867086B086F08730877087B0839
:104BD4007F08830887088B088F08930897089B0829
:104BE4009F08A308A708AB08AF08B308B708BB0819
:104BF400BF08C308C708CB08CF08D308D708DB0809
:104C0400DF08E308E708EB08EF08F308F708FB08F8
:104C1400FF08030907090B090F09130917091B09E1
:104C24001F09230927092B092F09330937093B09D0
:104C34003F09430947094B094F09530957095B09C0
:104C44005F09630967096B096F09730977097B09B0
:104C54007F09830987098B098F09930997099B09A0
:104C64009F09A309A709AB09AF09B309B709BB0990
:104C7400BF09C309C709CB09CF09D309D709DB0980
:104C8400DF09E309E709EB09EF09F309F709FB0970
:104C9400FF09030A070A0B0A0F0A130A170A1B0A59
:104CA4001F0A230A270A2B0A2F0A330A370A3B0A48
:104CB4003F0A430A470A4B0A4F0A530A570A5B0A38
:104CC4005F0A630A670A6B0A6F0A730A770A7B0A28
:104CD4007F0A830A870A8B0A8F0A930A970A9B0A18
:104CE4009F0AA30AA70AAB0AAF0AB30AB70ABB0A08
:104CF400BF0AC30AC70ACB0ACF0AD30AD70ADB0AF8
:104D0400DF0AE30AE70AEB0AEF0AF30AF70AFB0AE7
:104D1400FF0A030B070B0B0B0F0B130B170B1B0BD0
:104D24001F0B230B270B2B0B2F0B330B370B3B0BBF
:104D34003F0B430B470B4B0B4F0B530B570B5B0BAF
:104D44005F0B630B670B6B0B6F0B730B770B7B0B9F
:104D54007F0B830B870B8B0B8F0B930B970B9B0B8F
:104D64009F0BA30BA70BAB0BAF0BB30BB70BBB0B7F
:104D7400BF0BC30BC70BCB0BCF0BD30BD70BDB0B6F
:104D8400DF0BE30BE70BEB0BEF0BF30BF70BFB0B5F
:104D9400FF0B030C070C0B0C0F0C130C170C1B0C48
:104DA4001F0C230C270C2B0C2F0C330C370C3B0C37
:104DB4003F0C430C470C4B0C4F0C530C570C5B0C27
:104DC4005F0C630C670C6B0C6F0C730C770C7B0C17
:104DD4007F0C830C870C8B0C8F0C930C970C9B0C07
:104DE4009F0CA30CA70CAB0CAF0CB30CB70CBB0CF7
:104DF400BF0CC30CC70CCB0CCF0CD30CD70CDB0CE7
:104E0400DF0CE30CE70CEB0CEF0CF30CF70CFB0CD6
:104E1400FF0C030D070D0B0D0F0D130D170D1B0DBF
:104E24001F0D230D270D2B0D2F0D330D370D3B0DAE
:104E34003F0D430D470D4B0D4F0D530D570D5B0D9E
:104E44005F0D630D670D6B0D6F0D730D770D7B0D8E
:104E54007F0D830D870D8B0D8F0D930D970D9B0D7E
:104E64009F0DA30DA70DAB0DAF0DB30DB70DBB0D6E
:104E7400BF0DC30DC70DCB0DCF0DD30DD70DDB0D5E
:104E8400DF0DE30DE70DEB0DEF0DF30DF70DFB0D4E
:104E9400FF0D030E070E0B0E0F0E130E170E1B0E37
:104EA4001F0E230E270E2B0E2F0E330E370E3B0E26
:104EB4003F0E430E470E4B0E4F0E530E570E5B0E16
:104EC4005F0E630E670E6B0E6F0E730E770E7B0E06
:104ED4007F0E830E870E8B0E8F0E930E970E9B0EF6
:104EE4009F0EA30EA70EAB0EAF0EB30EB70EBB0EE6
:104EF400BF0EC30EC70ECB0ECF0ED30ED70EDB0ED6
:104F0400DF0EE30EE70EEB0EEF0EF30EF70EFB0EC5
:104F1400FF0E030F070F0B0F0F0F130F170F1B0FAE
:104F24001F0F230F270F2B0F2F0F330F370F3B0F9D
:104F34003F0F430F470F4B0F4F0F530F570F5B0F8D
:104F44005F0F630F670F6B0F6F0F730F770F7B0F7D
:104F54007F0F830F870F8B0F8F0F930F970F9B0F6D
:104F64009F0FA30FA70FAB0FAF0FB30FB70FBB0F5D
:104F7400BF0FC30FC70FCB0FCF0FD30FD70FDB0F4D
:104F8400DF0FE30FE70FEB0FEF0FF30FF70FFB0F3D
:104F9400FF070C081808250831083E084A08570876
:104FA400630870087D0889089608A208AF08BB0842
:104FB400C808D408E108ED08FA08060913091F090E
:104FC4002B093809440951095D09690976098209DF
:104FD4008E099B09A709B309C009CC09D809E409BA
:104FE400F109FD09090A150A210A2D0A390A450A97
:104FF400510A5D0A690A750A810A8D0A990AA50A85
:10500400B10ABD0AC80AD40AE00AEC0AF70A030B7B
:105014000F0B1A0B260B310B3D0B480B540B5F0B7C
:105024006A0B760B810B8C0B980BA30BAE0BB90B95
:10503400C40BCF0BDA0BE50BF00BFB0B060C110CBE
:105044001C0C260C310C3C0C460C510C5C0C660CF4
:10505400710C7B0C850C900C9A0CA40CAE0CB90C46
:10506400C30CCD0CD70CE10CEB0CF50CFE0C080DAD
:10507400120D1C0D250D2F0D380D420D4B0D550D28
:105084005E0D670D710D7A0D830D8C0D950D9E0DC2
:10509400A70DB00DB80DC10DCA0DD30DDB0DE40D78
:1050A400EC0DF50DFD0D050E0D0E160E1E0E260E45
:1050B4002E0E360E3E0E450E4D0E550E5C0E640E33
:1050C4006C0E730E7A0E820E890E900E970E9E0E43
:1050D400A50EAC0EB30EBA0EC10EC80ECE0ED50E72
:1050E400DB0EE20EE80EEE0EF50EFB0E010F070FBF
:1050F4000D0F130F180F1E0F240F290F2F0F350F2D
:105104003A0F3F0F450F4A0F4F0F540F590F5E0FC1
:10511400630F670F6C0F710F750F7A0F7E0F830F7C
:10512400870F8B0F8F0F930F970F9B0F9F0FA30F5B
:10513400A60FAA0FAD0FB10FB40FB80FBB0FBE0F60
:10514400C10FC40FC70FCA0FCD0FCF0FD20FD50F8A
:10515400D70FDA0FDC0FDE0FE00FE20FE40FE60FDC
:10516400E80FEA0FEC0FEE0FEF0FF10FF20FF30F52
:10517400F50FF60FF70FF80FF90FFA0FFB0FFB0FF0
:10518400FC0FFD0FFD0FFE0FFE0FFE0FFE0FFE0FB7
:10519400FF0FFE0FFE0FFE0FFE0FFE0FFD0FFD0FA4
:1051A400FC0FFB0FFB0FFA0FF90FF80FF70FF60FB9
:1051B400F50FF30FF20FF10FEF0FEE0FEC0FEA0FF5
:1051C400E80FE60FE40FE20FE00FDE0FDC0FDA0F5B
:1051D400D70FD50FD20FCF0FCD0FCA0FC70FC40FE4
:1051E400C10FBE0FBB0FB80FB40FB10FAD0FAA0F95
:1051F400A60FA30F9F0F9B0F970F930F8F0F8B0F6C
:10520400870F830F7E0F7A0F750F710F6C0F670F67
:10521400630F5E0F590F540F4F0F4A0F450F3F0F87
:105224003A0F350F2F0F290F240F1E0F180F130FCE
:105234000D0F070F010FFB0EF50EEE0EE80EE20E3A
:10524400DB0ED50ECE0EC80EC10EBA0EB30EAC0ECA
:10525400A50E9E0E970E900E890E820E7A0E730E78
:105264006C0E640E5C0E550E4D0E450E3E0E360E43
:105274002E0E260E1E0E160E0D0E050EFD0DF50D30
:10528400EC0DE40DDB0DD30DCA0DC10DB80DB00D41
:10529400A70D9E0D950D8C0D830D7A0D710D670D67
:1052A4005E0D550D4B0D420D380D2F0D250D1C0DAA
:1052B400120D080DFE0CF50CEB0CE10CD70CCD0C0B
:1052C400C30CB90CAE0CA40C9A0C900C850C7B0C82
:1052D400710C660C5C0C510C460C3C0C310C260C0D
:1052E4001C0C110C060CFB0BF00BE50BDA0BCF0BB3
:1052F400C40BB90BAE0BA30B980B8C0B810B760B69
:105304006A0B5F0B540B480B3D0B310B260B1A0B2E
:105314000F0B030BF70AEC0AE00AD40AC80ABD0A09
:10532400B10AA50A990A8D0A810A750A690A5D0AF1
:10533400510A450A390A2D0A210A150A090AFD09E2
:10534400F109E409D809CC09C009B309A7099B09E3
:105354008E098209760969095D09510944093809E8
:105364002B091F0913090609FA08ED08E108D408F6
:10537400C808BB08AF08A208960889087D08700809
:10538400630857084A083E083108250818080C081D
:10539400FF07F207E607D907CD07C007B407A70739
:1053A4009B078E078107750768075C074F0743074C
:1053B40036072A071D0711070407F806EB06DF0660
:1053C400D306C606BA06AD06A106950688067C066F
:1053D4007006630657064B063E06320626061A0674
:1053E4000D060106F505E905DD05D105C505B90577
:1053F400AD05A105950589057D0571056505590569
:105404004D05410536052A051E0512050705FB0451
:10541400EF04E404D804CD04C104B604AA049F0430
:10542400940488047D04720466045B0450044504F7
:105434003A042F04240419040E040304F803ED03AE
:10544400E203D803CD03C203B803AD03A203980358
:105454008D03830379036E0364035A0350034503E6
:105464003B03310327031D03130309030003F6025F
:10547400EC02E202D902CF02C602BC02B302A902C4
:10548400A00297028D0284027B027202690260020A
:1054940057024E0246023D0234022B0223021A0234
:1054A400120209020102F901F101E801E001D80147
:1054B400D001C801C001B901B101A901A2019A0139
:1054C40092018B0184017C0175016E016701600109
:1054D400590152014B0144013D01360130012901BA
:1054E40023011C011601100109010301FD00F7004D
:1054F400F100EB00E600E000DA00D500CF00C900BF
:10550400C400BF00B900B400AF00AA00A500A00009
:105514009B00970092008D008900840080007B002E
:10552400770073006F006B00670063005F005B002F
:105534005800540051004D004A004600430040000A
:105544003D003A003700340031002F002C002900C0
:1055540027002400220020001E001C001A0018004E
:1055640016001400120010000F000D000C000B00B8
:1055740009000800070006000500040003000300FA
:105584000200010001000000000000000000000013
:105594000000000000000000000000000100010005
:1055A40002000300030004000500060007000800D1
:1055B40009000B000C000D000F0010001200140075
:1055C400160018001A001C001E00200022002400EF
:1055D400270029002C002F003100340037003A0046
:1055E4003D004000430046004A004D005100540075
:1055F40058005B005F00630067006B006F0073007E
:1056040077007B008000840089008D009200970061
:105614009B00A000A500AA00AF00B400B900BF0021
:10562400C400C900CF00D500DA00E000E600EB00BA
:10563400F100F700FD0003010901100116011C012E
:1056440023012901300136013D0144014B0152017E
:105654005901600167016E0175017C0184018B01B0
:1056640092019A01A201A901B101B901C001C801C5
:10567400D001D801E001E801F101F90101020902B8
:1056840012021A0223022B0234023D0246024E0287
:1056940057026002690272027B0284028D02970241
:1056A400A002A902B302BC02C602CF02D902E202DE
:1056B400EC02F6020003090313031D03270331035D
:1056C4003B03450350035A0364036E0379038303C6
:1056D4008D039803A203AD03B803C203CD03D8031B
:1056E400E203ED03F80303040E04190424042F0455
:1056F4003A04450450045B04660472047D0488047F
:1057040094049F04AA04B604C104CD04D804E40498
:10571400EF04FB04070512051E052A05360541059D
:105724004D055905650571057D0589059505A10595
:10573400AD05B905C505D105DD05E905F505010684
:105744000D061A06260632063E064B065706630663
:1057540070067C0688069506A106AD06BA06C6063E
:10576400D306DF06EB06F806040711071D072A0710
:10577400360743074F075C076807750781078E07DD
:105784009B07A707B407C007CD07D907E607F207A9
:1057940000061016000610160000000000000000AD
:0857A4000102030406070809D5
:0857AC0088AAFF7F0100000044
:0457B400E9010008FF
:0457B800C50100081F
:0C57BC0001000000100000000024F400B8
:040000050800265178
:00000001FF
