:020000040800F2
:1000000000000220B5260008290D00082B0D00086D
:100010002D0D00082F0D0008310D00080000000014
:10002000000000000000000000000000330D000888
:10003000350D000800000000370D0008390D0008DC
:1000400005270008052700080527000805270008E0
:100050000527000805270008C9090008052700082A
:1000600005270008052700080527000805270008C0
:1000700005270008052700080527000805270008B0
:10008000410D00080527000805270008052700087E
:100090000527000805270008052700080527000890
:1000A0000527000805270008052700080527000880
:1000B0000527000805270008052700080527000870
:1000C0000527000805270008052700080527000860
:1000D0000527000805270008052700080527000850
:1000E0000527000805270008052700080527000840
:1000F0000527000805270008052700080527000830
:10010000052700080527000805270008052700081F
:10011000052700080527000805270008052700080F
:1001200005270008052700080527000805270008FF
:100130000527000800000000000000000527000857
:1001400005270008052700080527000805270008DF
:1001500005270008052700080527000805270008CF
:1001600005270008052700080527000805270008BF
:1001700005270008052700080527000800000000E3
:10018000000000000527000800000000000000003B
:1001900005270008000000000000000005270008F7
:1001A000000000000000000000000000052700081B
:1001B000052700080527000805270008052700086F
:0401C0000527000807
:1001C40010B5054C237833B9044B13B10448AFF38D
:1001D40000800123237010BD1400002000000000E3
:1001E4006027000808B5034B1BB103490348AFF36C
:1001F400008008BD000000001800002060270008EF
:1002040053B94AB9002908BF00281CBF4FF0FF3179
:100214004FF0FF3000F088B9ADF1080C6DE904CE61
:1002240000F006F8DDF804E0DDE9022304B07047CD
:100234002DE9F047089D8E4604468846002B4AD196
:100244008A42174662D9B2FA82F64EB1C6F1200349
:1002540001FA06F820FA03F3B74043EA0808B44069
:100264004FEA174E1FFA87FCB8FBFEF1230C0EFB76
:10027400118843EA084301FB0CF29A4209D9FB189E
:1002840001F1FF3080F0EA809A4240F2E7800239BF
:100294003B449A1AA3B2B2FBFEF00EFB102243EACF
:1002A400024300FB0CFC9C4509D9FB1800F1FF320A
:1002B40080F0D6809C4540F2D3803B44023840EA2B
:1002C4000140A3EB0C0300211DB1F3400022C5E95A
:1002D4000032BDE8F0878B4205D90DB1C5E90001B4
:1002E40000210846F5E7B3FA83F1002946D17345A6
:1002F40002D3824200F20581841A6EEB03020120CC
:100304009046002DE5D0C5E90048E2E7002A00F058
:100314009080B2FA82F6002E40F0A4808A1A030C70
:100324004FEA174E80B2BCB20121B2FBFEFC0EFBB9
:100334001C2243EA024304FB0CF29A4207D9FB183D
:100344000CF1FF3802D29A4200F2E080C4469B1AB4
:10035400B3FBFEF20EFB123340EA034302FB04F448
:100364009C4207D9FB1802F1FF3002D29C4200F2F2
:10037400CA8002461B1B42EA0C40A5E7C1F12006D5
:100384008B4022FA06F71F430EFA01F420FA06F313
:100394002EFA06FE4FEA1749234300FA01F81FFA22
:1003A40087FCBEFBF9F01C0C09FB10EE44EA0E447A
:1003B40000FB0CFEA64502FA01F209D93C1900F132
:1003C400FF3A80F09C80A64540F2998002383C4474
:1003D400A4EB0E041FFA83FEB4FBF9F309FB1344E8
:1003E4004EEA044403FB0CFCA44508D93C1903F170
:1003F400FF3E80F08280A4457FD9023B3C4443EA1F
:100404000040A4EB0C04A0FB02EC64457346E146F7
:1004140062D35FD05DB1B8EB030264EB090404FA64
:1004240006F622FA01F31E43CC40C5E9006400211C
:100434004FE7B1FBF2FC010C41EA0E4180B240EA05
:1004440001423B4638463C46B846BE462026B1FBF0
:10045400F7F1A2EB080241EA0C4166E7014618E70E
:1004640010462CE7C6F120022EFA02F3B740B14041
:1004740020FA02F24FEA174E0A43B3FBFEF8BCB26D
:100484000EFB1833110C41EA034108FB04F9B04098
:1004940089454FEA104380B23ED9791808F1FF3CF0
:1004A40001D289451FD8A1EB0901B1FBFEF909FB73
:1004B40004F80EFB191192B242EA0142424529D2D4
:1004C400BA1809F1FF31C4D24245C2D2A9F10201DE
:1004D4003A44BEE7F0459DD2BEEB02036CEB070C39
:1004E4000138E14696E7A7EB09094944A8F1020C53
:1004F400B1FBFEF909FB04F8DBE773467FE75046DE
:1005040066E70846FDE63B44023A33E7ACF1020CE9
:100514003B441CE749469CE7A1EB0901C446B1FBF7
:10052400FEF909FB04F8C4E7704700BF2DE9F04F5A
:100534008BB00024059406940794089409940194BC
:10054400344B1A6B42F080021A631A6B02F0800279
:100554000192019A02941A6B42F001021A631A6B17
:1005640002F001020292029A03941A6B42F0020210
:100574001A631A6B02F002020392039A04941A6B30
:1005840042F004021A631B6B03F004030493049BFC
:100594004FF4404BCDF814B001260696DFF87CA04A
:1005A40005A9504601F07AFC4FF44079CDF8149037
:1005B400DFF86C8005A9404601F070FC4FF4104749
:1005C4000597154D05A9284601F068FC22465946B1
:1005D400504601F053FD22464946404601F04EFD87
:1005E40022463946284601F049FD05964FF4881302
:1005F4000693079605A9284601F050FC22460221DD
:10060400062001F0BDFF062001F0CAFF0BB0BDE8D3
:10061400F08F00BF00380240000002400008024092
:100624000004024000B583B000210191094B1A6B0C
:1006340042F400121A631B6B03F400130193019B31
:100644000A46102001F09CFF102001F0A9FF03B01E
:100654005DF804FB0038024072B6FEE700B58FB0C7
:1006640000230A930B930C930D930893099301931E
:1006740002930393049305930693079335484FF02D
:1006840080420260436083604FF0FF32C2600361C6
:10069400836100F05FFD002850D14FF480530A932A
:1006A4000AA92C4800F0BCFE002849D1294800F0D2
:1006B4007DFD002846D100230893099308A9254805
:1006C40001F040F800283FD10022019202920392E7
:1006D400059201A91F4800F0F9FD002836D1002336
:1006E40000931D4A116B41F400111163126B02F463
:1006F40000120092009A1948194A02604FF0C06231
:10070400426040228260C3604FF4806202614FF411
:10071400006242614FF4005282614FF48072C26100
:100724004FF400320262436201F03AFD80B9094A93
:100734000A4B53629A630FB05DF804FBFFF78CFF1A
:10074400FFF78AFFFFF788FFFFF786FFFFF784FFB5
:10075400FFF782FFE000002000380240380000204C
:100764008860024000B58FB000230A930B930C936A
:100774000D930893099301930293039304930593B0
:10078400069307931E481F4A02604360836040F645
:10079400FF72C2600361836100F0DCFC28BB4FF48C
:1007A40080530A930AA9164800F03AFEF8B914488F
:1007B40000F028FDE8B900230893099308A910481C
:1007C40000F0C0FFB8B960230193002302930393A0
:1007D4000593082201A90A4800F0A7FD68B9084852
:1007E40000F01CFB0FB05DF804FBFFF735FFFFF7CB
:1007F40033FFFFF731FFFFF72FFFFFF72DFF00BF98
:10080400980000200004004000B595B03422002177
:1008140007A801F076FF0023029303930493059342
:1008240006930093194A116C41F080511164126CC3
:1008340002F080520092009A019315490A6822F44A
:10084400404242F480420A600A6802F44042019243
:10085400019A0222079201220A9210220B920D930E
:1008640007A801F0F9F868B90F2302930021039156
:1008740004910591069102A800F0AAFF20B915B0D1
:100884005DF804FBFFF7E8FEFFF7E6FE00380240E0
:100894000070004008B501F0C1FEFFF7B5FFFFF797
:1008A40045FEFFF7BFFEFFF7D9FEFFF75BFF00F041
:1008B40001FA244800F0A6FB08B1FFF7CDFE082199
:1008C400204800F0BDFE78B91F4B1B6813B91E4BBE
:1008D40001221A601C4B1B68013B1C48C36000F0DA
:1008E40039FC18B1FFF7B8FEFFF7B6FE17480268E7
:1008F400154B1B685B085363002100F01FFE08B111
:10090400FFF7AAFE4FF48053114A126811491248A6
:1009140001F0ACFC08B1FFF79FFE0C4B1A68D368DA
:1009240043F40073D360012000F03CF90A2001F085
:10093400A1FE0A4B1A680A4B53F8220000F026F96C
:1009440030BFFDE79800002004000020E0000020F4
:1009540000000020D8C70008380000203400002020
:10096400A8270008052800D9704710B50446114B84
:100974001A68D36823F40073D3600F4801F0ABFC0A
:100984000D4B93F83530DBB2012BF9D14FF4805382
:100994000A4A12680A4951F82410074801F066FC13
:1009A40030B9044B1A68D36843F40073D36010BDA4
:1009B400FFF752FEE0000020380000200000002075
:1009C400C027000810B501F04FFE154B1B68C31A71
:1009D400C72B20D9124B1860124C22680132124BDB
:1009E400A3FB02139B0803EB4303A2EB4303236023
:1009F4002068FFF7B7FF012000F0D4F8022000F0D0
:100A0400D1F82268094B53F8220000F0BFF8012006
:100A140001F03CFB10BD012001F038FBFAE700BFF8
:100A24003000002034000020ABAAAAAAA82700089E
:100A340082B000EB40000023019304E000BF00BF3C
:100A4400019B01330193019B8342F7D302B07047AA
:100A540010B51420FFF7ECFF094CA36943F40043DD
:100A6400A3611420FFF7E4FFA36943F00043A361EB
:100A74001420FFF7DDFFA36943F40043A36110BD15
:100A84000008024010B504463D4A936943F480438C
:100A9400936110F0800F41D13A4A936943F00043C7
:100AA400936114F0400F40D0364A936943F4805365
:100AB400936114F0200F3ED0334A936943F40073DA
:100AC400936114F0100F3CD02F4A936943F4807360
:100AD4009361FFF7BDFF14F0080F38D0294A9369DA
:100AE40043F40043936114F0040F36D0254A93690C
:100AF40043F48053936114F0020F34D0224A936973
:100B040043F40073936114F0010F32D01E4A9369C9
:100B140043F480739361FFF79BFF10BDA2F500625D
:100B2400936943F400439361BBE7164A936943F026
:100B340080539361BDE7144A936943F00073936152
:100B4400BFE7114A936943F080739361C1E70D4A8B
:100B5400936943F000439361C5E70A4A936943F0FC
:100B640080539361C7E7084A936943F00073936124
:100B7400C9E7054A936943F080739361CBE700BFEB
:100B840000080240000002400004024038B5054657
:100B9400002403E0FFF776FF0134E4B2285D002867
:100BA400F8D138BD10B504463F4A936943F08043F9
:100BB400936110F0800F45D13C4A936943F00043A0
:100BC400936114F0400F44D0384A936943F480533E
:100BD400936114F0200F42D0354A936943F40073B3
:100BE400936114F0100F40D0314A936943F4807339
:100BF4009361FFF72DFF14F0080F3CD02B4A936943
:100C040043F40043936114F0040F3AD0274A9369E4
:100C140043F48053936114F0020F38D0244A93694B
:100C240043F40073936114F0010F36D0204A9369A2
:100C340043F480739361FFF70BFF40F6B830FFF77E
:100C4400F7FE10BDA2F50062936943F4004393617B
:100C5400B7E7164A936943F080539361B9E7144A9E
:100C6400936943F000739361BBE7114A936943F0BE
:100C740080739361BDE70D4A936943F00043936128
:100C8400C1E70A4A936943F080539361C3E7084A72
:100C9400936943F000739361C5E7054A936943F090
:100CA40080739361C7E700BF000802400000024060
:100CB4000004024008B5194B1A6B42F001021A6392
:100CC4001A6B42F002021A631A6B42F004021A63AE
:100CD400134A136843F08243136002F58062136879
:100CE40043F4A023136002F58062136843F0A04329
:100CF400136047F23050FFF79BFE3320FFF752FF9B
:100D04003220FFF74FFF0C20FFF74CFF2820FFF79E
:100D140049FF0120FFF746FF08BD00BF003802402D
:100D240000000240FEE7FEE7FEE7FEE7FEE770474D
:100D34007047704708B501F08BFC08BD08B5024840
:100D440001F0DCFA08BD00BF3800002082B00021A9
:100D540000910B4B5A6C42F480425A645A6C02F470
:100D640080420092009A01911A6C42F080521A64F7
:100D74001B6C03F080530193019B02B0704700BFCA
:100D84000038024010B582B00368B3F1804F04D03C
:100D94001E4A93422CD002B010BD04460023009397
:100DA4001B4A116C41F001011164126C02F0010242
:100DB4000092009A1748184A02604FF0C0624260DD
:100DC4008360C3604FF4806202614FF480524261D9
:100DD4004FF480428261C3610362436201F0E0F92F
:100DE40018B90C4B63629C63D5E7FFF735FCF8E751
:100DF40000230193064B1A6C42F002021A641B6C26
:100E040003F002030193019BC5E700BF0004004007
:100E140000380240380000208860024000B587B0E6
:100E240000230193029303930493059302680E4BEA
:100E34009A4202D007B05DF804FB002300930B4BE9
:100E44001A6B42F002021A631B6B03F00203009355
:100E5400009B0123019302230293059301A90448F3
:100E640001F01CF8E6E700BF00040040003802402F
:100E74000004024030B4036A026A22F001020262F2
:100E84004268846924F0730C0C6844EA0C0423F06F
:100E9400020C8B6843EA0C03114DA84203D005F5FC
:100EA4008065A84205D123F00803CD682B4323F0C5
:100EB40004030B4DA84203D005F58065A84207D171
:100EC40022F440724D6945EA020C8A6942EA0C0236
:100ED400426084614A684263036230BC704700BF69
:100EE4000000014030B4036A026A22F48072026294
:100EF4004268C46924F0730C0C6844EA0C0523F4BA
:100F040000738C6843EA0423114CA04203D004F517
:100F14008064A04206D123F40063CC6843EA04232E
:100F240023F480630A4CA04203D004F58064A042F9
:100F340007D122F440524C6942EA04128C6942EA15
:100F440004124260C5614A68C263036230BC7047E0
:100F54000000014030B4036A026A22F48052026243
:100F64004468C26922F4E6420D6842EA052223F489
:100F740000538D6843EA0533094DA84203D005F5B3
:100F84008065A84204D124F480444D6944EA851460
:100F94004460C2614A680264036230BC704700BFA7
:100FA4000000014010B4036A046A24F001040462DE
:100FB400846924F0F00C4CEA021223F00A030B4378
:100FC400826103625DF8044B704710B4036A046ADB
:100FD40024F010040462846924F4704C4CEA023254
:100FE40023F0A00343EA0113826103625DF8044B1A
:100FF4007047836823F070030B4343F00703836057
:101004007047000090F83D30DBB2012B32D102234F
:1010140080F83D300368194A934220D0B3F1804FE1
:101024001DD0A2F57C42934219D002F5806293420E
:1010340015D002F58062934211D002F578429342B2
:101044000DD002F57052934209D0A2F59432934226
:1010540005D01A6842F001021A60002070479A68AD
:1010640002F00702062A07D01A6842F001021A6049
:1010740000207047012070470020704700000140A5
:10108400704770470368324A904212D0B0F1804FE3
:101094000FD0A2F57C4290420BD002F580629042C0
:1010A40007D002F58062904203D002F57842904264
:1010B40003D123F070034A681343254A90422AD08F
:1010C400B0F1804F27D0A2F57C42904223D002F5A4
:1010D400806290421FD002F5806290421BD002F5DC
:1010E4007842904217D002F57052904213D002F524
:1010F400806290420FD002F5806290420BD0A2F53C
:101104009832904207D002F58062904203D002F5F3
:101114008062904203D123F44073CA68134323F0DE
:1011240080034A6913438A68C2620A688262084A71
:10113400904203D002F58062904201D10A690263B1
:10114400026842F0040202600122426103607047B7
:101154000000014040B310B5044690F83D30F3B1AF
:10116400022384F83D30214651F8040BFFF78AFF2F
:10117400012384F8463084F83E3084F83F3084F804
:10118400403084F8413084F8423084F8433084F8A5
:10119400443084F8453084F83D30002010BD80F898
:1011A4003C30FFF7EFFDDBE70120704740B310B59B
:1011B400044690F83D30F3B1022384F83D302146D3
:1011C40051F8040BFFF75EFF012384F8463084F8DE
:1011D4003E3084F83F3084F8403084F8413084F85D
:1011E400423084F8433084F8443084F8453084F83D
:1011F4003D30002010BD80F83C30FFF741FFDBE7B5
:101204000120704740B310B5044690F83D30F3B167
:10121400022384F83D30214651F8040BFFF732FFD6
:10122400012384F8463084F83E3084F83F3084F853
:10123400403084F8413084F8423084F8433084F8F4
:10124400443084F8453084F83D30002010BD80F8E7
:101254003C30FFF716FFDBE70120704730B4036A28
:10126400026A22F0100202624468826922F4E642B1
:101274000D6842EA052223F020038D6843EA051332
:10128400114DA84203D005F58065A84206D123F08C
:101294008003CD6843EA051323F040030A4DA842B6
:1012A40003D005F58065A84207D124F440644D6954
:1012B40044EA85048D6944EA8504446082614A688D
:1012C4008263036230BC70470000014090F83C30F8
:1012D400012B28D010B50446012380F83C300C2A99
:1012E4001CD8DFE802F0071B1B1B0C1B1B1B111B6C
:1012F4001B1B16000068FFF7BDFD00200FE000680F
:10130400FFF7ACFF00200AE00068FFF7EBFD0020C8
:1013140005E00068FFF71EFE002000E00120002326
:1013240084F83C3010BD0220704738B590F83C304A
:10133400012B66D004460D46012380F83C300C2A6C
:101344005AD8DFE802F0075959591B5959593059ED
:10135400595944000068FFF78DFD2268936943F0F2
:10136400080393612268936923F00403936122685C
:10137400936929690B43936100203EE00068FFF7FD
:101384006DFF2268936943F4006393612268936953
:1013940023F48063936122689369296943EA0123F2
:1013A4009361002029E00068FFF79CFD2268D3695F
:1013B40043F00803D3612268D36923F00403D361A3
:1013C4002268D36929690B43D361002015E00068C2
:1013D400FFF7C0FD2268D36943F40063D361226838
:1013E400D36923F48063D3612268D369296943EA0A
:1013F4000123D361002000E00120002384F83C3065
:1014040038BD0220FCE710B4846824F47F4C42EA1F
:1014140003220A4342EA0C0282605DF8044B7047DF
:1014240090F83C30012B78D010B50446012380F8A5
:101434003C30022380F83D300268936823F47F43F4
:1014440023F0770393600B68602B4CD023D8402B98
:1014540054D011D8202B03D00AD80BB1102B05D1AE
:1014640019462068FFF7C5FD002028E0012026E08A
:10147400302BF5D0012022E0502B0AD1CA684968EC
:101484000068FFF78FFD50212068FFF7B2FD0020B0
:1014940015E0012013E0B3F5805F3AD0B3F5005FA7
:1014A40014D0702B37D1CB684A6889680068FFF77D
:1014B400AAFF2268936843F0770393600020012316
:1014C40084F83D30002384F83C3010BDCB684A6872
:1014D40089680068FFF797FF2268936843F48043A4
:1014E40093600020EBE7CA6849680068FFF76DFD68
:1014F40060212068FFF77DFD0020E0E7CA684968A5
:101504000068FFF74FFD40212068FFF772FD0020BF
:10151400D5E70020D3E70120D1E70220704701F08E
:101524001F014FF0010C0CFA01FC036A23EA0C03BF
:101534000362036A8A4013430362704710B504468A
:101544000846002942D194F83E30DBB2013B18BF73
:101554000123002B6ED1002851D1022384F83E30A0
:10156400012201462068FFF7DAFF2368334A9342D9
:1015740003D002F58062934203D15A6C42F40042D4
:101584005A6423682D4A934249D0B3F1804F46D020
:10159400A2F57C42934242D002F5806293423ED04F
:1015A40002F5806293423AD002F57842934236D0F3
:1015B40002F57052934232D0A2F5943293422ED067
:1015C4001A6842F001021A60002032E0042908D0AF
:1015D40008290DD094F84130DBB2013B18BF012338
:1015E400B7E794F83F30DBB2013B18BF0123B0E703
:1015F40094F84030DBB2013B18BF0123A9E704286B
:1016040005D0082807D0022384F84130A8E7022334
:1016140084F83F30A4E7022384F84030A0E79A68B6
:1016240002F00702062A07D01A6842F001021A6083
:10163400002010BD0120FCE70020FAE70000014073
:1016440010B504460846002942D194F83E30DBB276
:10165400013B18BF0123002B6ED1002851D1022376
:1016640084F83E30012201462068FFF758FF2368C2
:10167400334A934203D002F58062934203D15A6CF9
:1016840042F400425A6423682D4A934249D0B3F18C
:10169400804F46D0A2F57C42934242D002F580624C
:1016A40093423ED002F5806293423AD002F57842EA
:1016B400934236D002F57052934232D0A2F594325E
:1016C40093422ED01A6842F001021A60002032E0E0
:1016D400042908D008290DD094F84130DBB2013B2D
:1016E40018BF0123B7E794F83F30DBB2013B18BFC2
:1016F4000123B0E794F84030DBB2013B18BF01236B
:10170400A9E7042805D0082807D0022384F841302B
:10171400A8E7022384F83F30A4E7022384F840308A
:10172400A0E79A6802F00702062A07D01A6842F076
:1017340001021A60002010BD0120FCE70020FAE736
:101744000000014090F83C20012A3DD010B403462B
:10175400012280F83C20022280F83D200268506873
:10176400946820F0700C086840EA0C0050601A6815
:10177400164882421AD0B2F1804F17D0A0F57C40AF
:10178400824213D000F5806082420FD000F5806061
:1017940082420BD000F57840824207D000F57050A9
:1017A400824203D0A0F59430824204D124F0800414
:1017B400496821439160012283F83D20002083F889
:1017C4003C005DF8044B7047022070470000014064
:1017D400002800F09B8070B50D4604464F4B1B68F3
:1017E40003F00F038B4208D2CBB24C4A1370136838
:1017F40003F00F038B4240F08B80236813F0020F39
:1018040017D013F0040F04D0454A936843F4E0530F
:101814009360236813F0080F04D0414A936843F49B
:10182400604393603E4A936823F0F003A1680B433E
:101834009360236813F0010F32D06368012B21D029
:101844009A1E012A25D9364A126812F0020F61D075
:1018540033498A6822F0030213438B6000F004FFCB
:1018640006462F4B9B6803F00C036268B3EB820FB0
:1018740016D000F0F9FE801B41F288339842F0D96B
:10188400032042E0264A126812F4003FE0D101200E
:101894003BE0234A126812F0007FD9D1012034E0E2
:1018A4001E4B1B6803F00F03AB4207D9EAB21B4B74
:1018B4001A701B6803F00F03AB422DD1236813F099
:1018C400040F06D0164A936823F4E053E1680B43EF
:1018D4009360236813F0080F07D0114A936823F428
:1018E4006043216943EAC103936000F021F80C4B83
:1018F4009B68C3F303130B4AD35CD8400A4B1860AC
:101904000A4B186800F064FE002070BD0120704787
:101914000120FAE70120F8E70120F6E7003C024045
:1019240000380240E0E70008100000200C0000200E
:1019340008B5464B9B6803F00C03082B05D00C2B11
:1019440043D0042B7FD1424819E0404B5A6802F03F
:101954003F025B6813F4800F12D03C4B5968C1F30B
:1019640088113B480023A1FB0001FEF749FC374BDB
:101974005B68C3F3014301335B00B0FBF3F008BDC4
:10198400324B5868C0F388104FEA401CBCEB000C83
:101994006EEB0E0E4FEA8E1343EA9C634FEA8C11F2
:1019A400B1EB0C0163EB0E03DB0043EA5173C90096
:1019B40011EB000C43F10003990200234FEA8C2041
:1019C40041EA9C51FEF71CFCD1E7204B5A6802F017
:1019D4003F025B6813F4800F10D01C4B5968C1F3AD
:1019E40088111B480023A1FB0001FEF709FC174BDB
:1019F4005B68C3F30273B0FBF3F0C0E7134B5868A2
:101A0400C0F388104FEA401CBCEB000C6EEB0E0ECA
:101A14004FEA8E1343EA9C634FEA8C11B1EB0C013D
:101A240063EB0E03DB0043EA5173C90011EB000CB6
:101A340043F10003990200234FEA8C2041EA9C51B0
:101A4400FEF7DEFBD3E7034899E700BF0038024006
:101A540040787D010024F400002800F0018270B574
:101A640082B00446036813F0010F41D0994B9B6880
:101A740003F00C03042B32D0964B9B6803F00C0349
:101A8400082B27D0934B9B6803F00C030C2B59D0E5
:101A94006368B3F5803F5BD0B3F5A02F5ED08D4B68
:101AA4001A6822F480321A601A6822F480221A60BA
:101AB4006368002B5CD000F0D7FD0546854B1B689E
:101AC40013F4003F14D100F0CFFD401B6428F5D976
:101AD4000320CCE17F4B5B6813F4800FD2D07D4BA5
:101AE4001B6813F4003F03D06368002B00F0BA8135
:101AF400236813F0020F60D0764B9B6813F00C0F31
:101B04004AD0744B9B6803F00C03082B3FD0714BF5
:101B14009B6803F00C030C2B69D0E368002B75D091
:101B24006D4B01221A6000F09FFD0546694B1B684E
:101B340013F0020F61D100F097FD401B0228F5D984
:101B4400032094E1634B5B6813F4800FA0D0C6E7D5
:101B5400604A136843F480331360A9E75D4B1A6845
:101B640042F480221A601A6842F480321A609FE7B5
:101B740000F07AFD0546574B1B6813F4003FB7D0BD
:101B840000F072FD401B6428F5D903206FE1514B2E
:101B94005B6813F4800FBAD14E4B1B6813F0020F2D
:101BA40003D0E368012B40F05F814A4A136823F0B5
:101BB400F803216943EAC1031360236813F0080F93
:101BC40049D06369002B33D0434B0122C3F8802EE4
:101BD40000F04AFD05463F4B5B6F13F0020F3AD10C
:101BE40000F042FD401B0228F5D903203FE1394BA8
:101BF4005B6813F4800F90D1CEE7364A136823F064
:101C0400F803216943EAC1031360D6E7324B00228B
:101C14001A6000F029FD05462E4B1B6813F0020FD5
:101C2400CBD000F021FD401B0228F5D903201EE192
:101C3400294B0022C3F8802E00F016FD0546254BE3
:101C44005B6F13F0020F06D000F00EFD401B02285C
:101C5400F5D903200BE1236813F0040F76D01D4B54
:101C64001B6C13F0805F33D100230193194B1A6C62
:101C740042F080521A641B6C03F080530193019B61
:101C84000125164B1B6813F4807F29D0A368012B10
:101C94003AD0052B3ED00F4B1A6F22F001021A677F
:101CA4001A6F22F004021A67A368002B3CD000F0DC
:101CB400DBFC0646074B1B6F13F0020F45D100F007
:101CC400D3FC801B41F288339842F3D90320CEE041
:101CD4000025D6E70038024000004742007000406B
:101CE4006B4A136843F48073136000F0BDFC06462E
:101CF400674B1B6813F4807FC8D100F0B5FC801BD0
:101D04000228F5D90320B2E0624A136F43F00103BD
:101D14001367C9E75F4B1A6F42F004021A671A6F20
:101D240042F001021A67BFE700F09EFC0646594BD9
:101D34001B6F13F0020F08D000F096FC801B41F2D9
:101D440088339842F3D9032091E0EDB9A369002BBD
:101D540000F08C804F4A926802F00C02082A54D09A
:101D6400022B17D04C4B00221A6600F07DFC04466F
:101D7400484B1B6813F0007F45D000F075FC001B36
:101D84000228F5D9032072E0424A136C23F08053F1
:101D94001364DBE7404B00221A6600F065FC05463D
:101DA4003C4B1B6813F0007F06D000F05DFC401B29
:101DB4000228F5D903205AE0E369226A1343626AD0
:101DC40043EA8213A26A5208013A43EA0243E26AEE
:101DD40043EA0263226B43EA02732E4A53602E4B9A
:101DE40001221A6600F040FC04462A4B1B6813F0DB
:101DF400007F06D100F038FC001B0228F5D903202F
:101E040035E0002033E0002031E0012B31D0214BBC
:101E14005B6803F48001E26991422CD103F03F0234
:101E2400216A8A4229D1616A47F6C0721A40B2EB2C
:101E3400811F24D103F44031A26A5208013AB1EB64
:101E4400024F1ED103F07062E16AB2EB016F1AD146
:101E540003F0E043226BB3EB027F16D1002006E0CF
:101E640001207047012002E0012000E0002002B0C0
:101E740070BD0120FBE70120F9E70120F7E701200D
:101E8400F5E70120F3E70120F1E70120EFE700BFC8
:101E940000700040003802400000474200230F2B2E
:101EA40000F2E38070B582B065E085684FEA430EC6
:101EB400032404FA0EF425EA0405CC6804FA0EF4AB
:101EC4002C438460446824EA02044A68C2F3001282
:101ED4009A40224342605CE0DC08083450F8242035
:101EE40003F00705AD004FF00F0E0EFA05FE22EACF
:101EF4000E0E0A69AA4042EA0E0240F824205CE071
:101F0400062200E0002202FA0EF22A430234574D60
:101F140045F82420564A94686FEA0C0224EA0C051A
:101F24004E6816F4801F01D04CEA0405504CA5609D
:101F3400E46802EA04054E6816F4001F01D04CEA76
:101F440004054B4CE560646802EA04054E6816F427
:101F5400003F01D04CEA0405454C656024682240EA
:101F64004D6815F4803F01D04CEA0402404C2260D5
:101F740001330F2B77D801229A400C6804EA020C33
:101F840032EA0404F4D14C6804F00304013C012C4B
:101F94008BD94A6802F00302032A09D0C4685D00A1
:101FA4000322AA4024EA02048A68AA402243C260A7
:101FB4004A6802F00302022A8ED004684FEA430EF4
:101FC400032202FA0EF224EA02044A6802F003022F
:101FD40002FA0EF2224302604A6812F4403FC7D06C
:101FE40000220192234A546C44F480445464526C99
:101FF40002F480420192019A9C08A51C1B4A52F8E3
:10200400255003F0030E4FEA8E0E0F2202FA0EF251
:1020140025EA0205184A90423FF474AF02F5806243
:10202400904216D002F58062904214D002F580628C
:10203400904212D002F58062904210D002F5806284
:1020440090420ED002F5806290423FF459AF0722CD
:1020540059E7012257E7022255E7032253E70422F6
:1020640051E705224FE702B070BD704700380140C8
:10207400003C014000380240000002400AB1816186
:1020840070470904816170477047000008B5054B2B
:102094005B69034200D108BD024B5861FFF7F4FFAE
:1020A400F9E700BF003C014030B405682C6824F413
:1020B40080242C60046863608368402B05D0036827
:1020C40099600368DA6030BC704703689A600368FB
:1020D400D960F8E710B40368D9B210390A4AA2FBF0
:1020E40001421209094CA25CC2655F2907D96FF34A
:1020F400090304338365806D5DF8044B70476FF307
:1021040009038365F7E700BFABAAAAAAD8E70008CA
:10211400836A826992B9012B0AD0022B02D00BB1D7
:1021240000207047C36A13F0807F28D100207047D5
:10213400C36AB3F1C07F24D000207047B2F5005FBA
:1021440009D0022B25D9032B25D1C36A13F0807F34
:1021540023D100207047032B03D8DFE803F01404D5
:10216400140A00207047C36A13F0807F0DD1002049
:102174007047C36AB3F1C07F09D0002070470120C3
:1021840070470120704701207047012070470120EB
:1021940070470120704700207047012070470000FD
:1021A40070B5044600F060FA002C5BD005460223AB
:1021B40084F83530002384F834302268136823F01F
:1021C4000103136023681A6812F0010F0AD000F0AB
:1021D4004BFA431B052BF5D920236365032084F8B0
:1021E400350070BD1A68204911406268A068024336
:1021F400E06802432069024360690243A069024324
:10220400E0690243206A02430A43616A04291ED03A
:102214001A602668756925F00705636A1D43042B57
:1022240007D1A36A1D43E36A1BB12046FFF770FF81
:1022340090B975612046FFF74DFFE26D3F2393404F
:10224400836000206065012384F83530C9E7E16AC2
:10225400206B01430A43DBE740236365012084F8D4
:102264003500BEE70120BCE73F8010F038B50446D6
:10227400856D90F8340001282BD0012084F83400B7
:1022840094F83500C0B2012804D0002384F8343017
:10229400022038BD022084F8350000206065204605
:1022A400FFF702FFE26D3F239340AB60226813689F
:1022B40043F016031360236C23B12268136843F0C0
:1022C400080313602268136843F0010313600020BD
:1022D400DFE70220DDE790F83530DBB2022B03D0D4
:1022E4008023436501207047052380F83530026858
:1022F400136823F00103136000207047F0B583B026
:10230400044600230193724B1D68724BA3FB0535F1
:10231400AD0A876D3E68C26D08239340334210D0E6
:1023240003681A6812F0040F0BD01A6822F0040232
:102334001A60C26D08239340BB60436D43F00103F0
:102344004365E26D01239340334209D02268526908
:1023540012F0800F04D0BB60636D43F00203636529
:10236400E26D04239340334209D02268126812F0CC
:10237400020F04D0BB60636D43F004036365E26D38
:1023840010239340334224D02268126812F0080FBD
:102394001FD0BB6023681A6812F4802F0DD01B680D
:1023A40013F4002F04D1236C9BB12046984710E00E
:1023B400A36C73B1204698470BE01A6812F4807F2F
:1023C40003D11A6822F008021A60236C0BB120466C
:1023D4009847E26D20239340334255D02268126817
:1023E40012F0100F50D0BB6094F83530DBB2052BDF
:1023F4000ED023681A6812F4802F33D01B6813F4AC
:10240400002F2AD1636C002B3ED0204698473BE036
:102414002268136823F0160313602268536923F0BB
:1024240080035361236CA3B12268136823F008036B
:102434001360E26D3F239340BB60012384F8353081
:10244400002384F83430236D002B3FD02046984776
:102454003CE0A36C002BE7D1EBE7E36BA3B1204690
:10246400984711E01A6812F4807F09D11A6822F0A3
:1024740010021A60012384F83530002384F83430C4
:10248400E36B0BB120469847636DFBB1636D13F0AA
:10249400010F17D0052384F835302268136823F020
:1024A40001031360019B01330193AB4204D82368F9
:1024B4001B6813F0010FF5D1012384F83530002394
:1024C40084F83430E36C0BB12046984703B0F0BD78
:1024D40010000020B5814E1B002807DB00F01F020E
:1024E400400901239340024A42F82030704700BF5C
:1024F40000E100E0002808DB0901C9B200F16040F6
:1025040000F5614080F80013704700F00F000901E6
:10251400C9B2014B1954704714ED00E000B500F046
:102524000700C0F1070CBCF1040F28BF4FF0040CE6
:10253400031D062B0FD9C31E4FF0FF3E0EFA0CF0FD
:1025440021EA000199400EFA03FE22EA0E0241EA52
:1025540002005DF804FB0023EEE70000074AD3689D
:1025640023F4E0631B041B0C000200F4E06003434B
:1025740043F0BF6343F40033D360704700ED00E0E1
:1025840010B50446054BD868C0F30220FFF7C6FF18
:1025940001462046FFF7AEFF10BD00BF00ED00E08E
:1025A40008B5FFF799FF08BD0138B0F1807F0BD261
:1025B4004FF0E0235861054AF02182F823100020EF
:1025C400986107221A6170470120704700ED00E00E
:1025D40010B504460E4B1A784FF47A73B3FBF2F33A
:1025E4000C4A1068B0FBF3F0FFF7DEFF68B90F2C5C
:1025F40001D901200AE0002221464FF0FF30FFF705
:10260400BFFF054B1C60002000E0012010BD00BF8F
:1026140008000020100000200C00002008B50B4B1F
:102624001A6842F400721A601A6842F480621A60EE
:102634001A6842F480721A600320FFF78FFF0F209C
:10264400FFF7C6FFFEF782FB002008BD003C0240F6
:10265400034A1168034B1B780B441360704700BF97
:102664002801002008000020014B1868704700BFB3
:102674002801002038B50446FFF7F6FF0546B4F1FB
:10268400FF3F02D0044B1B781C44FFF7EDFF401BB7
:10269400A042FAD338BD00BF08000020034AD2F894
:1026A400883043F47003C2F88830704700ED00E0CE
:1026B400DFF834D0FFF7F2FF0C480D490D4A002330
:1026C40002E0D458C4500433C4188C42F9D30A4AE3
:1026D4000A4C002301E013600432A242FBD300F051
:1026E40019F8FEF7D7F87047000002200000002018
:1026F4001400002000E80008140000202C01002031
:10270400FEE702440346934200D1704703F8011BDD
:10271400F9E7000070B50D4D0D4C641BA4100026A4
:10272400A64209D10B4D0C4C00F018F8641BA41000
:102734000026A64205D170BD55F8043B98470136E2
:10274400EEE755F8043B98470136F2E7F8E700084E
:10275400F8E70008F8E70008FCE70008F8B500BF50
:10276400F8BC08BC9E467047F8B500BFF8BC08BC6E
:042774009E467047C6
:1027780053696E6500000000536177005472696107
:102788006E676C65000000005069616E6F000000A4
:1027980047756974617200004472756D000000002D
:1027A8007827000880270008842700089027000859
:1027B80098270008A0270008D8C70008D88700086D
:1027C800D8A70008D8670008D8470008D827000805
:1027D800E9070408F7073407D0068A071D089F078A
:1027E8009E060A068D0675077E0721075907930777
:1027F8003007D7063F0701081C087707F106EA06E5
:102808005307060822083B0763068706BE077309B5
:10281800E9099408AF0725085508120846087708FB
:102828008D083309D7099B09AB0879079E068D06E1
:10283800E30635076F076207510777070807CC05D6
:1028480006054105D8058D0649078B072207650649
:10285800CE05770567053E06BF073E08B907D307CB
:102868006C08820857083008E407A507CD078108D7
:10287800F30849089807EA0778080509EE09630A82
:10288800E4094F094C094F09AA0842081909F50932
:10289800BB093F0923093F090609BC072606F805B5
:1028A8004A07BF08D108D307B707E807A606B50542
:1028B800B306F2076F086508B9071E07FD06F2069A
:1028C800610717080C08D9078D0857092C098308D0
:1028D8004708AD085B099509C708E80756086D0958
:1028E800E009AE095A094C093B0955086407C307B2
:1028F80075086D0897081509C9087907ED05680571
:10290800580638071F074007ED07000842073F062B
:102918003B05A50456058E07970955096C070E0651
:10292800FB058C06EF064D074608D90861086B08B9
:1029380008097F08F806DD05410645081B0A460A0E
:10294800C009E209950A7D0AED08C707AC08480ADC
:10295800B90AC009B8082C09380AEE09AA08A70755
:102968003E077707E00700083108A6089D08AC076E
:10297800BE067F0648062B06F106EE0724089607D2
:1029880071063E05C00439056F065F07A0072D08CC
:10299800A408D107A1065C06D90660076007B50739
:1029A8002109190ADF098109EF08E3071707010759
:1029B800D5075209860ADD0A4A0A4C095B087E07D0
:1029C800730747088F087E08AD0854083208CC08FA
:1029D8005908D506D8059405DE0582060C077A073E
:1029E8008307F0062306B5058906EB072C081808A7
:1029F800380850073D064006130746087A0891072D
:102A080099072C08020863087509C60962095C0958
:102A18005A0A170B380A5D093A095E080A08830939
:102A2800E50A810BEC0B750B200ADA0838082D082B
:102A3800EF07CA07F808C70A6F0BE40A5F0A080A13
:102A4800480964082F08D808A909140AD309D30823
:102A5800F207C40765071006C90418059906CB07CD
:102A6800DD07F006140600067C06E90695061E0634
:102A7800D306BB072D075F06DC06B707B507E306D5
:102A88004B06A506C706E8054D05BC057E06BE062D
:102A98006F065906B10677068605E2049C041704FA
:102AA8008403FA025D029D02BD03520457047404B4
:102AB8008104AD04E10489045104000581050F0572
:102AC8004304E3038A0456056D05AD050A062A0684
:102AD800AD0635072B0751071208ED08F309550A0B
:102AE800E7084107EC069E076B095A0BC70BF10A6A
:102AF8002B0A160A2E0ADA09BB09C10A050C210C91
:102B0800740BA10A9609430824075D07D7082A0A07
:102B1800F70A010C580D110EF30DB50DBF0DC00DC0
:102B2800100D200C930CE20DCE0DDE0C700C290C50
:102B3800790CC50D320FFF0FFF0FFF0FFF0FFD0FB1
:102B4800FF0FCA0FB80E1D0E120FFF0FFF0FF60F63
:102B5800FA0FFA0FF70FB50F8B0FA40FE70FFF0F40
:102B6800FF0FFC0FED0FFF0F1C0F7C0DDE0C030D8C
:102B7800B20D500EE50EC20FF20FF40F7E0FE80DE6
:102B8800E30C010D390DFA0CC40CEB0C280D550D96
:102B98007D0C210BC20A680A4709A6084609430AA0
:102BA800AF0A310A48090A092909F608E8081E097E
:102BB800EA08F507C406E105F605F6063D073406FA
:102BC8001E05040519051504C20279022503BD0373
:102BD8008A038D02B4016602BC030604E5030C04F3
:102BE8000404790378028901B401300236010D002A
:102BF80003001A000000000000000100130012008A
:102C080044001301FF002B0015001C0026002900BA
:102C180011002F0011001000120001003E001D00DD
:102C280000001C000D000F00140002000700000047
:102C3800000004000000000009000400000000007B
:102C480001000000000000000D002C001F00000023
:102C5800020012000F0000000000000000000A003F
:102C68000D00000000000800150009001C004100CC
:102C780014000800430055003C005900AD00E30073
:102C880026014A01FE00AF00AE00EA000B01E50094
:102C9800C3001501D80156026B027602D502DC0387
:102CA800A5047A042A046C042605D5051B06180613
:102CB8007606A6071709E709B7092B0959094B0A28
:102CC8005D0B1B0C4F0C5E0C930CAB0CF30C780DCE
:102CD800960DB60D360E720E840EB30EB10EDB0EC7
:102CE800920FF10F5F0F9E0E970E530FC90FB50F7E
:102CF800D40FFD0FFF0FEF0F8A0F840FE50FF60FAC
:102D0800E60FF60FFF0FFF0FFF0FFA0FF30FFF0F7E
:102D1800FF0FFF0FFF0FFF0FFF0FFF0FF80FED0F54
:102D2800FF0FFF0FFF0FFF0FB00F400F630F850F4F
:102D38006D0FB80FFF0FFD0FFE0FFF0FF60FFF0F00
:102D4800F40F7D0F4B0FB90FF80FEF0FFD0FFF0FAB
:102D5800FF0FFF0FFF0FFF0FFB0FFF0FFF0FFF0FFF
:102D6800E30FD30FFC0FFF0FF10FFF0FFF0FED0F56
:102D7800E80FFF0FA80FCD0E500E490E810EBC0EA6
:102D88007B0E150EFC0DD60D9D0DA50D880DC80CDE
:102D9800EE0B550B9F0A0F0A000A170AF309AA0936
:102DA8006909D8081A08C9076E07AD060106900513
:102DB8005F054C05E4047D044D0464032002C6014C
:102DC8009A0147017F0155019B008700C5009800C3
:102DD8003C000000000014000A0000000A00100077
:102DE80000000000020009000500000001000000CA
:102DF80000000000000000000000000000000000CB
:102E080000000200000000000000000000000000B8
:102E18000B0000000000000001000000000000009E
:102E28000000000000000700020000000000000091
:102E38000700000000000000000000000000000083
:102E480003000A0000000000110017000400000041
:102E58000000000000000000000000000400010065
:102E68000900030000000000000002000800000044
:102E78000000030024008B003501B601BF01CB011F
:102E88005102E50219033C0398030B043404F703C9
:102E98000804B2043B056805A00509069306250742
:102EA800BF07500884084E0821085708F408CA09C3
:102EB800790AB70AA20A740A720ACD0A470B8F0B5D
:102EC800C00B5F0C630DED0DD50DC30DD90D0D0EA7
:102ED8003D0E5F0EF80EC20FFF0FFF0FF20FCE0F61
:102EE800DE0FF70FEF0FF50FF90FF70FFF0FFF0FBB
:102EF800FF0FF50FF80FFF0FFF0FF70FFE0FFF0F74
:102F0800FF0FFE0FFA0FF50FFF0FFF0FFF0FFB0F5D
:102F1800E90FE50FF40FFC0FFF0FFF0FFF0FFF0F77
:102F2800FF0FFF0FFF0FFF0FFF0FFF0FFF0FFF0F29
:102F3800FF0FF70FFB0FFF0FFC0FFF0FFF0FFF0F28
:102F4800FF0FFF0FFF0FF40FFB0FFF0FFF0FFF0F18
:102F5800FF0FF40FF70FFE0FF80FF70FF40FF80F2E
:102F6800FE0FFF0FFF0FFF0FFF0FFE0FF90FFD0FF3
:102F7800FF0FFF0FFF0FFF0FFF0FFF0FFF0FFF0FD9
:102F8800F20FFF0FF80F5D0FFB0E290F390FDD0E43
:102F98007E0E620E440EDD0D580D1E0D460D560DAB
:102FA800180DEB0CD40C840C2B0C0E0C1D0C0E0CF9
:102FB8009E0B370B450B490B110BE60AA60A570A5D
:102FC800250A090AE9098609F708B108C708FA08AD
:102FD800ED087308010805082E08FE0795075B072A
:102FE8004C071407BF0697066806EA058205890597
:102FF80088051505A704A0048E042F04F003FB031D
:1030080011041A04F0039C035C031E03DF02D302BD
:10301800F7020B03D40266021B02F901BB0175011A
:103028007301B90106022C021402AE014E013801E7
:103038003A01490175019501A0018F01530132013F
:103048004B013A012F017C01970167015C01730173
:10305800B301D201A201C8013902490220020E02BD
:1030680016024002490217020F026C0209036003AC
:10307800070372023E02870228039E03A4039C03EF
:10308800AF03AD039C039F038F034103F502F202D4
:103098003803B8031004DD038A03A503F8031F04EB
:1030A80038047F04C10498041304E2033C04B40404
:1030B8000F052105F704FB0441058905B105E6055F
:1030C8006106FD067907DD07280832081408030899
:1030D8002B086B086F086D08A208E50820093C0951
:1030E8001D09FA08F9080C096B09DF09E509D10976
:1030F800F5093F0AA00AD60ADD0ADF0ABA0A860AD3
:103108008C0AA30A9C0ACE0A660BF30B030CB00BBD
:103118006C0B520B390B380B9A0B310C750C740C69
:10312800970C8A0CF10B730B5A0B430B3F0B310BAB
:10313800D90AA70AAD0A8F0A860AA90A8B0A230A9E
:10314800D409B9099E09540914095109A9096F0933
:10315800170938094909D708530853080909B10953
:103168006709D408A1083C08C507B407CE071C089E
:1031780062082208EE071B08F60749079706730638
:10318800D406ED0690066506820672062006BC0582
:103198005705E1049704DA0407056B04D603000415
:1031A80056042D04B70391039D034C03FB0244030B
:1031B800A9037503DB02A4021D0376031D03810224
:1031C8000F021302730275021702DB017201C100BC
:1031D800AB00310166011A018D001E006400170161
:1031E8005001F90090006C00C6005E0187016A0179
:1031F8009F01A70108017200A5006F01D0016101BC
:103208000B0150019701AE01C401A501540132011F
:103218007301BF01980142010801C500A300C40061
:103228000E016F019A015E0119010201F8002001E7
:1032380063018301900176014301540195019D01C9
:103248008F0195018501830191019C01AD017901EF
:103258001A013501CD0139024A0244022B02060245
:10326800D901B301C001D501CC01EB015102AB0278
:10327800D402D402BB02C402D902B5029D02FA02EA
:10328800A0030C04F20379031603130357038C03FA
:1032980075035E03A7031E0462047F04DE0452055F
:1032A800500508050805400549053D057305BF0596
:1032B800E40501061A06FA05D005CA05990562054E
:1032C800B0055A06C306C106AB06A80685066206FF
:1032D8008506BE06D706FD06260730073C074707C2
:1032E8003007EB06AD06AE06AD06A006CE06FF0615
:1032F800E506AF06A106C306E806E706050769075F
:1033080081071907C006E9065C077C072F07E20654
:10331800BD06A906A4069E0692069706A406C3063D
:10332800F3060707D0065F065106E6064007E006E3
:103338006706430662069D06AB068C0670065B06AA
:1033480059066B066B0657065606540634062506BC
:103358006106AF0693062F06E805C705C905C90526
:10336800A6059A05A60581053D055B05C405C005AA
:103378005D056405C705E805E705E305C005C5055E
:10338800EE05FB05EF05D905E5053E06A106CD06C8
:10339800C1065F06FD0527068E06B0069F06B20623
:1033A80000072107040717071F07CA068C06B1067E
:1033B800060741072207E106CD06C206CD06FB0631
:1033C800E606AE06C706F506EC06BD0688067E06C6
:1033D800A806F7062907E50683067E068806750609
:1033E800AD063B07C507DE07770720070007C006BD
:1033F8008F06AB06B6069406B306EE06D906A306F4
:103408008C0661060806AE058605CE053C065A06FA
:103418004F062E06F305F3050906E705F3053C06F6
:103428004E0653068206AA06BC06990643061E06E1
:1034380036063E065506BC062F073007DB06C606CD
:1034480015076207810795078D0762074D07610712
:10345800740767075C076A0776076A073607F30683
:10346800EC060B071D073D0767077D078D077C07DF
:1034780037070A0727074C07640774074E0723070F
:103488003A0776076F0715070C078307CF07C007AA
:10349800C607BE077407570770077F0789079C0789
:1034A800B807C907E2070D081008D407AE07BA071E
:1034B800BE07BA07B107D1071D08430853085B08C0
:1034C8003808260864089F08A5089B0885089108FD
:1034D800CD08070945095709250924093B09330976
:1034E8006A09B609CE09010A3B0A520A690A620A40
:1034F800670AAD0AB30A600A4A0A840AE50A540B45
:10350800680B120BC70AAD0ABD0AF70A340B4B0B3E
:10351800490B730BDB0B310C080C890B760BD60BA4
:10352800F90BD70BDC0BFA0B0D0C210C2E0C510CE4
:103538008B0CBB0CC50CAE0CBE0C000D2F0D2A0D50
:10354800060DCB0CBA0C210D8F0DA00D650D110DBC
:10355800EF0CFD0C250D5A0D620D520D700DB10DBD
:10356800080E3D0EFD0DC90DF40D070E030E1B0EC2
:10357800390E6A0E8F0E690E380E2E0E440EA30EEB
:10358800E50EB90EB60EFB0E210F260F0F0FE50E36
:10359800E10EF80E030F000F110F440F550F300FF7
:1035A800DD0E860E750E6E0E2C0E240E9E0E100F5E
:1035B800180FE40EAF0EA30E910E950EF60E310FF6
:1035C800FE0ED20EE00E170F510F330FD20EDF0E84
:1035D8003C0F640F730F840F9E0FA80F850F580FB1
:1035E8007B0FDE0FFC0FFF0FF60FAE0FD00FFF0F94
:1035F800FD0FFF0FFF0FFD0FFE0FFF0FEC0FDD0F8D
:10360800D00FB70FE50FFF0FFB0FFE0FFC0FFA0FE0
:10361800F90FFF0FFE0FFF0FFC0FDA0FE80FFF0F78
:10362800FF0FF10FE90FE90FDF0FFB0FFF0FFA0F85
:10363800FF0FFD0FFF0FFD0FFF0FFF0FFF0FFF0F16
:10364800F80FFC0FFC0FF90FFF0FFF0FFF0FFF0F15
:10365800FF0FFF0FFF0FFF0FFF0FFF0FFF0FFF0FF2
:10366800FF0FFF0FFF0FFF0FFF0FFF0FFF0FFF0FE2
:10367800FF0FFF0FFE0FFF0FFF0FFD0FFE0FFF0FD6
:10368800FD0FFF0FFF0FFF0FFF0FFF0FFF0FFF0FC4
:10369800FC0FFF0FFD0FFB0FFE0FF50FFF0FFE0FC7
:1036A800CB0FD20FF00FB30F650F550F4D0F380F1B
:1036B800540F720F4B0F1E0F2E0F600F4D0FE10EA0
:1036C800A30ED50E140F290F3C0F2F0F100F1E0F2E
:1036D800350F330F210F070F080F1F0F1D0F050F91
:1036E800DB0EA10E770E550E510E590E350E1D0E1E
:1036F800150EF40DD80DB00D6C0D5A0D8D0DC40DB1
:10370800D20D7F0DEB0CA90CB20CB40CBE0CC20C84
:10371800D10C130D210DD40CB40CC80CB70C7D0CB6
:10372800260CF50BFC0B0D0C530C8A0C170C6F0BAD
:103738005E0B920B880B5D0B3C0B2F0B2C0B1C0BA1
:10374800080B080B050BB30A3B0A2D0A970AD90A7E
:10375800A00A500A430A6A0A910AAC0AB00A950AF2
:10376800740A480A130AEB09DD09F109100A210A4B
:103778002C0A460A490A220AF509BA097D0991095B
:10378800130A9D0AAE0A530AE60990095F097C09E3
:10379800D209FE09DE09AF09A709B609A9099A09DC
:1037A80089095B0940094709660987098D09830961
:1037B8005A090809CC08EA0820091E091009E8086E
:1037C8009A088208B508EF08EB08BF08A208A708FE
:1037D800CF0804090909B3086208630862083608B3
:1037E80021086308BA08B40876087308A708C5084A
:1037F800C308A90881088508BA08E908E808B608CE
:10380800860864086708AD08EA08F208DE08B10807
:103818007408530865089B08C308A7087F088C0824
:1038280089087C089508880851083D085608A108A9
:10383800EF08E708BC08C208D908D408D608FE086B
:1038480023091B09F308C808BF08EC0835095809FB
:10385800460920090B093C097A096D093C091E092A
:103868002E0966097E096E096B09790975095709D8
:103878001C09FC083209700977094D09F508BD08CB
:10388800C708B6088E08AC08EB08F708C2089D08F8
:10389800C808F508DB08B508B908B508B208DE0895
:1038A800F208CE08B208A4087A085B0877089508D9
:1038B800840840080008040829082D081908FB078F
:1038C800B6077A0753072D0728070607A6065E06D8
:1038D80055064C0642062C06CD05860586058F053D
:1038E80084054A05270537052805C20460045404E1
:1038F8005A0440040404C603AA039D037E035A0322
:1039080055033D03E8027402220215022E023C020E
:10391800000289013A012601F00089005200650081
:103928008B006E0023000000000001000000000072
:10393800000000000400040005000100000003006E
:10394800000000000200020000000300060006005C
:10395800040006000A000500040003000400020039
:103968000000000000000000020000000200020049
:103978000300020000000000020002000300010032
:10398800030001000000000000000000000000002B
:1039980001000000040008000A00090006000800F1
:1039A80007000500010000000000030008000100F6
:1039B80000000000000000000000000000000400FB
:1039C80002000000040000000000000000000000E9
:1039D80000000100000000000000000000000000DE
:1039E80000000400030000000000000000000000C8
:1039F80001000100000000000000000000000000BD
:103A080000000100010000000000000000000000AC
:103A1800000000000000000000000000000000009E
:103A2800000000000000000000000000000000008E
:103A3800000000000000000000000000000001007D
:103A48000000000001000000020005000300000063
:103A58000000020001000000000002000000000059
:103A68000100050003000000000002000200000041
:103A780000000000010004000600060016002D00EA
:103A8800350048008700CF000901330136011B01CA
:103A98000F012A015F017C016F017701A501BC01BB
:103AA800BA01B00194019401C701F3010F023F026A
:103AB8006A0285029802990290028F0296029F027A
:103AC8009D02A602E7023C03650378038D03920377
:103AD8009F03C403DD03DE03FB033A0464046704A5
:103AE8005A045204560450042B040E0426045F049E
:103AF8008C049C048D048704BB04180554054205F6
:103B08000905F3040B0532055C057F058905800569
:103B180082059805B205BD05BD05CF0514067706D3
:103B2800AE06A4069606A806B1069C06AF061207BE
:103B38006E0778075C0747073C07410754076F077C
:103B48009407BA07D707E807E307DA07E90703087E
:103B58001C08320847086F08AA08CB08C308BB0826
:103B6800D208EF08F208E808EF0809092A093D0910
:103B78003809430965096A09420919090D091A0929
:103B880038097809C209C709960988099609A20956
:103B9800C109E209F209FA09F109ED09110A2D0A28
:103BA800190AFD09F9090D0A260A200A0A0A070A4C
:103BB800060AFB09020A160A2F0A5C0A7F0A790A12
:103BC8006F0A690A4E0A4D0A810AA30A900A5C0A1A
:103BD800230A1B0A3C0A2A0AF309F8093C0A680A5C
:103BE800480A100A0F0A320A470A550A590A450AAA
:103BF800390A350A1F0A0B0A120A360A5A0A570ADC
:103C08003F0A3A0A450A4B0A3C0A1B0A000AF1090C
:103C1800EA09050A360A490A310A0D0A050A2E0A6E
:103C2800610A5E0A240AE009BD09CD09F409FD0903
:103C3800F309FE090D0AF509BF0991097509640917
:103C48006A099409C209C5099E09730963096C09BF
:103C58005E09320926095109810995098C09690902
:103C68004D094C094D09460953097A09A009AB09C0
:103C78009B0984097309720978096709530961095D
:103C8800700960094D094A0962098E09A109960956
:103C98008D098709820987099309A609A9098D0948
:103CA8007709750975098409A109B309B609AE0927
:103CB800A709A8099A098A09A909E409030A030AAC
:103CC8000A0A1B0A0F0AF409F209FE09030A050A7F
:103CD800FA09EF09F809020AFE09EF09F009150ABD
:103CE8002E0A260A310A460A430A420A480A510A93
:103CF800770A9E0A970A690A450A550A860AA50A92
:103D0800B20ABE0AD60AF60AEE0AC90ACB0AE10ABC
:103D1800E10AE40AF00A070B290B1C0BDD0AB50AB5
:103D2800B10ABA0AD80AFE0A150B1F0B2A0B350B63
:103D3800320B220B1F0B310B4D0B6E0B940BB40B7C
:103D4800BD0BAF0B980B930BA40BB10BC60B000C60
:103D5800360C3A0C2A0C280C3E0C660C7C0C6F0CAA
:103D6800580C4B0C5E0C940CB50CAA0C980CA30CBC
:103D7800D40C040D000DD90CB20C9C0CAE0CD80C54
:103D8800F10CF10CE20CE20CFB0C030DF10CE20C53
:103D9800E50C100D450D4D0D3E0D3E0D4D0D6E0DF6
:103DA800830D770D680D620D690D7C0D710D600D29
:103DB800770D800D660D5F0D720D880D8D0D740DDC
:103DC8006A0D810D900D810D550D240D1D0D360DBB
:103DD800440D480D5A0D790D850D6A0D460D3C0DA3
:103DE800430D4C0D4E0D490D430D3A0D470D730D06
:103DF800850D680D440D330D370D470D4B0D450DE1
:103E08003B0D330D380D450D4A0D410D1E0DEE0CC1
:103E1800DA0CE70CFF0C190D250D130DF30CDA0C59
:103E2800CD0CC30CBB0CC40CDB0CE10CCD0CB40CDE
:103E38009F0C950C9A0C9C0C900C8C0CA30CC90C28
:103E4800D50CB90C970C780C520C400C540C820C05
:103E5800B80CD40CC80CB10C990C7F0C700C720CFB
:103E68007E0C8C0C870C8A0CB50CD20CAF0C780C21
:103E78005F0C670C790C7E0C770C750C7F0C8C0C26
:103E88008D0C7A0C640C5E0C700C910CA20C990CC5
:103E9800890C840C8E0C9D0C9E0C940C820C740C5A
:103EA8007F0CAA0CD50CDC0CBC0C9E0C980C8E0C50
:103EB800800C860C9A0CB50CD00CD40CCB0CC90C0D
:103EC800BF0CB40CB80CC00CC40CCC0CE40C0F0D1B
:103ED800230D060DDA0CBA0CAE0CCB0C020D260D18
:103EE800290D170D0A0D130D210D1F0D120D0E0DA5
:103EF8001A0D280D310D430D620D750D6D0D510D07
:103F0800380D3C0D530D560D3F0D3D0D720DBB0D7B
:103F1800DA0DD50DD90DDF0DCA0DAF0DAB0DB60DF0
:103F2800BD0DBC0DB90DBB0DBE0DBB0DB50DA30D63
:103F3800870D850D9E0DAF0DB70DCA0DF00D1C0E2A
:103F4800230EF40DC30DB70DBD0DC20DBF0DAE0D83
:103F5800960D880D870D8B0D7D0D570D380D370D7E
:103F68004C0D640D670D4E0D360D340D3B0D460D91
:103F7800480D2F0D140D0F0D0D0D030DFA0CFB0C34
:103F88000B0D130D030DF10CDF0CC30CA60C820CEA
:103F9800630C6E0C820C730C580C4B0C4C0C4D0CB7
:103FA800340C100C030C000CED0BD10BB80BAB0B45
:103FB800A20B990B940B820B5D0B3E0B260B110B7E
:103FC8000A0B120B260B310B110BD90AB70AB00AD0
:103FD800AF0AA00A830A730A6C0A5A0A4B0A3C0AF7
:103FE8000E0ACF09B109C209CB09A40978096809E1
:103FF80055092909F508D308C408AC0885086D08CF
:10400800590836080F08F607ED07E507D107BF0777
:10401800AF0794077E07730768075F073807F60638
:10402800D306CA06AF069206810673066C065206C8
:1040380026060F060506EF05D305B50595057F0588
:104048006B054F052C050805EE04D904BF04980438
:104058006404490467048804770449041804F603CF
:10406800EC03F00300040D04F403C103A703AC033D
:10407800B803AD037E03570356035A034B033903B2
:104088002B031603F702E402E902EF02E102C4027D
:104098009C02710255024B024D0253025B026602FA
:1040A80067024B0223021302230236023002220265
:1040B80028023A023902240216021D022C022E029C
:1040C8001E020902FA01FB0111022A0235022B0223
:1040D8000E02F001E201E501F20103020102EE0124
:1040E800E401E501E601EB01F601FC01FB01F90140
:1040F80003020F020C020302F001D001C501DF0127
:10410800090234024D024402320232024D027802A0
:10411800900284026B0260026D02820283028102B5
:104128008602850287029202900283028002880238
:104138008E02810278029502BA02C202BF02BF0251
:10414800C002BC02B802C302DA02E602ED02F902BA
:104158000403150324032203120308031703360379
:1041680049035A036C036E036D03720370037903EA
:1041780091039E039E03A103B003C903DA03E50379
:10418800EF03EC03E403ED0303041A042D043804DD
:1041980045044B0442044804610473047E048C04FF
:1041A8009904A604AD04AC04B804CA04CE04C3043C
:1041B800C704EF041E052C051E050E050705160588
:1041C8002E05380539053D054005410549055F05BA
:1041D8007C058A05870587058B0588058D05A1055A
:1041E800B305C505DB05E505DF05DC05D805D505FF
:1041F800D805DB05EA0515063D06430635062906FA
:104208001C060706FB05080616061B06320650069E
:1042180055064C0649064D0650064E064F065806EA
:104228005E066106710686067F065C064B06610619
:1042380077066E065E0663068406B006CA06D106D1
:10424800CF06BF06B306C406E106F406FA06F90669
:104258000307190723071E0714070B070F071E0775
:10426800260725072B07370736072D072E07390797
:104278004D0764076D0763075C0759075A076A0704
:104288007D0788079007900789078E079907970782
:104298008F079007A107C107D807D807DA07EA07E9
:1042A800F807F607EC07F4071008220823082C087B
:1042B8003D084A085208550855084C083C083A0871
:1042C800520870087C0877086F086F087908850815
:1042D80087087E0876088508B008D008CD08BC088D
:1042E800B808C308DC08ED08EC08EF08020915094E
:1042F80016090909FC08F908F508F2080009100967
:104308001A0922091D090F090809050909091509CA
:104318001A0915090E090609FF08020916093809BC
:104328005109590951093D092B092009190923097E
:104338003B0944093A092A091C0920093509430996
:10434800420933092609290930093709420942096E
:104358003A093A0941094D09520941092B09240929
:104368002809350947094C0946093E093209240933
:104378001F092F09420946094109400946094E0902
:104388004B094309490952094B093D0932093109C9
:104398003909400942093B09280914090309F508A4
:1043A800F50801090E091E0923091009F508D9089D
:1043B800C108B408AB08A508AA08B508C008C80809
:1043C800C008A408850870086608640867086E08AD
:1043D800760877086A08580851084E083B081908F3
:1043E800FC07FB07120823081B080A080108F9073D
:1043F800E407CD07C807D307CF07B907AD07B50747
:10440800BC07B0079A0783076E0764076907730735
:1044180075076E07650761075F0753074307390785
:104428003607390742074B0749073B072C0723077D
:104438001507FF06F406020718071B070607F2060A
:10444800F606FD06F606F406010707070107FA0651
:10445800F206EE06F606FF060007FE06FF0605074B
:104468000707020701070A071507180711070E07AC
:1044780018072307220718071207190727072D0708
:104488002D0725071C0720072E0737074207520765
:104498005C075A07510741072D07200728074207DD
:1044A80055075A075D07670775077D07770772077E
:1044B800760781079407A707AF07AD07A4079A07F0
:1044C8009A07A807B707BD07C107C707CB07D107D2
:1044D800DF07E307D407CB07D407E107E907EA07B3
:1044E800F007030811080D0806080808150825082C
:1044F80026081E08170816081F082908240819087E
:104508001B0826082D0830082F082F0833083A08FA
:104518004408500858085C085808540853085208BA
:104528005208520852085D086B08760884089208F9
:104538009008870886088E089908A008A608B00879
:10454800B108AB08A5089F08980893089608AB0817
:10455800BE08B908B008B208B208B408B808BA0862
:10456800C108CD08CE08C408B908AE08A6089D0839
:104578009F08B208C308BE08A808910880087D08EB
:1045880089088F088A088F089B0897087F0866089B
:104598005B08610870087B087D0882088808800825
:1045A8006D0862085B084F08460847084F08580816
:1045B80058084E08470846083E082E082D084008A7
:1045C8004C0844083D083D0840084708420831089F
:1045D8002A08270823082A0839083B083008200831
:1045E8001408120815081B08240829082D08310882
:1045F800330834082A081D081F0829082B0824082E
:104608001B081E0830083708290821082A08350819
:104618003908390834082A0821081E0822082908F8
:104628002F0832082F0823081A0820082C083408F5
:1046380039083D083E0841084A08500848083E081D
:104648003A0837083C0850085E085E0860086608A3
:10465800680869086C087508800881087D0885085D
:10466800910891088C088A0890089D08A508A10857
:104678009A089A089B0898089808A108A608A70805
:10468800B208C308C608BF08C008CD08D708D908AB
:10469800D608D208D108D408E008ED08F208EE08D8
:1046A800EC08EE08F108EF08E308D808D908E40890
:1046B800F208F708F708FC0804090209FD08FF08D2
:1046C80003090009FE0804090B09100917091A094A
:1046D800190919091C09240931093D094C09580906
:1046E8005C095F09620960095E095F09600961097F
:1046F80065096C097209710969095C0950094C0955
:1047080057096B09770977097309730971096C09E6
:1047180065095F0961096B096E096F0970097009FC
:1047280070096E0965096109670970097C098109C1
:10473800780970097409780975096B0963096609AC
:104748007009760973096B09610955094C094E0905
:10475800530952094F094F09530959095A09570969
:104768004F0947094109390932092C0921091A0950
:104778001C091D091809170919091C091A090E0924
:104788000409040909090E0911090F090A0901098F
:10479800F208E308D908D308D708DC08D708CE08F8
:1047A800C908C308BB08BB08C708CF08CD08CD088F
:1047B800CF08C908C308C208C008B808B208B208B8
:1047C800B608BA08BD08BA08B408AE08AC08AD08FF
:1047D800B1079D079A07A507B207B507B007B50740
:1047E800C907E607FB070008FF07FF07FC07F707ED
:1047F800F70705081B08240819081A083D0868085F
:1048080075086308540859084C081108CF07AF0702
:10481800A007800750072D0738075C076007420785
:104828003F077A07C907F107F207ED07EC07E30727
:10483800CA07B207BC07EE071B0820081408260899
:104848006308AA08D508E708EF08EA08C908940821
:1048580061083F081D08E507AF07A407C007CD0793
:10486800A6076F0766079507C307BC079C079F073E
:10487800C507D107B207A707DC0729084F0846086C
:104888003A0851088E08D108EF08E208C808B308AA
:104898009A08790859083D081608E507BB07A307D1
:1048A800A407B307B607B207C307EC070C080E083E
:1048B800FE07F307E707D307C707C907C707C507F1
:1048C800D007DD07E807F707170844085D084D0813
:1048D800300822082708300824080808F707F907CD
:1048E800FD07F907EF07F60712082B083F085508D8
:1048F8005E08610864084F0823080408FB07F707E7
:10490800DD07A1076E076A0781079B07BA07DA0761
:10491800EA07DE07C507CF07040831083C082D0859
:1049280016080308020811082A0845085D087508D2
:104938008E089D088E086C0859085D085E084C08AA
:104948002008D10780075D076C0786079A07B40718
:10495800C607BC07AD07C007EE071B083A0845089D
:104968003B08340841084B083B0826081E081A086B
:1049780029086308AA08C808B008830865086308F6
:104988006C08750876085208FF079F076C078607AA
:10499800CB07E10790071F070707540797078C07FE
:1049A80067076E079607A80795078A07B407F907E8
:1049B8001E08220836086B08A108B808A308800852
:1049C8008A08CC080509FA08B80869082808FC0705
:1049D800E707E307DF07C5078A073A0704070D0754
:1049E8003B07590754073E0738075B079A07C6076E
:1049F800C907BC07C507EB071708350840083E0874
:104A08003508280837087D08BC08A0083808E107D9
:104A1800C607CE07DD07F70716080F08D0078A076D
:104A280077079B07C607CA07AA07A207D4070B0878
:104A3800FF07BC079E07D7072F085A0842080C082B
:104A4800EC07EA07EE07F3071E087408B2089E0889
:104A580056081B0807081008290845085108360891
:104A6800F607C407C707DE07D107A507AA07000886
:104A780048081708A9079307EE0750087108630844
:104A880058084E081008A6078307DD07460841089E
:104A9800DF078D078A07B107BA07AA07CD072F08CE
:104AA80074085708FD07D007FC073C0835080308B9
:104AB80008084A0869083008E807F00747089E0808
:104AC800A8086C083D0851087B0875084C082B0895
:104AD8000B08D7079B076D0754074F075D077D072E
:104AE800A807D107EA07F8071D086B08A108790885
:104AF8003B086D08F1081909A4081F082C08AE081E
:104B0800F108AE0868088908B6087008F307DC07DA
:104B18003F0891086F081908ED07D10789072F0783
:104B280006071D0757078507850767076D07C2072B
:104B380037086F0860085D089608C908B108770843
:104B48007308A508D908F108E208B5089D08BF0848
:104B5800F008E808A10868089408F808DB08FB07CB
:104B68003B07A507B908EC08E8071A078F0782086A
:104B78009B08EA07BC07980865090A090B08B507E6
:104B88005108DC089008F307DB072F0855081D08B3
:104B9800B40752072507320757075C071407A10611
:104BA800600675069606620606060B064D0616068C
:104BB80072053B05C3056D0697063406B2058605E2
:104BC800CB0526062806E205D405280687068D06A5
:104BD8001D068E057F0502064C06BF05EA04D004B3
:104BE8006505A3052A05C3041305B205D6055905AD
:104BF800E8042205C0050706D805BB0505065B06BF
:104C0800590638066C06D306F706CE06C2062107F3
:104C1800AE07EB07C407A807DD072F086208780866
:104C28009808C008C608B108BD08F2081C092A0976
:104C3800370940091C09CD08A108DF086509BD0925
:104C4800A9095C0924091D0932092C09FF08F5087E
:104C58004A09BD09DA09980964099609160A880AF1
:104C6800B10AAA0ABC0AF20A050BDD0ABB0AB70A8E
:104C7800BC0ADF0A290B3E0BE20A820A9A0AF80AE2
:104C88000E0BC60AA00ADE0A0C0BAC0AFD09B6090F
:104C98000D0A560AED0948093C0998097F09ED08EB
:104CA800C7087009130ADA0930090C098709DE09EF
:104CB800AC096D09B409410A710A390A0B0A0B0AD1
:104CC800010AFB09320A6A0A320AAC095D0970094D
:104CD800960985094F0949098B09AC09630908092F
:104CE8000F096209A709B709AD09BA09F6093D0A0A
:104CF800490A0F0AE4090A0A510A700A6E0A810A67
:104D0800A90AB60A970A720A650A600A520A400A8C
:104D1800330A1F0A010A080A5C0AB30A9F0A450AED
:104D2800340A830AA70A5C0A2E0A9D0A370B260B47
:104D38005F0AB609CD09480A5B0AEE09A009D2093B
:104D4800200A060A8F092C091C0941094C09040983
:104D580091084C0842083B080808A5074D074E076C
:104D680092079C073907C906BA06E706DC067D06DE
:104D78000C06D705CF058905DA04420441049D04D1
:104D8800AC043404AE03890395037A033B03EC02B5
:104D980095026A0277025D02E60171017101E10183
:104DA80042021D02AA0198010A025102FA01800179
:104DB80094010B0220029501F100AD00AE009800AD
:104DC80064005C00A000F00012011E0146016F01A2
:104DD80065013C0135016201A101CD01E801010233
:104DE80018022C024B028502D2021803380346032C
:104DF8006A039703B003CF030C044A046D047B04D1
:104E08009104B904F70447058105760547054C0563
:104E18008D05BD05A70575057B05CB050706DB05D3
:104E28009205AB0520068E06D50615076707C2074B
:104E38000D08430865087C08B2082209A009CA09B8
:104E48007E091D0926098409AF098B098909E10929
:104E5800260ADE0955094809C909210AE2098B0908
:104E6800B7092B0A340AD209C009540AF90AF90AFF
:104E78007B0A3F0A870ADD0AF30AF20A030B0E0BC4
:104E8800F00AAF0A6E0A490A400A6A0ADC0A4F0B9E
:104E9800590B080BDE0A210B810B970B790B7E0B44
:104EA800C60B130C0F0CBD0B9D0BF80B6E0C860C70
:104EB800560C470C820CC20CC00C930C810C9A0C3B
:104EC800B90CC50CCF0CE90CF70CE80CE50C100D6F
:104ED800400D500D5A0D880DB70D990D3D0D1D0D46
:104EE800660DA40D720D110DFB0C330D580D3F0D01
:104EF8003A0D9D0D280E4E0EFB0DB40DE10D550E0D
:104F0800950E7A0E4F0E510E6E0E6E0E350EEF0D7B
:104F1800D60DEB0D0D0E150EDC0D780D3A0D330D7B
:104F2800210DDF0C950C790C820C6F0C0F0C8C0B7F
:104F38004A0B600B6C0B200BBD0A9D0AA50A790A67
:104F48000C0AAC098D097F093609B5083308C7076B
:104F58007C07600753071507A20648063406230690
:104F6800B8051905DF0439059105410586041904BA
:104F78001E041504B40343032003340313039E02E1
:104F880031020D020702EA01C401B301A001650163
:104F98001701E100C400A3006D0038002A00410099
:104FA80058005F00690082009600A000B900F40074
:104FB8003A016F018B01A101D0010E0232023202C7
:104FC8002C0240026302660242022E025D02BB020C
:104FD800FB02EC02C802F6027303E30315042C0477
:104FE8005D04AA04E90407051B0546059A050006A1
:104FF8004A06570636061B0628064806590653066B
:1050080055069706040739071207E2060D078207B7
:10501800D807E407F20737086B084208FA071708A9
:105028009608E208B40876089D08FD081509E908FD
:10503800F2085109A909AC09710943094A09760915
:10504800A509BA099C095C092E093909650971097C
:1050580056096309AB09D709A5093809E008D30837
:10506800FC080E09DF08A708B008E508F508D1080C
:10507800BC08F1085909B009CE09D209F509410A55
:105088008A0AB30ACA0AE90A0F0B2F0B450B4F0B02
:10509800410B2D0B3A0B560B510B410B5E0BA10B21
:1050A800C30BA40B7F0B9E0BF90B470C5E0C620C19
:1050B8008B0CE00C1D0D180D090D340D760D780DB7
:1050C800320DEC0CE60C230D6E0D8A0D6C0D4A0D9D
:1050D800550D830DA40DA10D940DAC0DEB0D140E03
:1050E800F70DB00D850D9D0DC60DBC0D8F0D7F0DF7
:1050F800960DA20D760D2C0D080D100D050DC30C87
:10510800750C440C190CCD0B6F0B250BEF0AC10A5B
:105118009D0A790A420AFD09D109D409DF09B709AC
:105128005A09FE08CD08A4084308B90762075E07B4
:105138005A07FF065B06C80584056C053D05EF04A4
:10514800AF048F046404080495033703F902CD0201
:105158009D0263022C02F101AF017C0167015B0132
:10516800480132011F010D01EB00BA008F006D00EC
:1051780044001700000010002F00350024001E0016
:105188003000470055005F0074009900CB00FB0019
:10519800160120013B017701B301BC0199018B0184
:1051A800B201E301EF01DD01D601F40126024B0251
:1051B8006902A002F6025303AA03EE0312042204B2
:1051C8004C04A504000524051F05380572057D0556
:1051D8003A05F304F9043A0564055F0569059F0576
:1051E800C705BD05B505F9057806D406E306E0064A
:1051F800030732074307430759078A07BC07DC0739
:10520800E107CC07BD07D2070B0842084B081D0869
:10521800F207FA07230837082A08220836084A0836
:1052280038080208D507E70739087E087C085608B9
:105238004D085C084F081A08F307000827083508C6
:1052480023080A08F607E807E807FF0720083E08CA
:105258005A088808D1081D094C097509C8093D0A6A
:10526800920AB00AD00A1D0B660B670B3C0B380B71
:10527800760BBD0BD00BBF0BC50BF10B150C160C29
:105288001F0C610CCC0C1A0D2B0D200D320D700D5E
:10529800BC0DF00DF50DD50DB70DC40DF20D110EA9
:1052A800160E260E590E940E9B0E690E4D0E800E8C
:1052B800CF0EDF0EB90EB40EE10EF90EDB0EB30EF3
:1052C800B20ECF0EE10EE10ED50EBB0E9B0E850E73
:1052D800710E4D0E210E040EFB0DE60DA80D420DAC
:1052E800EC0CDB0CDF0CA50C370CE80BD60BD40B45
:1052F800B00B6C0B330B280B2F0B030B900A1D0AFA
:10530800E809D509B1096F092709E0088B082308BE
:10531800BC075D070A07C90697066C063506E5054A
:1053280092055C0543052A05FC04C20491045C044B
:105338001604D703AB0386035F0336030D03EE029F
:10534800DB02C302920249020902F4010D021302B0
:10535800E901CB01E6010902F701C101AD01DA015A
:105368001E023F022C021E025802C702100320032D
:105378002C034E037803A003BB03BF03B703C30387
:10538800EF0316041804020416047804EC0422053A
:1053980037057505D705180626063F0699060E0730
:1053A8004F0761078907C107B6076F0750077707D7
:1053B800AB07C407C107AF07A907BC07D607E207B1
:1053C800F5071F0854088308A608A8089108930839
:1053D800CB081C0945092A09FF080C0947096A096D
:1053E8004D0922092E0950093A09F408CA08E108AA
:1053F80016092709FB08BD0894087B0869085508A1
:105408004508580883088C086E085D085B0837084B
:105418000508020819080E08EA07D807CC07A907E3
:1054280077075F076F078007750769078707D20740
:10543800190838084A088908FA086709A609BF0937
:10544800CF09E9090B0A200A140A070A280A660A7A
:10545800760A450A1B0A350A7A0AB70AD40AD10A13
:10546800D10A000B570B9F0BBC0BC50BE90B1F0C8C
:105478002F0C120C080C310C6A0C8E0CA00CAC0C06
:10548800B40CBE0CC50CBD0CB30CBD0CD70CE90C90
:10549800E30CC50CA80CA20CA20C980C950CA10C42
:1054A800BB0CD80CD90CAF0C830C890CAF0CAF0C0F
:1054B8006C0C1A0CF10BE80BC20B680B110BED0A04
:1054C800D60A9B0A4A0A000AC909AC099E098D092D
:1054D8006B093909FA08B5087D085C08360806081A
:1054E800DF07BE0782071A07A20644060E06E7056D
:1054F800AB054B05E804A60472042804DE03B603D2
:10550800A3037E03490322031103FD02D702A70266
:105518008502820289027B02620254024B0239022E
:105528000F02DE01C901DA01EA01E101CE01C5017C
:10553800C401CB01E001F201EE01E401F7012D0203
:1055480062027B028B02BE02120352035B03590301
:105558008103BF03E403E503DC03DE03F3030F0465
:1055680028044A048404CF040F053B056B05AA05EB
:10557800E70517064E06A70611075F078A07A20761
:10558800A4079F07AA07C207D807DB07CF07CD07DD
:10559800D707D207BA07B107D30712083D083E0854
:1055A80036084C088808C508DE08DB08E60806093E
:1055B8001F091409F908F80818092E091A09F10829
:1055C800D608C508AC08A408B508B7089B087F0822
:1055D8006F084B080608CD07CC07F2070B08F90738
:1055E800CF07B907BE07BC07A60794079D07B707EB
:1055F800C007A10773075F0762074B070607C906BD
:10560800C906E606EC06E006E306FB062107510795
:105618008807C10703084F088D08A808AA08BC080E
:10562800F4083B096109570946095B099109B7095B
:10563800B309A909CA090B0A340A3F0A570A980A82
:10564800F00A380B530B560B690B8B0B9F0BB40BE3
:10565800D60BF90B1C0C420C530C400C290C360CC5
:105668005D0C700C5E0C4B0C590C770C780C5A0CBA
:105678004B0C660C8E0CA90CAA0C970C8C0C930C7A
:10568800970C910C840C730C6A0C6B0C5C0C2B0C37
:10569800ED0BC30BA60B830B500B030BAA0A670A6F
:1056A800420A250A030AE309CC09AE0974092B0941
:1056B800F508D708C408AD0894087C0853080908F9
:1056C800AF0764072B07EE069F064806F205A305F9
:1056D80067053605F904B9048E04780462044904A0
:1056E8002A040304E603E203E803E203DA03E0031F
:1056F800F50308040004D803AA039303940393034F
:105708007E035E0348034E03680376036C03680355
:105718008503AB03BA03C303E9032C046B049B049E
:10572800CA04FD042A054F057505A005CF05F40533
:105738000206FB05F50507062706430661069C06D3
:10574800F306440770077E079507C90718087A0803
:10575800D7081D0952098309B009D209DB09DB09F9
:10576800F309240A430A330A0B0AF709030A170A3A
:10577800240A2E0A3D0A4F0A5D0A6B0A780A850A2E
:105788009E0ABB0ACC0AD10AD00ACC0AD10ADF0A7F
:10579800E60ADD0AC60AAF0A960A6D0A3F0A260A11
:1057A8002A0A3B0A380A120AD709A2097C095909A8
:1057B800320921093209410932090909E008D108E9
:1057C800D508D208C108AD089D08930881085C086F
:1057D8002A08F507C707AD079C077F075B07480737
:1057E800480746072D071B073D078E07D807F5070B
:1057F800FA070F0843088008A708B808CA08DD0890
:10580800E508E808F508090918091F092209210906
:105818001E092C094F0976099909C109E509FB09EF
:105828000B0A160A190A270A550A8C0A9F0A920AAD
:10583800960AB30AC50ABA0AAA0AB40AD90AFE0A13
:10584800060BED0AD30AD60AE50AE30ADA0ADF0AE2
:10585800EE0AF80AF80AF00ADF0ACA0ACA0ADC0AD3
:10586800DB0AC30AA10A7A0A580A460A350A110A43
:10587800D3098D094D090B09C908990874085408FA
:1058880033080808D5079B075F072D070F0703078D
:10589800FC06E606B406710633060506D4058F0530
:1058A8003E05F304AE0469041C04CA0381034703DC
:1058B80022030D03EF02C502AC02AE02B302A60238
:1058C8008D028802B102ED020803F702E702EE0238
:1058D800F702EA02CE02BB02B802B802AC02950295
:1058E8008A029202A002A602A902B202C302DC0244
:1058F800FF0236037903B203DF030B04390466049D
:105908009604C304E9040905240538054205490538
:105918004F0558057A05BD0502062D06450665069C
:105928009806D206080740078F07F6075408850827
:105938009B08BF08ED0814093909600979097D0930
:1059480073096D09710978097B09830991099A0915
:105958009F09A709B209C609E609050A120A120A27
:105968001F0A370A450A4F0A600A6E0A6F0A5C0A5C
:10597800340A0E0A050A0D0A090AF709EE09EA09A6
:10598800C90988094409140902090109F608DE0849
:10599800C908C308C308B9089C087C0872087C08B1
:1059A80081086C084508290822081108D8078C07BF
:1059B80066076C0767073807F906CF06CD06ED06B8
:1059C8000E0721073207500772078C07A507C30780
:1059D800EC0719083C084C08510862088E08BF08F3
:1059E800D308CE08D208EF080309F908F2081D0900
:1059F8006D09AD09C309CB09DA09F3090F0A250AAC
:105A0800330A480A6E0A9A0AB60AB60AAA0AAC0AF9
:105A1800C50AE60AFE0A050B010B030B0D0B0D0B5D
:105A2800020BFC0A010B0F0B1F0B230B150B080BAA
:105A3800090B170B210B1F0B130B010BF00AE30AC1
:105A4800D40AC00AB30A9F0A700A2F0AE9099F09F3
:105A5800610934090F09F008D408AE0878083D0830
:105A68000F08F107D907BD079C077B075D073D07AE
:105A78001307DF06A80679064F061B06D20582051E
:105A88003D050005C304840446041204F103E3033E
:105A9800D303B60391036F035A035A0365037203D2
:105AA8008A03AC03C103C003C203D503E503DC03C7
:105AB800C003AC03A603A3039C039B03A603B40380
:105AC800B503B003BA03D603FA0328045C048804B8
