:020000040800F2
:10000000002000208D29000821200008232000085E
:1000100000000000000000000000000000000000E0
:100020000000000000000000000000002520000883
:100030000000000000000000272000082920000820
:10004000DD290008DD290008DD290008DD29000878
:10005000DD290008DD290008DD290008DD29000868
:10006000DD290008DD290008DD290008DD29000858
:10007000DD290008DD290008DD290008DD29000848
:10008000DD290008DD29000800000000DD29000846
:10009000DD290008DD290008DD290008DD29000828
:1000A000DD290008DD290008DD290008DD29000818
:1000B000DD29000800000000DD2900080000000024
:1000C00010B5064C2378002B07D1054B002B02D02E
:1000D000044800E000BF0123237010BD3000002061
:1000E00000000000382A0008044B10B5002B03D094
:1000F0000349044800E000BF10BDC04600000000F6
:1001000034000020382A0008002243088B4274D3B0
:1001100003098B425FD3030A8B4244D3030B8B4208
:1001200028D3030C8B420DD3FF22090212BA030C11
:100130008B4202D31212090265D0030B8B4219D3F2
:1001400000E0090AC30B8B4201D3CB03C01A524112
:10015000830B8B4201D38B03C01A5241430B8B425A
:1001600001D34B03C01A5241030B8B4201D30B0343
:10017000C01A5241C30A8B4201D3CB02C01A52416A
:10018000830A8B4201D38B02C01A5241430A8B422D
:1001900001D34B02C01A5241030A8B4201D30B0216
:1001A000C01A5241CDD2C3098B4201D3CB01C01A30
:1001B000524183098B4201D38B01C01A524143093A
:1001C0008B4201D34B01C01A524103098B4201D328
:1001D0000B01C01A5241C3088B4201D3CB00C01A95
:1001E000524183088B4201D38B00C01A524143080D
:1001F0008B4201D34B00C01A5241411A00D2014632
:10020000524110467047FFE701B5002000F006F8A4
:1002100002BDC0460029F7D076E770477047C04658
:100220008446100062468C461900634600E0C046D2
:100230001FB500F079FD002801D40021C8421FBD80
:1002400010B500F0BDFC4042013010BD10B500F00B
:100250006BFD002801DB002010BD012010BDC04651
:1002600010B500F061FD002801DD002010BD012067
:1002700010BDC04610B500F0E7FC002801DC0020EE
:1002800010BD012010BDC04610B500F0DDFC0028F7
:1002900001DA002010BD012010BDC046002B15D191
:1002A000002A13D1002906DB01DC002806D000203B
:1002B000C043410802E080210906002007B402483B
:1002C00001A14018029003BD55FFFFFF03B468462B
:1002D00001B5029800F03EF9019B9E4602B00CBCAD
:1002E0007047C046002B11D1002A0FD1002900D140
:1002F000002802D00021C943080007B4024802A127
:100300004018029003BDC04615FFFFFF03B46846C6
:1003100001B5029800F052F8019B9E4602B00CBC59
:100320007047C046F0B5CE469946030C9C46130470
:1003300047461B0C1D000E0061460404240C80B5CA
:100340000700100C4B436543414360432C0CC0181D
:1003500024188C46A34203D980235B029846C444E8
:10036000494679435643230C2D042D0C89196344C7
:1003700024046019C918C0BCB946B046F0BDC046D7
:1003800070B500220C4B04000D00FFF77DFF002824
:1003900004D12000290001F03FF970BD064B002276
:1003A0002000290000F02EFD01F036F980231B0605
:1003B0009C466044F1E7C0460000E041F0B5574676
:1003C0004E464546DE46E0B504000D00924699468D
:1003D00083B08B4230D82DD04946504601F0C8F941
:1003E00029000600200001F0C3F9331A9846203B8B
:1003F00034D49B4653465A46934042461F005346C8
:1004000093401E00AF423BD8AF4200D179E05B463B
:10041000A41BBD41002B00DA76E0002200230092ED
:10042000019301235A46934001930123424693408E
:10043000009329E08242CFD9002200230092019349
:100440000C9B002B01D01C605D600098019903B0EB
:10045000F0BCBB46B246A946A046F0BD42469B460C
:1004600020239B1A5246DA40414613004A468A40EE
:10047000170042461F43534693401E00AF42C3D964
:1004800000220023009201934346002BD8D0FB07A3
:1004900072081A4346467B080EE0AB4201D1A242E5
:1004A0000CD8A41A9D41012024196D410021013E60
:1004B00024184D41002E06D0AB42EED9013E24193E
:1004C0006D41002EF8D1009801995B4600196941F1
:1004D000002B24DB2B005A464446D3402A00E2403E
:1004E0001C005B461500002B2ADB26009E403300D3
:1004F00026004746BE403200801A99410090019183
:100500009EE7A342BCD882E74246202300219B1AE3
:100510000022009101920122DA40019285E74246D1
:1005200020239B1A2A0046469A402300F340444663
:1005300013432A00E2401C005B461500002BD4DA6E
:1005400042462F002023260097409B1ADE403B00A6
:100550003343CDE7F8B5CE46474680B59146984639
:1005600004000D0001F010F907000E0002000B005E
:1005700048464146FFF7D6FE241A8D41089B3800B5
:1005800031001C605D60C0BCB946B046F8BDC046D5
:10059000F0B5DE46454657464E46E0B587B0009278
:1005A00001930B031B0B9B46CA0F4B0004008046B4
:1005B0005B0D029200D198E07C4A934237D05946B5
:1005C000420FC9000A43802109041143C20090462A
:1005D000774A894692469A44002300240393009E5A
:1005E000019F3B031B0B9B467B0030005B0DFD0F07
:1005F000002B59D06D4A934248D05946720FC9001A
:100600000A438021090411438B466949F2008C4654
:1006100051466344CB1A9A460021029E6E40F6B2C0
:100620000F2C00D9CEE0634BA4001B599F465A46BD
:100630000243914600D090E09A4602239046082457
:100640000393CCE7CB464246029D0399022900D191
:10065000DEE1032900D18DE0012900D079E12E00EF
:1006600000220023002490461B052343F607334352
:100670004046190007B0F0BCBB46B246A946A046AA
:10068000F0BD002200249046484BEDE75A46009BFF
:100690001A43494B9C46E244002A59D102231C4389
:1006A000002302219B46B8E75A46009B1A4349D0D3
:1006B0005B46002B00D19CE1584601F03BF802005C
:1006C00003000B3A1D27009EBA1A19005846D6405F
:1006D00008398840320002439346009A8A403749DD
:1006E00053448A4600219A4497E75B460343994660
:1006F00021D05B46002B00D169E1584601F01AF881
:100700000B235B429C460200844466461D239B1BD0
:10071000260011005846DE40083988403300034364
:10072000994623008B409846254B00249B1A9A46F5
:100730000023039353E7002398469A460133042489
:1007400003934CE701231C43002301219B4664E7EC
:100750000323320003211C435FE79A460323D94653
:100760000C2403933BE700238024984600260F4B7C
:10077000240379E780245B4624031C4324032E00D2
:1007800090460A4B240B6FE780244B4624032342F8
:1007900002D05B462342F0D080244B4624031C4306
:1007A0002403029E014B240B5EE7C046FF070000B6
:1007B00001FCFFFF502A000801F8FFFFF3030000CF
:1007C0000DFCFFFFCB4500D2F8E000D1F3E00123A0
:1007D0005B429C46444648460025E2445B46170E71
:1007E0001B021F43190C3B04120200971F0C914679
:1007F00002910397FFF70EFD02007A430B04210CD0
:10080000804619438A4209D9009F0123BC465B42B6
:1008100061449C46E0448F4200D85CE1881A02990A
:10082000FFF7F8FC039A240442430904240C030054
:100830000C43A24206D90099013B8C466444A14274
:1008400000D842E1A01A424612041A4393464B468E
:1008500059461B0C1F0004930B0449460904090C5C
:100860000C001B0C5C43120C7B43884651437A43BB
:10087000270CBC465B186344994203D98021490286
:100880008C466244190C24041B04240C8A181C197D
:10089000904202D316D1A54214D25B46009F013B81
:1008A0004D4405934D459B41BC465B426344C01893
:1008B000874200D302E1824200D929E100D124E13C
:1008C000059B9B462C1BA542AD41009B801A6D42A7
:1008D000401B834200D10FE10299FFF79BFC039A72
:1008E0000B044243210C050019438A4200D9CBE096
:1008F000881A0299FFF78EFC039A240442430904E4
:10090000240C03000C43A24200D9CAE04146A41AB9
:100910002A041A43049F13041B0C594340467B438B
:100920009C46150C68430B0C844463447D439842F9
:1009300003D98020400284466544180C09041B0436
:10094000090C40195B18844227D323D001233500BA
:100950001A43944B5344002B60DD510700D086E0CE
:100960002E00D1085A46D20106D55A468E4B1A405F
:1009700080239346DB0053448C4A934200DD80E69B
:100980005A4652070A4390465A465B055402240BC6
:100990005B0D69E63500002BDBD0009D511EAC4697
:1009A0006444AC4200D29EE0844200D2E1E000D137
:1009B000EEE00A00CAE7424500D908E74B46DC07EB
:1009C000580843465B081C434346DD0706E700F032
:1009D000B1FE15239C4684440200634620321C2B42
:1009E00000DC92E6230008388340994600239846AD
:1009F0009AE600F09FFE02000300153220331C2A05
:100A000000DC5FE600990838814000228B4666E6EC
:100A100000222E0000249046654B25E62E00012181
:100A2000C91A382900DD1BE61F297EDC6148140045
:100A300050445B4682408340CC40501E8241234359
:100A40001A435B46CB40510709D00F2111400429BE
:100A500005D0111D9142924152429B180A00190281
:100A600000D49BE00022012300249046FCE50F21E6
:100A70001140042900D173E7111D91429241524265
:100A80002E00C90893446DE7009B013D9C466144DC
:100A90008B4200D92CE78A4200D829E7851E6144A1
:100AA00026E70099013B8C466444A14200D92DE71A
:100AB000A24200D82AE7831E644427E7874200D079
:100AC000FEE6A94500D9FBE6F5E6A24200D8B9E664
:100AD000831E6444B6E68A4200D89FE6BC46831E65
:100AE000984661449AE60A00844200D02EE74B45BE
:100AF00000D02BE735002CE72A4B2F4A5344924570
:100B000043DB0122002193442CE7AC4200D8D7E616
:100B100002235B429C4600994D444D459B41E34472
:100B20008C465B426344C018CCE61F204042C31A87
:100B30005846D840202904D05946204B5344994068
:100B40000A43531E9A41072319000243002411400F
:100B5000134209D008331340042B1DD0131D9342B8
:100B600089411A0049424907D2080A4390460023A6
:100B70007AE54946009F4D004D458941BC464942B2
:100B80006144A946023A6418AEE70122524246E7A0
:100B90009945EED30A00AAE70021E5E759075B0271
:100BA0001C0BE1E7FF030000FFFFFFFEFE07000054
:100BB000FF0700001E04000002FCFFFF3E040000CF
:100BC000F0B55746DE464E464546E0B50D000400FA
:100BD000E80F83460903D80F090B824619488C4653
:100BE0001F0369005E00490D3F0B760D814218D04E
:100BF00086420FD00120B1420DD1BC450BD19442A9
:100C000009D1D3451CD0002905D160462043431E9D
:100C1000984100E00120F0BCBB46B246A946A04680
:100C2000F0BD01208E42F6D1614639430F001743D3
:100C30002743F0D15B465246981A431E9841EAE793
:100C40000020E8E7FF070000F0B557464E4645464E
:100C5000DE46E0B50D000E034900490D8A46DF0F60
:100C6000E90FBC4683B02F4F040080460191580025
:100C700019039146360B090B400DBA451DD0B842F9
:100C80000DD05746002F2AD13443002824D10A43DF
:100C900036D0002C41D163465800013815E011438D
:100CA00038D15346002B01D12643F4D0019B634534
:100CB00007D1019B5800013807E026432AD150454F
:100CC00021D00120019B5F42384303B0F0BCBB46FA
:100CD000B246A946A046F0BD002CDCD0E6E70028CD
:100CE000EFD0019B6345ECD18245EADCE1DB8E422B
:100CF000E7D8DED1C845E4D80020C845E5D2D8E71A
:100D0000002CE2D0DDE7114304D1019B6345D8D12B
:100D10000020DAE702204042D7E7019B6345E6D096
:100D2000CFE7C046FF070000F0B557464E464546A0
:100D3000DE46E0B50D000E034900490D8A46DF0F7F
:100D4000E90FBC4683B02E4F040080460191580045
:100D500019039146360B090B400DBA451ED0B84217
:100D60000DD05746002F27D13443002833D10A43F2
:100D700034D0002C40D163465800013815E01143AF
:100D800012D15346002B01D12643F4D0019B634579
:100D90001DD00120019B5F42384306E0264303D16A
:100DA0005045F6D111431CD0022003B0F0BCBB4625
:100DB000B246A946A046F0BD0028EAD0019B634593
:100DC000E7D18245E5DC02DB8E42E2D80ED0019B02
:100DD00058000138E9E7002CCDD0D7E7002CE4D04B
:100DE000D7E7019B00206345DFD0D2E7C845D0D8C4
:100DF0000020C845D9D2EAE7019B6345E4D0C8E7A3
:100E0000FF070000F0B557464E464546DE46E0B5C2
:100E100083B0009001910C034D00CE0F610A009C3D
:100E20005F00640F0C43009900920193C8001903FE
:100E30007B0D9946019BCC4FDB0F9C464B0A0099DA
:100E40008046490F1943009B8B46DA0092466D0D90
:100E5000B94500D1BFE00123614659404B468C465D
:100E6000EB1A8E4275D0002B00DCA3E24946002924
:100E700000D1CEE0BD4200D100E20127382B19DCC1
:100E8000802759463F0439438B461F2B00DDFAE18A
:100E90002027F91A8C4659466746B9400F001100C1
:100EA000D9400F4361468A40511E8A415946D94074
:100EB0001743641AC71BB84280414042241A2302D8
:100EC00000D440E16402640A002C00D154E1200007
:100ED00000F030FC0300083B20213800CA1AD04043
:100EE0009C4002009F4022439D4200DDA6E1581B2A
:100EF0000130091A3C008F40C4407B1E9F41130003
:100F00008B4027431F43C2403B001400002513437E
:100F100000D1F7E17B0700D177E30F2338003B4096
:100F2000042B04D0381DB842BF417F42E41923028C
:100F300000D468E38C4B01359D4200D1F4E08B4B2B
:100F40006D051C406D0D6707C00864020743240B44
:100F5000ECE0002B00DC29E34946002900D0D6E074
:100F60005946114300D12EE1591E012B00D1E6E173
:100F7000BB4200D182E101270B00382914DC1F2B72
:100F800000DD3CE22027F91A8C4659466746B940F5
:100F90000F001100D9400F4361468A40511E8A411B
:100FA0005946D940174364183F1887428041404250
:100FB0002418230200D4C6E06B4B01359D4200D1BA
:100FC000B2E00121694B7A081C4039400A43E70727
:100FD000174364089EE7664B11438A46EB180029C5
:100FE00028D066452CD0002B5BD0002D00D12CE101
:100FF0005B4666465F07D2081743DD083B002B437C
:1010000000D1E2E0802424032C432403564D240B1A
:101010008CE05946114300D1D5E0591E012B00D177
:10102000B9E1BB4200D1B1E101270B00382900DD55
:1010300040E72AE76146012779408C466645D2D1D0
:10104000002B00D1C5E0002D00D055E14B46250016
:10105000054300D112E2591E8C46012B00D149E212
:10106000414DAB4200D18FE20127382911DC6346A4
:101070001F2B00DD5BE26146202327005B1A050081
:1010800098409F40CD40431E9841CC402F4307439A
:10109000A344BF189742924152425A4414004D460D
:1010A00087E7344F6B1C3B4200D0B6E05946230023
:1010B00011430F000343002D00D026E1002B00D187
:1010C000C0E1002900D1A1E0831A98465B46404563
:1010D000AD41E31A6D425B1B80252D042B4200D1EC
:1010E0004BE15B46101A824292411C1B070001260D
:1010F00063465242A41A27431E40002F00D142E10A
:101100002C4200D16DE2194B01251C401BE7BD426A
:1011100000D13BE10127382B00DD45E78027594608
:101120003F0439438B462AE7002400272D05254339
:10113000F60735433800290003B0F0BCBB46B24681
:10114000A946A046F0BD7B0704D00F233B40042BEB
:1011500000D0E7E62B00F808034A67070743E508D5
:10116000934200D14AE7A5E0FF070000FFFF7FFFA1
:1011700001F8FFFFFE070000380000F0DBFA030073
:1011800018331F2B00DCA7E63A00083882409D4246
:1011900000DD8AE05B1B581C1F2800DCD8E117002B
:1011A0001F3BDF40202805D040231B1A9A40531EC6
:1011B0009A4117430025002F00D1E5E07B0700D0BE
:1011C000ABE62C00C6E7C008C6E700270024D14DD7
:1011D000ACE7D14F6B1C3B4271D123000343002D80
:1011E00000D04EE15746002B00D1B5E1002F0DD0C5
:1011F0008318834280415C4440422418220200D577
:10120000C8E11F009846274300D1BCE0434667076A
:10121000DB081F43E50800234CE0831A98465B4631
:101220004045BF41E31A7F42DB1B1F027CD4474687
:101230001F4300D1A6E01C00474645E6B74CED1A17
:1012400014407B0700D080E784E74B462500054328
:1012500066D05F1E012B00D1FCE0AE4DAB4200D149
:101260005EE16646382F00DCB4E00120171ABA426E
:1012700092415B4652424D469C1A20E66707C008E1
:101280000743E508BAE61F005946203FF9400F0022
:10129000202B05D04021CB1A594699400A4392464B
:1012A00053465A1E93411F4304E6EB1A9B4D1540CB
:1012B0006F07ED082C035D05240B6D0D36E7954D8A
:1012C000AB4200D1D6E082182100824280415944CD
:1012D00040420818C707520817434408520700D471
:1012E00085E10F221D003A40042A00D01AE6FF08CB
:1012F000640727430509DDE75B46D2085F0717430C
:10130000DD087BE60027002410E7002B00D0D6E0A4
:10131000002900D02FE1802400267E4D240305E71C
:1013200066465C46D00817E75B46171ABA429241F8
:101330001C1B012663465242A41A1E40C4E58318B2
:10134000834280415C44404225182A0200D4DAE0FE
:10135000724A5B081540EA071A4369085B0700D424
:101360004AE10F231340042B00D1FCE0171D9742E4
:10137000A441644202256418ECE647461C001F4362
:1013800000D043E7002600250024CFE6C008670709
:101390000743E50832E6871A5B46B8428041E41A03
:1013A0004042241A230228D46307FF081F43E5089C
:1013B00001237FE7002B00D173E64B465F1B3B0008
:1013C000002D00D142E7382F00DDECE080230E0035
:1013D0001B041C431F2F25DC20252300ED1B0100CF
:1013E000A840AB40F940451EA8410B43FC401843C0
:1013F0005B461B1B9B4639E76646012562E51F00DD
:101400005946203FF9408C46202B05D040275946AD
:10141000FB1A99400A43924657467B1E9F416346FA
:101420001F43C1E53B002500203BDD40202F04D0B9
:101430004023DB1B9C40204380464046431E98418E
:10144000284313E700299DD0012663465C46904659
:101450001E40DBE6171A5B46BA4292411C1B524201
:10146000A41A2302C8D46307FF081F43664601235A
:10147000E5081FE71D000024002757E65C46D0085A
:101480006AE6002B00D137E75346C00867070743D9
:10149000E508002B00D1B1E580231B031D4208D0D5
:1014A0005946C808184204D1D20849070A43170010
:1014B00005007B0FFF00FF085B071F439EE5C00888
:1014C00063071843E508002953D080231B031D42FE
:1014D0000AD05946CC081C4206D101266346250095
:1014E000D008490708431E40470FC000C0087F07C7
:1014F000074383E58318934292415C445242A51806
:101500002A0200D524E76F07DB081F43ED080123FB
:10151000D0E6C046FF070000FE070000FFFF7FFF88
:101520005B46D2085F0766461743DD0866E525007F
:10153000203BDD406346202B05D0402361465B1AEB
:101540009C402043804647467B1E9F412F43A0E599
:1015500020210027091AD2E4002F00D113E75C46AE
:1015600017000025F6E5D708490702230F432D0988
:10157000A0E6070042E55B4601265F07DD086346FB
:10158000D20817431E4039E55B46D2085F07174370
:10159000DD0833E51E4ADB082240570752020125C9
:1015A0001F43140BC2E50E0001205FE6002B0DD097
:1015B0004B465B1B9C46002D00D148E50127382B8C
:1015C00000DD66E580231B041C4350E56B1C114DB8
:1015D0002B4200D073E65946230011438A46034349
:1015E00000E66707C00800230743E50862E66407D2
:1015F000FF08274305095DE6D208490711430F009C
:1016000002232D0956E60700A4E538008FE4C04602
:10161000FFFF7FFFFE0700000B00020070B5164DB4
:101620000C0382B04900002000920193240B490D65
:10163000DE0FA94204DD1148814203DD104BF01892
:1016400002B070BD8020400320430E4C641A1F2C52
:1016500008DD0D4B5B1AD84003005842002EEFD135
:101660001800EDE7094B009A9C46030061448B404B
:10167000E2401343F1E7C046FE0300001D040000F2
:10168000FFFFFF7F3304000013040000EDFBFFFFAA
:1016900070B5002816D0C317C5185D40C40F2800C8
:1016A00000F048F8104B1B1A5B055B0D0A2814DC90
:1016B00002002E00153296400B22121AD5402D033F
:1016C0002D0B03E000240023002500261B052B43DF
:1016D000E40723433000190070BD0B3885402D030B
:1016E00000262D0BF2E7C0461E04000010B5041EB4
:1016F00010D000F01FF80E4B1B1A5B055B0D0A287B
:101700000FDC0B222100121AD14015300A0384404D
:10171000120B01E0002300221B05134320001900D7
:1017200010BD22000B38824012030024120BF3E795
:101730001E0400001C2101231B04984201D3000C4D
:1017400010391B0A984201D3000A08391B09984234
:1017500001D30009043902A2105C40187047C0464A
:10176000040302020101010100000000000000006A
:1017700010B5002903D1FFF7DDFF203002E008009B
:10178000FFF7D8FF10BDC046F0B54F464646D646D7
:10179000C0B506000F001000190082B0002F5DDBFD
:1017A00034003D00002B0BDB16001F00AB4217D9A5
:1017B0000020002102B0E0BCBA46B146A846F0BD08
:1017C000002746428F41AF42F2D800D1A0E001236A
:1017D0005B42994609E0002746428F41AF42E7D875
:1017E000AF4200D190E00023994639003000FFF766
:1017F000BFFF804629002000FFF7BAFF43461B1AAF
:101800009846203B75D4310099409A460B00310030
:10181000404681400A00AB422ED82BD05146A41A34
:101820009D41002900DA90E000210020012600906F
:10183000019151468E400196414601268E40414617
:10184000009600291FD1009801994B46002BB1D07A
:1018500003000C0000215842A141ABE7002574426F
:10186000BD41002BB7DB16001F00AB42A0D8AF4232
:10187000ADD14DE0A142D1D90021002000900191CD
:1018800041460029DFD0D90756085F080E4343467A
:101890000EE0AF4201D1A6420CD8A41BBD410121EC
:1018A00024196D410022013B64185541002B06D0DC
:1018B000AF42EED9013B24196D41002BF8D1009ABB
:1018C000019B514612196B41002925DB2E002C008B
:1018D000CE404146CC40514600292DDB34008C409F
:1018E00021004446A6403000121A8B410092019319
:1018F000A9E7424638009A462023310090409B1ABF
:10190000D94003000B4382E7A64200D950E76AE7BB
:10191000A64200D85BE74BE740462021091A280081
:101920008840260001004046C6402C000E43414638
:10193000CC4051460029D1DA404620213500844070
:10194000091ACD4021002943CBE741462026012733
:10195000761A00200021F7400090019101976BE773
:1019600010B588B01422002103A801F038F8174BF5
:101970005A698021C9030A435A615A690A40009290
:10198000009A5A698021C9020A435A615A690A4079
:101990000192019A5A69802189020A435A615B695E
:1019A0000B400293029B0A4C0022FF21200000F012
:1019B00089FFFF230393FE3B0493002305930693C3
:1019C00003A9200000F0BAFE08B010BD00100240CC
:1019D00000040048F0B5DE4657464E464546E0B5A1
:1019E0009BB0804619911692002600230024149380
:1019F00015941896BAE0009B1B1A9B460B9A2B0075
:101A00000A982100FEF78EFC02000B00C917090599
:101A1000090D0691002107910698079912184B416C
:101A200011001B050A0B1A43520042441700584686
:101A300048440136169B9E4246DA0A90C4170200BB
:101A400023002100FEF76EFC02000B00C9170905F8
:101A5000090D0291002103910298039912184B413C
:101A6000190508920993120B0B0013430093099B6D
:101A70001B1301930B97FD173A002B003800290028
:101A8000FEF750FC02000B00C9170905080D049071
:101A9000002105910498059912184B411F050892E1
:101AA0000993120B17433800099B1913009A019BE5
:101AB00012184B4108920993002B05DC9BD180231F
:101AC000DB01089A9A4296D9179C55461296F3174D
:101AD0001393149A159B1298139912184B41149250
:101AE00015930134AC423DDA1094E317119310982A
:101AF0001199820F9B000D9313430D9383000C9358
:101B00000C9A0D9B12184B41510FD8000F900843AF
:101B10000F90D1000E910E980F99801A9941020DE5
:101B20000B03060330001A431100AA005219520099
:101B3000D317FEF7B3FB164B99468144189AD11779
:101B4000D30C490319435003199AD317FEF7A6FB88
:101B5000104B984680440023002017941F001E005D
:101B6000AA4667E7A846189B01331893189B199A51
:101B7000934203DA002634004546B3E714981599DA
:101B80001BB0F0BCBB46B246A946A046F0BDC0465D
:101B900000D8FFFF00F0FFFFF0B5DE4657464E4687
:101BA0004546E0B59FB01A901B9119921C0028ABD6
:101BB0001E8829AB1B881C93002398460022002313
:101BC00014921593434618931D943700C1E0009B6F
:101BD0001B1A9B46169A2B000B982100FEF7A2FBBE
:101BE00002000B00C9170905090D06910021079194
:101BF0000698079912184B4111001B050A0B1A434E
:101C00005200424417005846484401362A9B9E42DF
:101C100046DA0B90C417020023002100FEF782FB76
:101C200002000B00C9170905090D0291002103915B
:101C30000298039912184B41190508920993120B47
:101C40000B0013430093099B1B1301931697FD1779
:101C50003A002B0038002900FEF764FB02000B005D
:101C6000C9170905080D04900021059104980599EC
:101C700012184B411F0508920993120B17433800A5
:101C8000099B1913009A019B12184B410892099362
:101C9000002B05DC9BD18023DB01089A9A4296D960
:101CA000179D57461296F3171393149B159C129980
:101CB000139A5B185441149315940135199BAB4248
:101CC00044DD1A9B5B191B9C189A9446644410933C
:101CD000DB17119310981199820F9B000D931343FA
:101CE0000D9383000C930C9A0D9B12184B41510FCE
:101CF000D8000F9008430F90D1000E910E980F99C5
:101D0000801A9941020D0B03060330001A4311009B
:101D1000BA00D21952000023FEF7C0FA154B9946BB
:101D20008144E117E30C4903194360031C9A002323
:101D3000FEF7B4FA104B9846804400239B460020DF
:101D400017951E003B005F469A465FE7189B0133DC
:101D500018931D9B189A934202DD00263500ADE7CB
:101D6000149815991FB0F0BCBB46B246A946A046D0
:101D7000F0BDC04600D8FFFF00F0FFFF10B5FFF731
:101D800029FE10BD414389000020C0235B018B4226
:101D90004041C0B2704772B6FEE700B591B0302244
:101DA000002104A800F01BFE10220021684600F06C
:101DB00016FE02230493012207920F3208920C931D
:101DC000A0239B030E9304A800F04AF900280ED12B
:101DD00007230093053B0193002302930393012102
:101DE000684600F0B5FB002803D111B000BDFFF735
:101DF000D2FFFFF7D0FF0000F0B5DE4657464E4653
:101E00004546E0B587B000F065FCFFF7C6FFFFF779
:101E1000A7FD0023994660E0734B00200021186065
:101E20005960724B1B68049319007F31CA177F23D6
:101E30001A405218D21190466D4A15682A007F3216
:101E4000D1170B409B18DB119B46002731E0802205
:101E50007B1CDB019D4205DAA9B2FB019BB2CB1AC8
:101E60009BB200E08023F90189B2C00180B26424F2
:101E70000294ACB201946C46248A0094FFF78CFE65
:101E8000594C2268636880185941206061603000B5
:101E900043461B041B0C83420ADD461CF301049AD3
:101EA0009A42D4DA93B2C20192B29A1A92B2CFE7AE
:101EB00001375B461B041B0C9F4234DA0020E7E726
:101EC00001234C4A41000918C9005218D3824A4BD9
:101ED0000130187001239C46E1444B46072B00D982
:101EE00080E0464B4A469200D05A404908609B1811
:101EF00059883F4B1960FFF745FF04000123434019
:101F0000DBB29A4600F002FC3D4B1860002C00D179
:101F100082E7374B1968354B18686422FFF72EFFAC
:101F2000314B1860596000F0F1FB364B1860344BB0
:101F30001C68041B344D2C60344A0023200000210F
:101F4000FEF7F0F9FA2292000023FEF7CBF9304BAE
:101F500018605960254F264E3B6830685843FFF79C
:101F600097FB049005912000FFF7C0FB0022294B4E
:101F7000FEF70EFB02000B0004980599FEF708FB24
:101F8000FEF7FEF9244C20600121244800F0A0FC5B
:101F9000642000F0C1FB3F68174B187815494300D7
:101FA0001A18D2005752366889184E802B684B6039
:101FB0000D4B1A685B688A60CB6023680B615346DF
:101FC0000B75002B00D17BE77F37FB177F22134077
:101FD000DB19DB117F36F1170A409219D2115343F6
:101FE0009BB26EE7FEE7C0462801002010010020EA
:101FF00014010020500000204C00002000000020B0
:10200000380100203401002030010020006CDC0287
:102010002001002000408F401801002000040048EB
:10202000FEE7FEE77047704710B500F063FB10BD98
:1020300082B00A4B996901221143996199690A405A
:102040000092009ADA69802149050A43DA61DB6966
:102050000B400193019B02B07047C0460010024044
:1020600070B582B0041E00D12EE20368DB0726D5CE
:10207000AE4B5A680C231340042B18D0AB4B5A6854
:102080000C231340082B0ED06368012B3CD0002B8F
:1020900051D1A64B1A68A6490A401A601A68A54988
:1020A0000A401A6036E0A14B5B68DB03ECD59F4B1E
:1020B0001B689B0303D56368002B00D107E22368EC
:1020C0009B0772D5994B5B680C221A425DD0974BE7
:1020D0005A680C231340082B53D0E368002B00D11F
:1020E00085E0924A136801210B43136000F00EFB58
:1020F00005008E4B1B689B0770D400F007FB401B4C
:102100000228F6D90320E0E1884A116880235B02A7
:102110000B4313606368002B25D000F0F7FA05002D
:10212000824B1B689B03CAD400F0F0FA401B642862
:10213000F6D90320C9E1052B09D07C4B1A687C49EC
:102140000A401A601A687B490A401A60E2E7774B36
:1021500019688022D2020A431A601968802252024A
:102160000A431A60D6E700F0D1FA05006F4B1B68EE
:102170009B03A4D500F0CAFA401B6428F6D90320BB
:10218000A3E16A4B5B68DB03A7D4684B1B689B0722
:1021900003D5E368012B00D09BE164490B68F8226A
:1021A00093432269D20013430B6023681B0744D575
:1021B000E369002B2ED05D4A536A01210B43536221
:1021C00000F0A4FA0500594B5B6A9B0735D400F078
:1021D0009DFA401B0228F6D9032076E153490B688B
:1021E000F82293432269D20013430B60DDE74F4A84
:1021F000136801218B43136000F088FA05004B4BF4
:102200001B689B07D1D500F081FA401B0228F6D944
:1022100003205AE1454A536A01218B43536200F07F
:1022200075FA0500414B5B6A9B0706D500F06EFA14
:10223000401B0228F6D9032047E123685B0700D43E
:1022400080E03A4BDB69DB001DD4384BDA69802132
:1022500049050A43DA61DB690B400193019B0125C3
:10226000354B1B68DB0510D5A368012B21D0002B53
:1022700036D12E4B1A6A01218A431A621A6A033137
:102280008A431A621AE00025EAE72B4A1168802384
:102290005B000B43136000F039FA0600264B1B6805
:1022A000DB05E1D400F032FA801B6428F6D9032064
:1022B0000BE11E4A136A01210B431362A368002B32
:1022C00024D000F023FA0600184B1B6A9B0737D472
:1022D00000F01CFA801B194B9842F5D90320F4E05A
:1022E000052B09D0114B1A6A01218A431A621A6A16
:1022F00003318A431A62E1E70C4B1A6A04210A434C
:102300001A621A6A03390A431A62D7E700F0FEF923
:102310000600064B1B6A9B0712D500F0F7F9801BDD
:10232000064B9842F5D90320CFE0C046001002408A
:10233000FFFFFEFFFFFFFBFF00700040881300005F
:10234000012D33D02368DB0610D56369012B33D010
:10235000053351D1654A536B04218B435363536B4F
:10236000F4318B43A169C9000B435363236A002BEB
:1023700000D1B0E05D4A51680C220A40082A00D121
:102380008AE0022B4FD0594A136859490B40136019
:1023900000F0BCF90400554B1B689B017AD500F096
:1023A000B5F9001B0228F6D903208EE04F4AD36905
:1023B00050490B40D361C5E74C4B5A6B04210A438B
:1023C0005A635A6B03390A435A6300F09FF90500B8
:1023D000464B5B6B9B0706D400F098F9401B022824
:1023E000F6D9032071E041494B6BF8229343A2696F
:1023F000D20013434B63B9E73C4B5A6B04210A43A9
:102400005A635A6B03398A435A6300F07FF9050017
:10241000364B5B6B9B07A9D500F078F9401B02286F
:10242000F6D9032051E0314A136831490B4013605B
:1024300000F06CF905002D4B1B689B0106D500F0E0
:1024400065F9401B0228F6D903203EE0274BDA6AE3
:102450000F218A43E16A0A43DA625A6826490A4030
:10246000A16A606A01430A435A60196880225204D3
:102470000A431A6000F04AF904001C4B1B689B01D8
:1024800006D400F043F9001B0228F6D903201CE013
:1024900000201AE0002018E0012B1ED0134B5A68D0
:1024A000D86A80235B021340616A8B4217D10F23E5
:1024B0000340E16A8B4214D1F0239B031A40A36AC4
:1024C0009A4210D1002000E0012002B070BD01202E
:1024D000FBE70120F9E70020F7E70120F5E70120FD
:1024E000F3E70120F1E70120EFE7C04600100240CA
:1024F000FFFFFFFEFFFFFFEFFFFFC2FF10B5104B16
:102500005A680C231340082B01D00E4810BD910CC3
:10251000073319400C48445C0949C96A0B400B4910
:10252000C95CD20304D50748FDF7EEFD6043EDE733
:102530006201121B93019B1ADB001B191802E5E7CD
:102540000010024000127A00A02A0008902A000819
:1025500070B504000D00002800D17EE0434B1A68DE
:10256000012313408B420AD240490B680122934356
:102570002B430B600B681A40AA4200D06FE023681F
:102580009A070ED55B0705D5394A5168E023DB0071
:102590000B435360364A5368F0218B43A1680B43C9
:1025A00053602368DB072DD56368012B1ED0022BF7
:1025B00022D02F4A1268920753D52D494A6803202A
:1025C000824313434B6000F0A1F80600284B5B6880
:1025D0000C221A4063689B009A4213D000F096F8D0
:1025E000801B244B9842F1D9032035E0204A126821
:1025F0009203E2D401202FE01D4A12689201DCD43C
:10260000012029E0194B1A6801231340AB4209D974
:1026100016490B68012293432B430B600B681A4049
:10262000AA4220D123685B0706D5114A5368124994
:102630000B40E1680B435360FFF760FF0C4B5A6897
:1026400012090F2313400D4AD35CD8400C4B18607D
:10265000032000F017F8002070BD0120FCE70120E6
:10266000FAE70120F8E70120F6E7C0460020024023
:102670000010024088130000FFF8FFFFB02A000896
:102680002800002010B504000F4B1978FA208000B4
:10269000FDF73AFD01000D4B1868FDF735FD00F020
:1026A0006FF900280DD1032C01D901200AE0013077
:1026B00000222100404200F05FF9054B1C60002021
:1026C00000E0012010BDC0462000002028000020AE
:1026D0002400002010B5064A136810210B43136034
:1026E0000320FFF7CFFFFFF7A3FC002010BDC0467B
:1026F00000200240034A1168034B1B785B181360EB
:102700007047C0463C01002020000020014B1868A3
:102710007047C0463C01002070B50400FFF7F6FF8B
:102720000500631C02D0044B1B78E418FFF7EEFF92
:10273000401BA042FAD370BD20000020F0B583B04A
:10274000002356E086685F000324BC40A643CC68A3
:10275000BC4034438460446894434E683609012287
:1027600032409A402243426053E0DE080836B60009
:10277000375805321A4092000F249440A7430C6941
:10278000944022003A43325056E0032600E00026EF
:10279000A64034003C4302329200444E9451444AD5
:1027A0009768EA433E00AE434C68E40201D53E0020
:1027B0002E433F4CA660E7683E0016404C68A402DA
:1027C00001D53E002E433A4CE66067683E00164055
:1027D0004C68A40301D53E002E43354C6660266844
:1027E00032404C68E40301D52A003243304C226069
:1027F00001330C682200DA4056D001229A402500AD
:1028000015401442F4D04E6803243440013C012C9E
:1028100098D94C6803222240032A08D0C4685E007D
:102820000322B24094438A68B2402243C2604C689B
:1028300003222240022A98D004685E000322170077
:10284000B740BC434F683A40B240224302604C68F4
:10285000C02292021442CBD0164CA6690122164324
:10286000A661A46922400192019A9A08941CA400CE
:102870000E4EA75903241C40A4000F26A640B743C0
:102880009026F605B04282D00B4EB04208D00B4ED7
:10289000B04207D00A4EB04200D176E7052677E76E
:1028A000012675E7022673E703B0F0BD0000014082
:1028B00000040140001002400004004800080048E5
:1028C000000C0048002A01D0816170478162FCE75A
:1028D000426913000B401B0491430B438361704713
:1028E00070B5002811DB8308134DC0339B005C5981
:1028F00003221040C000FC3216008640B443890118
:102900000A40824022435A5170BD0F230340083BC6
:102910009B0806339B00094A944663445C68032283
:102920001040C000FC3215008540AC4389010A40CC
:10293000824022435A60E7E700E100E000ED00E05A
:10294000013880235B0498420FD2094A506009483D
:10295000036A1B021B0AC02109060B430362002302
:10296000936007331360002070470120FCE7C046E6
:1029700010E000E000ED00E010B5FFF7B1FF10BD82
:1029800010B5FFF7DDFF10BD704700000D4885460C
:10299000FFF7FAFF0C480D490D4A002302E0D45816
:1029A000C4500433C4188C42F9D30A4A0A4C002399
:1029B00001E013600432A242FBD300F019F8FFF7E4
:1029C0001BFAFEE700200020000000202C00002061
:1029D000D02A00083000002040010020FEE703005C
:1029E0008218934200D1704719700133F9E7000053
:1029F00070B500260C4C0D4D641BA410A64209D1E5
:102A0000002600F019F80A4C0A4D641BA410A642D7
:102A100005D170BDB300EB5898470136EEE7B3001F
:102A2000EB5898470136F2E7C82A0008C82A000880
:102A3000CC2A0008C82A0008F8B5C046F8BC08BC73
:102A40009E467047F8B5C046F8BC08BC9E46704725
:102A5000C407000882060008600600084C0600084B
:102A60006006000866070008600600084C060008BB
:102A70008206000882060008660700084C06000867
:102A800044060008440600084406000888070008B9
:102A90000102030405060708090A0B0C0D0E0F10AE
:102AA00002030405060708090A0B0C0D0E0F10108F
:102AB00000000000000000000102030406070809EE
:082AC000FCD8FF7F01000000BB
:042AC800E900000819
:042ACC00C10000083D
:102AD00080008000000100014001F0008002E00160
:102AE00020035802000400030005D00280073804C8
:0C2AF000010000000400000000127A0049
:040000050800298D39
:00000001FF
